:100000000C940F170C9436170C9436170C94361763
:100010000C9436170C9436170C9436170C9436172C
:100020000C9436170C9436170C9436170C94DE1A71
:100030000C9436170C9436170C9436170C94BE1982
:100040000C9436170C9436170C9436170C943617FC
:100050000C9436170C9436170C9436170C943617EC
:100060000C9436170C9436170C9436170C943617DC
:100070000C9436170C9436170C94361701007F1524
:1000800002007F2A03007F0004007F0005007F003C
:1000900006007F007800000400010000100001014C
:1000A00000011000001600002A00011600012A00BD
:1000B00000000000000005002A0100FF1000000001
:1000C000005801000100007F0100FF110100010044
:1000D0005801000203DC240100FF0E020002005858
:1000E00001000303C0400100FF0F0300030058019B
:1000F000000405002A0100FF120000000059010061
:100100000500007F0100FF130100010059010006F6
:1001100003DC240100FF1402000200590100070360
:10012000C0400100FF150300030059010008010051
:100130003F0100FF16C30004005A01000906000534
:100140000100FF17C40006005A01000A01003F0128
:1001500000FF18460008005A01000B07000A0100C2
:10016000FF19000000005A01000C01003F0100FFD0
:100170001A050005005A01000D01003F0100FF1B98
:10018000610061005A01000E01003F0100FF0CC731
:1001900000C7005A01000F01001F0100FF0DC80039
:1001A000FC005A01001000007F0100FF4AFD00FD25
:1001B000005C01001101003F0100FF470900090038
:1001C0005C0100120800020100FF1C0A000A005C2A
:1001D00001001300007F0100FF1DFD00FD005D0117
:1001E000001401003F0100FF1E090009005D01002D
:1001F000150800020100FF1F0A000A005D01001639
:1002000001003F0100FF030B000B005C0100170120
:10021000003F0100FF090C000C005C01040002001B
:10022000020100FFFF150015000000001800007F0C
:1002300003080049CB000F005E01001900007F0396
:1002400008004B100010005E01001A00007F030838
:100250000046110011005E01001B00007F03080032
:1002600048120012005E01001F0900020308002C62
:10027000130013005B01001D0A008E0308002D14FB
:100280000014005B01001C0B00130308002E00008B
:1002900000005B01003100007F0100FF2F140014FB
:1002A00000160000300B00030100FF3000000000CA
:1002B0001600040102000D0100FFFF1C001B0000DE
:1002C0000000320C00180E0301FF470017001B004E
:1002D00000330D00140E0301FF180018001B00006E
:1002E0003403C13F0E0301FF460008001B00040257
:1002F0000200030100FFFF1F001E000000005C0C55
:10030000001E040302FF190019001E00005D0C000E
:100310001E040302FF1A001A001E00005E0E000AEF
:10032000040302FF070007001E00017000007F01A8
:1003300000FF07200020002A00017103FE020100D7
:10034000FFFF4B0021002A00017203817F0100FFA3
:100350005E030003002A0001730100280100FF5F13
:10036000490022002A0001740F001F0100FFFF2630
:100370000026002A0001750400010100FF4423004B
:1003800023002A00017601003F0100FF052400241C
:10039000002A0001771000040100FF664A002500D2
:1003A0002A0001781100050100FF67270027000ED1
:1003B0000101790301040100FF68020002000E013F
:1003C000017A02001D0100FF69280028000E0101CA
:1003D0007B15000E0100FF6A300030000E01017C29
:1003E0000101200100FFFF340031003A01017D01CD
:1003F00001200100FFFF350032003A01017E0101BA
:10040000200100FFFF360033003A01017F12000592
:100410000100FF6B0A000A002A0004030200050124
:1004200000FFFF2A002A0000000200190010060445
:1004300003FF290029002A00020113007F0604039C
:10044000FF2E002E002A00020213007F060403FF85
:100450002F002F002A0002181427F00100FFFF2BA5
:10046000002B00610102191600050100FFFF370093
:1004700037006101021A00007F0100FFFF460008FB
:10048000006101021B0100080100FFFF2C002D008C
:100490006101030017000F0100FFFF3F003F00381C
:1004A0000003011800040100FFFF40004000380075
:1004B00003020400010100FFFF3A003A0063010358
:1004C000030400010100FFFF390039006301030448
:1004D0000400010100FFFF3B003B00630103050432
:1004E00000010100FFFF3C003D0063010306040022
:1004F000010100FFFF3E003E006301006803C13FB1
:100500000100FF6C0D000D005C01006903C13F019B
:1005100000FF6D0E000E005C0103071A00020100CF
:10052000FFFF42004200630103080400010100FFD5
:10053000FF41014300630103091B00C80100FFFFE5
:100540008F0190016301030A0400010100FFFF9184
:100550000192016301000102030405060708090A6C
:100560000B0C0D0E0F1011121314151617191A1B60
:100570001C1F1EFF1D191A1B1C1F1EFF1D191A1BF5
:100580001C1F1EFF1D212023242523242523242571
:10059000232425232425232425232425232425231C
:1005A000242523242523242523242523242523240B
:1005B00025272829272829272829272829494AFFA4
:1005C000FFFFFFFFFF2A2B2C2D2E2F30313233342B
:1005D0003536373839000000000000000000000008
:1005E000000000000000000000000000000000000B
:1005F00000000000000000000000000000000000FB
:1006000000000000000000000000000000000000EA
:100610000000000000FFFFFFFFFFFFFFFFFFFFFFE5
:10062000FFFFFFFFFFFFFFFFFFFF1011160106078F
:100630001E30FFFFFF1CFFFFFFFFFFFFFF1C200816
:100640000C0D191A1B1CFFFFFFFFFF1A1B1CFFFFDD
:1006500031FFFF1A1BFFFFFF16FF30FF2AFF17FFB6
:10066000FF0E0F020300010405060708090A0B0C20
:100670000D12131415FFFFFFFFFFFFFFFFFFFFFF2A
:10068000FF1D1E1F2021FFFFFF1D1E1FFFFFFFFF7D
:10069000FF1D1E1FFFFFFFFFFF2FFF1B111C191067
:1006A0001AFFFF1BFF1C19FF1AFFFF1BFF1C19FF7E
:1006B0001AFFFF2C2DFFFFFFFFFFFF3132333435D0
:1006C00039494AFFFF2D3031323334353637383926
:1006D0000020434323204444232045204646232032
:1006E0004747232041412320420000000000000032
:1006F00000004C004E008D00930006010A012A0103
:1007000079009E00BD0012016E010D0123011D0143
:10071000000000002A0152014201390100003E019F
:10072000000078000000000000000001000A101026
:100730001001FFFF8080CCCC20200020406080A0F2
:10074000C0FF0010204080FF8040202020200000BB
:100750008040BC643C64B0643064BC643C64B0649D
:100760003064BC643C64B064B0E4BC643C64B064B9
:10077000306400000000010000000220F40C2000A2
:100780001F000000000060000000000018000028AA
:10079000143C0027000000280028002F000000283B
:1007A0006428003F00000048000000000100030230
:1007B00000030300040000040100050600060C000D
:1007C0000B0C000C060002123F0E12101004200643
:1007D0000410030400040500050B000B0C000000CE
:1007E000000000000000AB028E03000455051C074A
:1007F0000008AB0A001055150020AB2A00405555E3
:100800000080FFFF60484030242018100C080604C8
:10081000030201808386898C8F9295989B9EA1A468
:10082000A7AAADB0B3B6B8BBBEC1C3C6C8CBCDD006
:10083000D2D4D7D9DBDDDFE1E3E5E7E9EAECEEEF9F
:10084000F0F2F3F4F6F7F8F9F9FAFBFCFCFDFDFD24
:10085000FEFEFEFEFEFEFEFDFDFDFCFCFBFAF9F9D0
:10086000F8F7F6F4F3F2F0EFEEECEAE9E7E5E3E1AE
:10087000DFDDDBD9D7D4D2D0CDCBC8C6C3C1BEBB98
:10088000B8B6B3B0ADAAA7A4A19E9B9895928F8C41
:10089000898683807C797673706D6A6764615E5B3C
:1008A0005855524F4C494744413E3C393734322F1A
:1008B0002D2B28262422201E1C1A18161513111061
:1008C0000F0D0C0B090807060605040303020202BC
:1008D00001010101010101020202030304050606F0
:1008E0000708090B0C0D0F1011131516181A1C1EF2
:1008F00020222426282B2D2F323437393C3E4144E8
:1009000047494C4F5255585B5E6164676A6D70731E
:1009100076797C8080858A8F94999DA2A7ACB1B5A9
:10092000BABEC2C7CBCFD2D6DADDE0E3E6E9ECEE61
:10093000F1F3F5F6F8F9FBFCFCFDFEFEFEFEFEFD14
:10094000FDFCFBFAF9F8F6F4F3F1EFEDEAE8E6E383
:10095000E0DEDBD8D5D2CFCCC9C6C3C0BDB9B6B3F3
:10096000B0ADAAA7A4A19F9C999794928F8D8B89D3
:1009700087858382807F7D7C7B7A797878777776AC
:10098000767676767676767777787879797A7B7BED
:100990007C7D7E7F80808182838484858686878734
:1009A00088888989898989898989888887878685C6
:1009B000848382807F7D7C7A78767472706D6B68B8
:1009C0006663605E5B5855524F4C4946423F3C3926
:1009D0003633302D2A2724211F1C19171512100E0B
:1009E0000C0B0907060504030202010101010102C3
:1009F0000303040607090A0C0E111316191C1F2203
:100A000025292D3034383D41454A4E53585D6266A4
:100A10006B70757A8080878F969EA5ACB4BAC1C77B
:100A2000CDD3D9DEE3E7EBEFF2F5F8FAFBFDFEFEFE
:100A3000FEFEFDFCFAF9F7F4F2EFECE8E5E1DDD9B2
:100A4000D5D1CDC9C6C2BEBAB7B3B0ADAAA8A5A309
:100A5000A2A09F9E9E9E9E9E9FA0A2A3A5A8AAAD77
:100A6000B0B3B7BABEC2C6C9CDD1D5D9DDE1E5E8CC
:100A7000ECEFF2F4F7F9FAFCFDFEFEFEFEFDFBFAE8
:100A8000F8F5F2EFEBE7E3DED9D3CDC7C1BAB4ACEA
:100A9000A59E968F8780787069615A534B453E3882
:100AA000322C26211C1814100D0A0705040201011E
:100AB000010102030506080B0D1013171A1E22264A
:100AC0002A2E3236393D4145484C4F5255575A5CD3
:100AD0005D5F606161616161605F5D5C5A57555245
:100AE0004F4C4845413D3936322E2A26221E1A17D0
:100AF00013100D0B08060503020101010102040594
:100B0000070A0D1014181C21262C32383E454B5371
:100B10005A6169707880808890989FA7ADB4B9BEFB
:100B2000C3C6C9CBCCCCCCCBC9C7C4C0BCB8B3AE90
:100B3000A9A4A09B97938F8C8A88878787888A8DA2
:100B40009094999EA4AAB0B7BEC5CCD3D9E0E5EBEA
:100B5000F0F4F7FAFCFEFEFEFCFAF7F4F0EBE5E049
:100B6000D9D3CCC5BEB7B0AAA49E9994908D8A88DB
:100B7000878787888A8C8F93979BA0A4A9AEB3B8E8
:100B8000BCC0C4C7C9CBCCCCCCCBC9C6C3BEB9B41E
:100B9000ADA79F98908880776F676058524B464109
:100BA0003C3936343333333436383B3F43474C518A
:100BB000565B5F64686C7073757778787877757258
:100BC0006F6B66615B554F48413A332C261F1A14F0
:100BD0000F0B0805030101010305080B0F141A1F71
:100BE000262C333A41484F555B61666B6F727577BF
:100BF000787878777573706C68645F5B56514C4792
:100C0000433F3B3836343333333436393C41464B3B
:100C1000525860676F7780010101010102030305EB
:100C200006080A0D1013171B20252B31383E464DA0
:100C3000555D666E778089919AA3ACB4BCC4CCD361
:100C4000DAE0E6EBEFF3F7FAFCFDFEFEFDFCFAF866
:100C5000F4F1ECE7E2DCD5CEC7BFB8B0A79F968E23
:100C6000857D746C645C544C453E37312B25201BCC
:100C700017130F0C09060402010101010101010112
:100C80000101010101010101010101010101010154
:100C90000101010101010101010101010101010243
:100CA00002020203030304040505060606070707FC
:100CB000070606050403020101010101010101010A
:100CC0000101010101010101010101010101010114
:100CD0000101010101010101010101010101010104
:100CE00001010101010101010101010101010101F4
:100CF00001010101010101010101010101010101E4
:100D000001010101010101010101010101010101D3
:100D100001010101010101010101010102030507B6
:100D2000090D11161B2229313A434D58636E7A86FC
:100D3000919DA9B4BFC9D3DCE4EBF1F6F9FCFEFE4A
:100D4000FDFBF8F4EFEAE3DCD4CCC3BBB2A9A19974
:100D5000928B847F7A777473727374777A7F848BC3
:100D60009299A1A9B2BBC3CCD4DCE3EAEFF4F8FBBF
:100D7000FDFEFEFCF9F6F1EBE4DCD3C9BFB4A99D9E
:100D800091867A6E63584D433A3129221B16110D14
:100D9000090705030201010101010101010101012E
:100DA0000101010101010101010101010101010133
:100DB0000101010101010101010101010101010123
:100DC0000101010101010101010101010101010113
:100DD0000101010101010101010101010101010103
:100DE00001010101010101010101010101010101F3
:100DF00001010101010101010101010101010101E3
:100E000001010101010101010101010101010101D2
:100E1000010101010101010101403D3A3734312E48
:100E20002B2825221F1C191613100D0A0704010276
:100E300005080B0E1114171A1D202326292C2F32FA
:100E400035383B3E4144474A4D505356595C5F62EA
:100E500065686B6E7174777A7D808285888B8E91E0
:100E600094979A9DA0A3A6A9ACAFB2B5B8BBBEC1DA
:100E7000C4C7CACDD0D3D6D9DCDFE2E5E8EBEEF1CA
:100E8000F4F7FAFDFEFBF8F5F2EFECE9E6E3E0DD5E
:100E9000DAD7D4D1CECBC8C5C2BFC2C5C8CBCED19C
:100EA000D4D7DADDE0E3E6E9ECEFF2F5F8FBFEFD9E
:100EB000FAF7F4F1EEEBE8E5E2DFDCD9D6D3D0CDFA
:100EC000CAC7C4C1BEBBB8B5B2AFACA9A6A3A09DEA
:100ED0009A9794918E8B888582807D7A7774716ED3
:100EE0006B6865625F5C595653504D4A4744413EBA
:100EF0003B3835322F2C292623201D1A1714110EAA
:100F00000B0805020104070A0D101316191C1F22F5
:100F100025282B2E3134373A3D40807C7874706C14
:100F20006864605C5854504C4844403C3834302C21
:100F30002925211D1915110D09050105090D111589
:100F4000191D2125292C3034383C4044484C50543C
:100F5000585C6064686C7074787C8083878B8F9336
:100F6000979B9FA3A7ABAFB3B7BBBFC3C7CBCFD331
:100F7000D6DADEE2E6EAEEF2F6FAFEFAF6F2EEEAA9
:100F8000E6E2DEDAD6D3CFCBC7C3BFBBB7B3AFABD6
:100F9000A7A39F9B97938F8B87838083878B8F9348
:100FA000979B9FA3A7ABAFB3B7BBBFC3C7CBCFD3F1
:100FB000D6DADEE2E6EAEEF2F6FAFEFAF6F2EEEA69
:100FC000E6E2DEDAD6D3CFCBC7C3BFBBB7B3AFAB96
:100FD000A7A39F9B97938F8B8783807C7874706C7B
:100FE0006864605C5854504C4844403C3834302C61
:100FF0002925211D1915110D09050105090D1115C9
:10100000191D2125292C3034383C4044484C50547B
:10101000585C6064686C7074787C80010102020323
:1010200003030404050506060607070809090A0A5A
:101030000B0B0C0C0D0E0E0F1010111213131415B8
:1010400016171718191A1B1C1D1E1F2021222324D6
:10105000252628292A2B2D2E2F3132343537383AA0
:101060003B3D3F40424446484A4C4E5052545658ED
:101070005A5D5F626467696C6F7174777A7D808393
:10108000878A8D9194989B9FA3A7ABAFB3B7BCC041
:10109000C5C9CED3D8DDE2E8EDF3F8FEF8F3EDE80C
:1010A000E2DDD8D3CEC9C5C0BCB7B3AFABA7A39F51
:1010B0009B9894918D8A8783807D7A7774716F6C09
:1010C000696764625F5D5A58565452504E4C4A48A4
:1010D000464442403F3D3B3A3837353432312F2E7B
:1010E0002D2B2A2928262524232221201F1E1D1CC2
:1010F0001B1A191817171615141313121110100FA5
:101100000E0E0D0C0C0B0B0A0A0909080707060640
:1011100006050504040303030202010101070C1183
:10112000161B2024292D3034383B3E4144474A4D7C
:101130004F525456585A5C5E606263656668696ACD
:101140006C6D6E6F7071727374757676777878796E
:101150007A7A7B7B7C7D7D7D7E7E7F7F80808081B7
:101160008182828283848485858687878889898A2B
:101170008B8C8D8E8F90919293959697999A9C9D3A
:101180009FA1A3A5A7A9ABADB0B2B5B8BBBEC1C462
:10119000C7CBCFD2D6DBDFE4E9EEF3F8FEF8F3EE0F
:1011A000E9E4DFDBD6D2CFCBC7C4C1BEBBB8B5B292
:1011B000B0ADABA9A7A5A3A19F9D9C9A9997969521
:1011C000939291908F8E8D8C8B8A89898887878660
:1011D000858584848382828281818080807F7F7EF6
:1011E0007E7D7D7D7C7B7B7A7A7978787776767563
:1011F00074737271706F6E6D6C6A69686665636234
:10120000605E5C5A585654524F4D4A4744413E3BEB
:101210003834302D2924201B16110C0701F1E5D993
:10122000CDC2B8AEA49B938A827B746D66605A541B
:101230004F4A45403C3733302C292623201D1B18AC
:10124000161412100E0D0B0A0908070605040403F4
:101250000302020101010101010101010202020375
:1012600003040405050606070809090A0B0C0D0D01
:101270000E0F1011121314151617191A1B1C1D1E10
:101280001F21222324252728292A2C2D2E303132D4
:1012900033353637393A3B3D3E4041424445464876
:1012A000494B4C4D4F505253545657595A5C5D5E02
:1012B000606163646667686A6B6D6E707173747584
:1012C00077787A7B7D7E808182848587888A8B8D02
:1012D0008E909193949597989A9B9D9EA0A1A3A47C
:1012E000A6A7A9AAACADAEB0B1B3B4B6B7B9BABCF3
:1012F000BDBFC0C2C3C5C6C7C9CACCCDCFD0D2D36B
:10130000D5D6D8D9DBDCDEDFE1E2E3E5E6E8E9EBE0
:10131000ECEEEFF1F2F4F5F7F8FAFBFDFEF10B1449
:101320001D262E363E454D535A60666C72777D827F
:10133000868B9094989CA0A3A7AAAEB1B4B7BABC70
:10134000BFC1C4C6C8CACCCED0D2D4D5D7D9DADCB6
:10135000DDDEE0E1E2E3E4E5E6E7E8E9EAEBECEC38
:10136000EDEEEFEFF0F0F1F2F2F3F3F4F4F5F5F562
:10137000F6F6F7F7F7F8F8F8F8F9F9F9F9FAFAFAEA
:10138000FAFBFBFBFBFBFCFCFCFCFCFCFCFDFDFDA1
:10139000FDFDFDFDFDFDFDFEFEFEFEFEFEFEF4EB91
:1013A000E2D9D1C9C1BAB2ACA59F99938D88827D8B
:1013B00079746F6B67635F5C5855514E4B4845437A
:1013C000403E3B39373533312F2D2B2A2826252314
:1013D00022211F1E1D1C1B1A191817161514131372
:1013E000121110100F0F0E0D0D0C0C0B0B0A0A0A28
:1013F0000909080808070707070606060605050580
:1014000005040404040403030303030303020202A8
:1014100002020202020202010101010101010BFEAE
:10142000F8ECDCC7B0977D644D3725160B0401023C
:10143000060D1723313F4E5C6A76818A9196999901
:101440009895918B857E78716B65605D5A58585977
:101450005A5D6064686D72767B7F8285888A8B8C2A
:101460008C8B8B8A88878584838181808080808132
:101470008283848688898B8D8F909293949596979A
:101480009798989898989899999999999A9A9B9BCE
:101490009C9D9E9FA0A1A2A3A4A5A6A7A7A8A9A919
:1014A000AAABABACACADADAEAEAFAFB0B0B1B2B25B
:1014B000B3B4B5B5B6B7B8B8B9BABBBBBCBDBDBEA1
:1014C000BFBFC0C1C1C2C3C3C4C4C5C6C6C7C8C8E4
:1014D000C9CACACBCCCCCDCECECFD0D1D1D2D3D32A
:1014E000D4D5D5D6D7D7D8D9D9DADADBDCDCDDDE6E
:1014F000DEDFE0E1E1E2E3E3E4E5E5E6E7E7E8E9B2
:10150000E9EAEBEBECEDEDEEEFEFF0F1F1F2F3F3F6
:10151000F4F5F5F6F7F7F8F9F9FAFBFBFCFDFDFE3B
:101520004348515D6C7D8FA2B4C5D5E2EDF6FBFE5C
:10153000FEFBF7F0E8DFD5CBC1B8B0A9A39E9B9A1C
:101540009A9B9EA1A6ABB0B5BABFC4C8CBCDCFCF36
:10155000CFCFCDCCC9C7C4C1BEBCB9B7B5B4B3B386
:10156000B3B3B4B5B6B8B9BBBCBEBFC0C1C1C2C2CB
:10157000C2C2C2C1C0C0BFBEBDBCBCBBBBBABABA8E
:10158000BABABABBBBBBBCBCBDBDBDBEBEBEBEBE97
:10159000BEBEBEBEBEBEBDBDBDBDBDBCBCBCBCBC7A
:1015A000BCB7AEA29382705D4B3A2A1D12090401AA
:1015B0000104080F17202A343E474F565C616465CA
:1015C0006564615E59544F4A45403B373432303090
:1015D0003030323336383B3E414346484A4B4C4C20
:1015E0004C4C4B4A494746444341403F3E3E3D3DBB
:1015F0003D3D3D3E3F3F40414243434444454545D8
:1016000045454544444443434242424141414141AE
:1016100041414141414142424242424343434343AB
:101620004301010101010101010101010101010168
:1016300001010101010101555555555555555555A6
:10164000555555555555555555555555555555554A
:10165000555555555555555555555555555555553A
:1016600055AAAAAAAAAAAAAAAAAAAAAAAAAAAAAA2F
:10167000AAAAAAAAAAAAAAAAAAAAAAAAAAAAAAAACA
:10168000AAAAAAAAAAAAAAAAAAAAAAAAFEFEFEFE6A
:10169000FEFEFEFEFEFEFEFEFEFEFEFEFEFEFEFE6A
:1016A000FEFEFEFEFEFEFEFEFEFEFEFEFEFEFEFE5A
:1016B000FEFEFEFEFEFEFEAAAAAAAAAAAAAAAAAA3E
:1016C000AAAAAAAAAAAAAAAAAAAAAAAAAAAAAAAA7A
:1016D000AAAAAAAAAAAAAAAAAAAAAAAAAAAAAAAA6A
:1016E000AAAA555555555555555555555555555500
:1016F000555555555555555555555555555555559A
:1017000055555555555555555555555501010101D9
:1017100001010101010101010101010101010101B9
:1017200001010101010101121212121212121223FF
:1017300023232323232323233434343434343434F1
:1017400044444444444444444455555555555555E2
:1017500055666666666666666666777777777777D4
:1017600077778888888888888888889999999999C6
:1017700099999999AAAAAAAAAAAAAAAABBBBBBBBC9
:10178000BBBBBBBBBBCBCBCBCBCBCBCBCBDCDCDCC6
:10179000DCDCDCDCDCDCEDEDEDEDEDEDEDEDFEFEBD
:1017A000FEFEFEFEFEFEFEEDEDEDEDEDEDEDEDDC03
:1017B000DCDCDCDCDCDCDCDCCBCBCBCBCBCBCBCBF1
:1017C000BBBBBBBBBBBBBBBBBBAAAAAAAAAAAAAAE0
:1017D000AA999999999999999999888888888888CE
:1017E00088888877777777777777776666666666AB
:1017F0006666666655555555555555554444444499
:10180000444444444434343434343434342323237B
:101810002323232323231212121212121212010164
:1018200001010102030302020E1E0C000004040E5B
:101830001F1F000000081502000000010101030342
:1018400000120C00191B0602040408001008040210
:101850000100000400040004000400671C4F1C3752
:101860001C1F1C071CEF1BD71BBF1BA71B8F1B7745
:101870001B5F1B471B2F1B171BFF1A2F1BE71ACFC2
:101880001AB71A9F1A871A6F1A571A3F1A271A0F70
:101890001AF719DF19C719AF199719471B6B194B9D
:1018A000192B190B19EB18CB18AB184600ACFF54C9
:1018B0000090FF54009EFF70009EFF3600BAFF7F2D
:1018C00000ACFF7F0090FF5400ACFF58009BFF6B03
:1018D00000A1FF5800A8FF3200DAFF4100A8FF6511
:1018E00000A1FF650081FF3F00E1FF13002C005DB8
:1018F00000FCFF2000CBFFA6FF81FF750020009AAF
:10190000FFCBFF6900CBFF5D00CBFFC1FFC1FF7FB5
:1019100000000081FF000000005800000000005897
:1019200000CEFFA8FF0000580000007F0081FF7F6D
:101930000081FF7F0081FF7F0081FF7F0081FF7FAB
:101940000081FF7F0081FF7F0081FF7F007F00819A
:10195000FF81FF7F007F0081FF81FF7F007F00818B
:10196000FF81FF7F007F0081FF81FF5555F5F5B5B1
:10197000B5D5D555AB55599595090949924952495F
:101980004919D56B6B5B5B7777B76D57576F6FDF17
:101990007611A9C16F01D10000FF7FFF7FF9FFEF32
:1019A000FFFEFFFF7FFF7FFF7FECFFFBFFFF7F005E
:1019B00000FF7FFF7FF9FFFF7FFEFFF4FFFF7FF651
:1019C000FFFF7FFF7FFF7F0000FF7FFF7FF9FFFFAB
:1019D0007FFEFFFF7F0200FF7FFF7FFBFFFF7F0097
:1019E00000F4FFFF7FF9FFFF7FFF7FFF7F0200FF13
:1019F0007FFF7FFBFFFF7F0000F4FFFF7FFF7FFF84
:101A00007FFEFFFF7F0200FF7FFF7FFBFFFF7F0066
:101A100000FF7F0500FF7F0A00FEFFFF7FFF7FF6CC
:101A2000FFFF7FFBFFFF7F0000FF7F0500FF7FEFD1
:101A3000FFFEFFFF7F0200F6FFFF7FFF7FF1FF0049
:101A400000FF7F0500F9FFFF7FFEFFFF7F0200FF21
:101A50007F0700FBFFFF7F0000FF7F0500FF7FFF88
:101A60007FFF7FF4FF0200FF7FECFFFBFFFF7F00A3
:101A700000FF7FFF7FFF7FEFFFFEFFFF7F0200F68B
:101A8000FFFF7FFBFFFF7F0000FF7F0500F9FFFFE7
:101A90007FFEFFFF7F0200FF7FFF7FFF7FF1FF00E0
:101AA00000F4FFFF7FF9FFFF7FFEFFFF7FFF7FFF57
:101AB0007FECFFFBFFFF7F0000FF7F0500F9FFFFCA
:101AC0007FFEFFFF7F0200FF7FECFFFBFFF1FF00C7
:101AD00000FF7F0500FF7FEFFFFEFFFF7F0200FF9B
:101AE0007F0700FBFF0C000000FF7F0500FF7FEF7A
:101AF000FFFEFFFF7F0200FF7FECFFFBFFFF7F0089
:101B000000FF7F0500F9FFFF7FFEFFFF7F0200F669
:101B1000FFFF7FFBFFFF7F0000FF7F05001400FF3A
:101B20007FFEFFFF7F0200FF7F07001600FF7F00A0
:101B300000FF7FEAFFF9FFFF7FFEFFFF7F0200FF4C
:101B40007FECFFFBFFFF7F0000FF7F0500FF7F0AA8
:101B500000FF7F0F000200FF7F0700FF7F0C0000E7
:101B600000FF7F0500FF7FEFFFFEFFFF7F0200FF0A
:101B70007F0700FF7FF1FF00000F00FF7FFF7FEF77
:101B8000FFFF7FF4FF02001100FF7FFF7FF1FF00E6
:101B900000F4FFFF7FFF7FEFFFFF7FF4FF0200F6FF
:101BA000FFFF7FFF7FF1FF00000F00FF7FFF7FEF50
:101BB000FFFF7FF4FFFF7FFF7FECFFFF7FF1FF0060
:101BC000000F00FF7FFF7FFF7FFEFFFF7F020011FE
:101BD00000FF7FFF7FFF7F0000F4FFFF7FFF7FEFAD
:101BE000FFFEFFFF7F0200F6FFFF7FFF7FF1FF0098
:101BF00000000000000000C0FF0000000000000026
:101C000000C0FF000000000000000000000000C055
:101C1000FF000000000000000000000000000000C5
:101C200000000000000000C0FF00000000000000F5
:101C30000000000000C0FF00000F000500F9FF0ACF
:101C400000FEFFF4FF02001100ECFFFBFF0C0000A0
:101C5000000F0005001400EFFFFEFFF4FF0200116B
:101C600000ECFFFBFFF1FF0400040004000400058A
:101C70000005000500060006000700070007000831
:101C8000000800090009000A000B000B000C000D01
:101C9000000E000E000F00100011001200140015BD
:101CA000001600170019001A001C001E001F00215A
:101CB000002300250028002A002D002F00320035C7
:101CC0000039003C004000430047004C00500055E4
:101CD000005A00600065006C007200790080008886
:101CE0000090009900A200AC00B600C100CC00D961
:101CF00000E600F300020111012201330145015900
:101D0000016E0184019B01B301CD01E901060225A9
:101D100002460269028E02B502DF020B0339036B31
:101D2000039F03D603110450049204D804220570C3
:101D300005C4051C067906DD064607B5072B08A86D
:101D4000082D09B9094E0AEC0A930B450C010DC880
:101D50000D9B0E7A0F671063116D128713B214EF8B
:101D6000153F17A3181C1AEF29E529DF29DA29D214
:101D700029C929BF29B629AF29A529A02997298EC4
:101D80002985297C2975296F2967295F29572952B7
:101D9000294B2941293A292E292A2926291B291488
:101DA000291B290B290429FD28F628EF28E828DD1E
:101DB00028D528D028C628BE28B628B128AD28A8FE
:101DC00028A2289E28992894288B2882287928746C
:101DD000286F286A2863285E2859285428482843F1
:101DE0002839282D282128172813280C28FE27F900
:101DF00027F427EF27EA27E627E127DC27D727D391
:101E000027D027CB27C727C027B727B227AD27A6BC
:101E1000279F279827912788277F2776276D276375
:101E2000275F275C27562752274C27462741273A0A
:101E30002734272C27262720271A2715270E27087F
:101E4000270227FA26F226EA26E126DC26D226CB2E
:101E500026C626C126BC26B426B026AC26A826A3B4
:101E600026B2279E26992694268F268A26852680A6
:101E7000267B26762671266C26672662265D2658E6
:101E800026D32753264B26472642263D263826337F
:101E9000262E26292624261F26192612260D260739
:101EA000260326FE25F925F425EF25EA25E525E07C
:101EB00025DB25D625D125CC25C725C225BE25B9AC
:101EC00025B425AF25AA25A525A0259B25962591D6
:101ED000258C25872582257E257A257625732570F4
:101EE000256B25662561255C25572552254E2549FC
:101EF000259125452540253B25362531252C2527AF
:101F0000252225E0251E25192514250E2508250244
:101F100025FC24F624F024EA24E324DC24D524CE72
:101F200024C724C024BE25B925B924B224AB24A4D7
:101F3000249E249B2596254C27972491248B248628
:101F40002481247C24782474246C2464245E245802
:101F500024502448244E2549254C27412440253B24
:101F6000243124312575296F295F29EA241E252A69
:101F700024232420241D241A24172412240A240292
:101F800024F923F023BE28A228E623D327E223DD69
:101F900023D823D423D0234726CD23CA23C623C244
:101FA00023BD23B823B323A923A2239C23992394DD
:101FB000238C23852397247F237B23772373236F0D
:101FC000236B23672363235F235B23572352234D14
:101FD00023482343233E23392334232A2320239CCD
:101FE000231B2314230A230023FB22F622F122ECD5
:101FF00022E722E222DD22D822D322CE22C922C425
:1020000022BF22BA22B522B022AB22A5229D22985D
:1020100022C22392228B227E2271226B2267225EB1
:102020002255224C2240223A2234222822212216F2
:10203000220822FB21F121EC21E621DD21D521CF4F
:1020400021CB21C521C021B421AD21A721A02198F8
:102050002190218A2184217E21762170216B215EAD
:102060002156214C2142213B21342127211B210FC4
:10207000210421FB20F020E820E020D920CD20C041
:1020800020B520AF20AA209F209A208D20756E6455
:102090006F20686973746F727900756E646F006C7D
:1020A0006F61642064656C6179006C646C790072A6
:1020B00061736961006A6F6765736877617269004F
:1020C0006B61757368696B20746F64690063686124
:1020D0006E6472616465657000622E746F6469007D
:1020E00062616972616769006D2E6B61756E730064
:1020F0006E6174626861697261760070612E206B36
:10210000616669006B616D6573687761726900670C
:10211000616E67657368776172690072616E676589
:1021200073687761726900706172616D6573687759
:10213000617269006D69276D616C006B68616D612A
:102140006A007261676573687265650062616765E0
:1021500073687265650064617262617269006268C9
:10216000696D70616C6173726565006B61666900B1
:1021700079616D616E0062696C6177616C00707588
:10218000727669007368726565006D6172776100CF
:1021900067756E616B726900626861697261760071
:1021A000312F3420656100312F34206500312F3408
:1021B000206562007079746861676F7265616E0096
:1021C0006A75737400657175616C005F5F5F004DC7
:1021D000554C54490050524F4752414D00534551C0
:1021E00055454E434500504154434800696E69745B
:1021F0000072616E646F6D697A650070742058209A
:1022000070726F6772616D00707420582073657111
:1022100075656E6365007074205820706174636822
:102220000073797374656D00706572666F726D61AD
:102230006E636500636C6F636B006D756C74690031
:102240006172706567676961746F7200656E76654B
:102250006C6F70650066696C746572203200666927
:102260006C7465722031006C666F006D6978657200
:10227000006F7363696C6C61746F722032006F73EE
:1022800063696C6C61746F722031006D6F6E6B6589
:10229000790068756D616E0070757368007368759C
:1022A00066666C65007377696E6700636E707300B5
:1022B000636E702E00636E2E7300636E2E2E0063AD
:1022C0002E707300632E702E00632E2E7300632E0B
:1022D0002E2E002E6E7073002E6E702E002E6E2E1F
:1022E00073002E6E2E2E002E2E7073002E2E702E4A
:1022F000002E2E2E73002E2E2E2E006C6B65790074
:102300006C61756E63686B6579007368727574686B
:1023100069585400616D62696B610066756C6C0090
:10232000636F6E74726F6C6C720073657175656E3D
:10233000636572007468727500312F393600312F71
:10234000343800312F333200312F323400312F3105
:102350003600312F313200312F3800312F36003125
:102360002F3400312F3300332F3800312F32003219
:102370002F3300332F3400312F3100322F310063DF
:10238000686F726400706C617965640075702664B2
:102390006F776E00646F776E0075700063686169B7
:1023A0006E006379636C696300327820756E6973BF
:1023B0006F6E00736F6C6F00706F6C79006D6F6E75
:1023C0006F006C61670071747A003C3D003E3D0017
:1023D0006D696E006D6178006174746E0070726F6B
:1023E00064006164640063686F72642073657100E7
:1023F000617270656767696F0073746570207365DB
:1024000071006C666F7E656E7600656E767E6C66BA
:102410006F0066726565006E74006870006270001F
:102420006C70006472756D2032006472756D2031BD
:10243000006672657175656E6379006372757368A5
:10244000007375626F7363007669627261746F0006
:102450006F736320312B32006F73632032006F7310
:1024600063203100706172616D20320070617261B1
:102470006D2031003D2034003D2038003D203136B4
:10248000003D203332003D203634003D20313238CB
:10249000003D203235360072616E646F6D007065EC
:1024A00064616C00776865656C32006D776865659E
:1024B0006C0062656E6465720061667474636800C6
:1024C0007365712E2032007365712E2031006D6F9F
:1024D000642E2034006D6F642E2033006D6F642EE7
:1024E0002032006D6F642E2031006C666F20340046
:1024F0006C666F2033006C666F2032006C666F2054
:102500003100656E76203300656E76203200656E90
:102510007620310064726D320064726D3100766332
:10252000610072656C650064656361006174746B61
:10253000007265736F006672657100637273680084
:1025400066757A7A0073756200786D6F64006D69E4
:102550007800766962720003312B32006F73633248
:10256000006F7363310070726D320070726D3100F4
:102570003D34003D38003D3136003D3332003D36BC
:1025800034003D313238003D3235360072616E64C0
:10259000006E6F69730067617465006E6F7465002B
:1025A0007064616C0077686C32006D77686C0062F3
:1025B000656E6400616674720076656C6F006172AE
:1025C0007000736571320073657131006D6F643432
:1025D000006D6F6433006D6F6432006D6F643100A5
:1025E0006C666F34006C666F33006C666F32006C23
:1025F000666F3100656E763300656E763200656E0B
:10260000763100706F70006D6574616C00626C6F84
:102610007700676C6974636800636C69636B007052
:10262000756C3200747269320073717532007075A6
:102630006C310074726931007371753100626974B4
:102640007300666F6C6400786F720072696E676DFC
:102650006F640073796E630073747032007374700A
:102660003100727371720072736177006C737172F2
:10267000006C7361770073706B320073706B3100A4
:1026800062617432006261743100677267320067A0
:102690007267310068726D350068726D3300687260
:1026A0006D320072616D7000732668007371720084
:1026B00074726900766F77656C203200637361779E
:1026C00000666D6662007170776D006F6C64736197
:1026D00077007761767175656E63650062656C6C15
:1026E000006D6574616C6C69630064726F6E652067
:1026F000320064726F6E65203100646967697461CD
:102700006C007761766573006F7267616E0065704B
:1027100069616E6F00736C61700076696265730049
:1027200063656C6C6F00626F7765640074616D70D7
:102730007572610063686F69720066656D616C65D2
:10274000006D616C6500766F77656C006E6F697304
:10275000650070776D00386269747300666D007093
:102760006164007A747269616E676C650068707A82
:1027700070756C73650062707A70756C736500704B
:102780006B7A70756C7365006C707A70756C7365BC
:102790000068707A7361770062707A736177007095
:1027A0006B7A736177006C707A736177007A73610A
:1027B000770073696E6500747269616E676C65009D
:1027C00073717561726500736177006E6F6E65007D
:1027D0006F6E006F6666006F63747600612F7371B1
:1027E0000073707264006F637400737263650061DC
:1027F0006D6E74006F6D6E69006C736571006C6155
:10280000756E63686B657920736571006363206D15
:10281000617000657874006F757470206D6F646509
:1028200000696E70742066696C74657200737761FC
:102830007020636F6C6F72730063617264206C65EB
:102840006473006C656473006175746F206261630A
:102850006B75700068656C7000736E6170006D69F7
:1028600064690067726F6F7665006C656E70006CEE
:10287000656E32006C656E310070617474206C6539
:102880006E0073657132206C656E00736571312066
:102890006C656E00677269640068696768006C6FD8
:1028A00077006C61746368006C7463680062706DBB
:1028B0000070617274006368616E6E656C007061B7
:1028C000747465726E00646972656374696F6E001A
:1028D00072616761006172702F73657100706F7251
:1028E00074616D656E746F006C656761746F007301
:1028F0007072656164006F637461766500766F6CF9
:10290000756D65006D6F6469662E006D6F64696634
:10291000696572006D6F64756C2E006D6F64756C07
:102920006174696F6E00696E3200696E31006465B2
:102930007374696E6174696F6E00736F757263652D
:1029400000766F696365206C666F006C666F2F653B
:1029500067007261746500747269676765720072FE
:10296000656C65617365007375737461696E00648D
:10297000656361790061747461636B006B65796292
:102980007E7663660076656C6F7E766366006C6645
:102990006F327E76636600656E76327E76636600A1
:1029A0006D6F6465007265736F6E616E6365006163
:1029B0006D6F756E74006F70657261746F72006315
:1029C000726F73736D6F642E00737562206F736323
:1029D0002E006F7363206D69780074756E650072E8
:1029E000616E676500706172616D65746572007714
:1029F000617665666F726D002F42414E4B2F002F3E
:102A0000484953544F52592F002F434C495042527A
:102A1000442F434C495042524400F000210200042C
:102A2000000001000101010000000000000000049E
:102A30000003010402050002030506090B0D0F0047
:102A40009B2B00010203040506070100F0019B2BEC
:102A5000080D0C0B090A0E0F00000F029B2B101122
:102A6000FF121617494A0201F0039B2B181E1F1D67
:102A7000191A1B1C1302F0049B2BFF2021FFFFFFE0
:102A8000FFFF03020F059B2B22232425262728293D
:102A90001403F0069B2B2A392F302B2C2D2E0704E4
:102AA000F0079B2B313233343536373808040F08A2
:102AB0006B2B00000000000000000604FF093B2B08
:102AC0003A3B3C3DFFFFFFFF0A05F00A9B2B3E3FD0
:102AD0004041FFFFFFFF09050F0B832BF0F1F2F3DD
:102AE000F4F5F6F70C06F00CE32B000000000000F4
:102AF00000000B060F0DCB2B0000000000000000B3
:102B00000D07F00E532B00000000000000000D0820
:102B1000F00F9B2B42434748444546F81008F010FD
:102B20009B2B4B4C4DFFFFFFFFF90F08F011B32B10
:102B300000000000000000001108F0E252D652BD73
:102B400052A14BE95237531D51255309517B534232
:102B50004D11519F52F650F750F950FB500751BD9F
:102B60005100000951145292521151E64FED4F009D
:102B70004FF9502E4E974E1D51554E0951F84F1298
:102B80005111517B4B6E4B9A4DF950B74DC54B1DB2
:102B90005100000951364CC74D11517B4B6E4B2CE7
:102BA0004BA14B844BC54B1D5100000951364C4283
:102BB0004D11515E48F6508148F9506E48075189D1
:102BC0004800000951794998481151FD47F650587D
:102BD00044F9502F4507519147000009513146F201
:102BE000469F477542F6508D42F950FB50DF421D1B
:102BF00051000009513643125111513C41F6503FEA
:102C000041F95089415E416E4100008F419941591F
:102C1000421151796573207C206E6F006B6E6F627C
:102C200020787C70617274207A7C00706572666FA7
:102C3000726D616E63652070616765206375737482
:102C40006F6D697A6174696F6E00534420636172BD
:102C50006420492F4F206572726F7200204120203E
:102C60007C206120207C203120207C205F20207C63
:102C7000207E20207C207E202020736176657C656C
:102C800078697400207C202020696E69747C7365EB
:102C90006E647C736176657C76657273696F6E7342
:102CA00020206D6F72657C6578697400707265664E
:102CB0007C7E696E697C4449414733202020202076
:102CC000202020202020202020206D6F72657C6530
:102CD000786974006D756C7469007573652063752F
:102CE0007272656E74206D756C74692061732064F6
:102CF000656661756C743F0028656D707479292074
:102D000020202020202000006578697400636C6B0F
:102D10003A667700202D2D00415544200069646CEF
:102D20007569206C6F6473617662616B737973731C
:102D300064746D69640052535420004D494420006E
:102D40004C4F57200052414D20006578697400694E
:102D50006E7374616C6C0075706772616465007588
:102D600070677261646500414C4C00706F72742032
:102D70003120646576696365203F2020004B5A61ED
:102D80006D62696B61002F564F494345242E4249BD
:102D90004E002F564F494345242E42494E002F41A5
:102DA0004D42494B412E42494E003C2D6261636BBE
:102DB000006D6F72652D3E0007206E6F74652007F1
:102DC00076656C6F636974792007737465707365D9
:102DD0007120310773746570736571203200636F01
:102DE00070797C737761707C7061737465202020CA
:102DF0002020203C3C207C203E3E207C6B65657082
:102E00007C657869740076657273696F6E00766FA1
:102E10006963656361726400822039393E39112427
:102E20001FBECFEFD0E1DEBFCDBF11E0A0E0B1E02B
:102E3000EEEAF7ED02C005900D92A034B107D9F784
:102E40002FE0A0E4B1E001C01D92A63DB207E1F77A
:102E500017E1CEE0D7E104C02197FE010E94956AF8
:102E6000CC30D107C9F713D60C948A6B0C940000B0
:102E70000F931F93CF93DF938C01EB01AB0170E0B5
:102E800060E00E942E6B009719F0EC01C01BD10B83
:102E9000CE01DF91CF911F910F910895EF92FF9294
:102EA0000F931F93CF93DF937C01162F042FC62F10
:102EB000D0E0BE01DDDF282F1817A9F02197CE0D35
:102EC000DF1D8E0D9F2D911DFE013C2F3E1B3117E6
:102ED00050F40197321728F4DC013C91308331978C
:102EE000F4CF0083FCCFCDB7DEB7E6E00C94E86A00
:102EF00040E2D4CF08951F93CF93DF93EC01162FB8
:102F000070E0B6DFFE01E80FF11D8E2F8C1B8117DC
:102F100018F480E28193F9CFDF91CF911F9108954A
:102F2000A4E0B0E0E6E9F7E10C94D06A8FB7F8943A
:102F3000209141013091420140914301509144015F
:102F400029833A834B835C838FBF69817A818B812C
:102F50009C812496E2E00C94EC6AFC0110820895B6
:102F6000FC018081882329F0CF0101960C943962FD
:102F7000089584E1089501960C942E620895FC0151
:102F80008081882311F0CF01F6CF0895B0E0A0E052
:102F9000ECECF7E10C94C96AEC018B01B42E7901D9
:102FA0008881882311F0CE01E6DF6E018FEFC81A09
:102FB000D80A4B2DB801C6010E94D25D813051F470
:102FC000E114F10439F0C70124D04B2DB801C6013A
:102FD0000E94D25D91E0811190E09883CDB7DEB779
:102FE000E9E00C94E56AFC018081882329F0CF0197
:102FF00001960C94FD5E089584E10895FC018081A2
:10300000882329F0CF0101960C945360089584E140
:103010000895CF92DF92EF92FF92CF93DF9300D08B
:1030200000D0CDB7DEB77C0165E471E080E00E949E
:10303000BE5D76DFDC01CB018E0D9F1DA11DB11D94
:103040006C017D016DDF6C157D058E059F0590F48B
:1030500080E00E946F67982F817090FDF3CF0F90F2
:103060000F900F900F90DF91CF91FF90EF90DF9036
:10307000CF90089581E0F3CF0C94FE630895CF9232
:10308000DF92FF920F931F93CF93DF93EC016C01BC
:103090008FEFC81AD80AF601F1906F01FF20B1F046
:1030A000FFE2FF12F8CFF60112928F01CE010E94CB
:1030B0008864F801F082982F977F69F3DF91CF91B0
:1030C0001F910F91FF90DF90CF90089580E0F6CF91
:1030D0000C949C650895982F882349F070E06F5FE9
:1030E0007F4F81E09617170619F080E0089581E080
:1030F00008950F931F93CF938C01C42FFC018081FF
:10310000EADF8823B1F0F80191812281291738F094
:10311000C91718F081E02C1738F480E005C081E071
:103120002C1710F4C917C8F38170CF911F910F911C
:10313000089580E0FACFEF92FF920F931F93CF9301
:10314000DF93082F162FCEEFD4E086E3E82E85E03C
:10315000F82E412F602FCE01CCDF882321F0612F84
:10316000C7010E94F02C249683EAE81A8EEFF80A31
:1031700085E0C631D80769F7CDB7DEB7E6E00C9435
:10318000E86AA7E0B0E0E7ECF8E10C94D06A2983A4
:103190003A834B835C836D837E838F838091020EA1
:1031A000882351F0CE0101960E94A932882321F094
:1031B000CE0101960E94CF3241E0BE016F5F7F4F8A
:1031C00080E00E946C352796E2E00C94EC6A9091C6
:1031D0001A0180911B0120911701E2E1233031F0A7
:1031E00030911801E32FEE0FE30FE20FF0E0EE0F46
:1031F000FF1FED57F04F918380830895B0E0A0E06A
:10320000E4E0F9E10C94CB6AD82EC62FD42F82E0EB
:10321000809333041092350410923404E091470FE8
:10322000F091480F309701F1642F8C2F0995882376
:10323000D9F023E0822F8295807F880F880F8F63DB
:1032400090917303E92FF0E0EE0FFF1FEB58FC4F56
:1032500080838FEF81839F5F977090937303CDB7C7
:10326000DEB7E7E00C94E76A8091F304811101C0B6
:1032700033D60EEF14E086E3E82E85E0F82E4C2FCF
:103280006D2DC80136DF882329F04D2F6C2FC70123
:103290000E941A2E0C5F1F4F83EAE81A8EEFF80A7D
:1032A00085E00631180759F7DACFCF93C82F809100
:1032B000F90D8350823028F440E070E060E08C2FFC
:1032C000E5D48C2F0E94BA37CF9108958091A7033F
:1032D0009091A803891B877091F08091C00085FFB1
:1032E0000DC08091A803E82FF0E0E755FC4F9081D6
:1032F0008F5F87708093A8039093C6000895809194
:10330000B1039091B203891B8F779091D0049817E5
:1033100010F48093D004882389F38091C00085FF46
:10332000EDCF8091B203E82FF0E0ED54FC4F908197
:103330008F5F8F778093B203DFCF9091CC0487E0CB
:103340008093CC048091C00087FF15C02091C600F7
:1033500080918603309185038150831B8F7159F0D2
:1033600080918503E82FF0E0E957FC4F20838F5FC1
:103370008F71809385039093CC0408951F920F92D0
:103380000FB60F9211242F933F934F935F936F9338
:103390007F938F939F93AF93BF93CF93EF93FF93BD
:1033A0008091C30481111FC081E08093C30478948D
:1033B00032D4C3DF8BDF0E94823E9091C204892FFA
:1033C000837041F48091400126E6280F2D37E8F400
:1033D0002093400181E0890F9F32A9F18093C204BC
:1033E000F8941092C304FF91EF91CF91BF91AF91E8
:1033F0009F918F917F916F915F914F913F912F910D
:103400000F900FBE0F901F90189587518093400129
:1034100020914101309142012F5F3F4F3093420193
:10342000209341012091410130914201232B91F6DB
:1034300020914301309144012F5F3F4F309344016D
:1034400020934301C7CF1092C204C091CC0486E000
:103450008093CC040E94FC69C093CC04C1CFF89443
:10346000B8D378941092C1001092C90014BE809114
:10347000600088618093600010926000389A80E05C
:103480000E9453398091C0008D7F8093C0001092BC
:10349000C50087E28093C4008091C100886080935A
:1034A000C1008091C10080618093C1008091810042
:1034B000887F826080938100809180008C7F816012
:1034C000809380008091B100887F81608093B100FB
:1034D0008091B0008C7F81608093B00080917000FB
:1034E0008160809370000E94973D80916F008160A1
:1034F00080936F000E942E410E94F4408091FD0D48
:10350000811102C00E94DE4080913D04811103C000
:1035100081E00E94533981E090913D04911180E057
:10352000B1D40C942F3108952C9A08952C988EBD07
:103530000DB407FEFDCFF8CF08959091CA0481E045
:1035400089278093CA048091800420918104821B82
:103550008F71A9F0913099F090918104E92FF0E0FA
:10356000EE0FFF1FEE57FB4F208181819F5F9F7100
:103570009093810495B1987F922B95B9D7DF809174
:103580003E0490913F04891B8F71B9F08091CA0469
:10359000811113C090913F04E92FF0E0EE0FFF1F5F
:1035A000E05CFB4F208181819F5F9F7190933F047E
:1035B00095B1987F922B95B9B9CF08951F920F922C
:1035C0000FB60F9211242F933F934F935F936F93F6
:1035D0007F938F939F93AF93BF93EF93FF938091CC
:1035E000FC049091FD0401969093FD048093FC04EB
:1035F0002091FA043091FB042F5F3F4F3093FB047E
:103600002093FA042091F6043091F704821793076F
:1036100048F08091F8048F5F8093F8041092FD04C5
:103620001092FC048ADFFF91EF91BF91AF919F91BF
:103630008F917F916F915F914F913F912F910F905B
:103640000FBE0F901F901895279A259A2698249AB6
:103650006BDF249A69DF8DB58E7F8DBD8DB581605E
:103660008DBD81E58CBD0895B0E0A0E0EAE3FBE10B
:103670000C94CB6AD82EC62F8091F80D81FD6FC0B7
:1036800012E05091CF045A3108F04CC08EEFE82E72
:1036900084E0F82ED0E000E06D2DF70180811BDD85
:1036A000882391F082E08093170110921D011092FF
:1036B0001C01D09318015091CF0450931A01C0936C
:1036C0001B01002309F101E0DF5FF4E0EF0EF11CC4
:1036D000D63011F7002309F43FC00E94194095B17C
:1036E000976095B92E9A80E58CBD81E08DBD809361
:1036F000780F8EEE92E08DDC2E98A6DF1092780F78
:10370000113069F111E0BDCF22E03D2F4091190148
:103710006C2F70911C0180911D0133DD8111D3CF7D
:1037200056DDD2CF83E08093170110921D011092D5
:103730001C01109218015A5150931A01C0931B0199
:1037400023E030E0409119016C2F70E080911D0161
:1037500018DD8111C2CF3BDD81E08093820FCDB7B0
:10376000DEB7E7E00C94E76AB0E0A0E0EAEBFBE14B
:103770000C94C96A8C01862FC62FCF70603F09F464
:103780007EC1673FB9F0D62FD07FF8014481B801E0
:103790006F5F7F4F9091F90D943089F477D2D03BD1
:1037A00009F463C0D0F4D03981F0D03A09F43BC0B9
:1037B000D038A1F1CDB7DEB7E9E00C94E56A9330DB
:1037C00071F7D03859F1D03949F7F8014281618158
:1037D0008C2F442331F112DDEDCFD03D09F4EDC043
:1037E00038F4D03C39F7F80161818C2F3DDFE2CF0E
:1037F000D03E09F4FFC0D03FE9F6CC3008F027C135
:10380000CA3008F040C1CC2309F439C1C83091F660
:1038100080911605883270F6AAD3CCCFF801618169
:103820008C2F89DCC7CFF801B280D1810EEF14E074
:1038300066E3E62E65E0F62E76E1C72E75E0D72E1C
:103840004D2F6C2FC80155DC882329F04B2D6D2F8F
:10385000C7010E94C1260C5F1F4FF3EAEF1AFEEF6B
:10386000FF0AC016D10661F7A5CFF801D181E8E8BB
:10387000ED0FE83008F077C0F0E0EA56F4490C9418
:10388000956A0EEF14E056E3E52E55E0F52E6C2F09
:10389000F801808120DC882319F0C7010E94732879
:1038A0000C5F1F4FF3EAEF1AFEEFFF0A25E0063127
:1038B000120769F77FCF0EEF14E046E3E42E45E0F0
:1038C000F42E6C2FF801808106DC882319F0C701E3
:1038D0000E94A6240C5F1F4FF3EAEF1AFEEFFF0AC7
:1038E00025E00631120769F765CF0EEF14E036E3E5
:1038F000E32E35E0F32E6C2FF8018081ECDB88237A
:1039000019F0C7010E94BB290C5F1F4FF3EAEF1AA1
:10391000FEEFFF0A25E00631120769F74BCF0EEFE5
:1039200014E06C2FF8018081D6DB882321F081E040
:103930008C0FF80180830C5F1F4FF5E006311F07E5
:1039400081F738CF0EEF14E06C2FF8018081C3DBD4
:10395000882311F0F80110820C5F1F4FF5E006314B
:103960001F0791F727CFF801D280D11103C0D09261
:10397000CF0420CF84E0809333041092350410925A
:1039800034040EEF14E026E3E22E25E0F22E6C2F35
:10399000F8018081A0DB882329F04D2D6D2FC70110
:1039A0000E94472D0C5F1F4FF3EAEF1AFEEFFF0A4C
:1039B00025E00631120759F7FDCEF801D1810EEF4F
:1039C00014E096E3E92E95E0F92E6C2FF801808142
:1039D00082DB882321F06D2FC7010E94BC260C5F7B
:1039E0001F4FF3EAEF1AFEEFFF0A25E00631120738
:1039F00061F7E0CEF801C280F0E8CF9EC00111244B
:103A0000F801C180C80ED92ED11C83E08093330405
:103A100010923504109234040EEF14E086E3E82E81
:103A200085E0F82E6C2FF801808155DB882321F08A
:103A3000B601C7010E94B3260C5F1F4FF3EAEF1ACD
:103A4000FEEFFF0A25E00631120761F7B3CECC3056
:103A5000E1F0CF3009F0AECE86E395E095D783E96B
:103A600096E092D780EF97E08FD78DE499E08CD7DE
:103A70008AEA9AE089D787E09CE086D79BCEF80156
:103A8000818113DC97CE28D295CE50D293CEE7DC3D
:103A900061E081E10E94F4398091740380937303A3
:103AA0008091850390918603891B8F7109F48DC0E5
:103AB00080918603E82FF0E0E957FC4F60818F5F2B
:103AC0008F71809386038091F90D81110BC08091D5
:103AD000B103E82FF0E0ED54FC4F60838F5F8F77E8
:103AE0008093B103683F20F084EC94E03DDED8CFB2
:103AF00067FF60C0862F807F1092C80491E090938A
:103B0000C904803B09F442C050F4803A09F43EC035
:103B1000862F807E8038D1F16093C4041AC0803E25
:103B2000A9F1803F71F1673F09F03CC08091C40466
:103B3000803F69F487EFB9DB8091D10D843081F546
:103B40008CE2809333041092350410923404109266
:103B5000C4049091C8048091C904981708F4A0CFB8
:103B60006091C40484EC94E0FFDD1092C80480915D
:103B7000C404813F08F494CF1092C9041092C40485
:103B80008FCF862F8F708150823020F482E0809317
:103B9000C904C9CF862F8C7031F21092C904C3CFEB
:103BA00084E2CFCF603F09F0B7CF6093C40480EFC9
:103BB0007CDBCFCFE091C80481E08E0F8093C804F6
:103BC000F0E0EC53FB4F6183C4CF51D20E94AF3B76
:103BD00067CF84B78093CD048DB79EB74097E6ED4D
:103BE000FFE0E817F90718F425EA2193FACF0895C2
:103BF0008091CD0408952FB7F8948DB79EB72FBF4D
:103C00002FE0863D920721F018F0865D9F400895D1
:103C100090E080E008958DB79EB720910301309128
:103C200004018217930740F49093040180930301E9
:103C30008091CC048093CB040895DDDF8A52904FAD
:103C4000E6EDFFE0E817F90728F42081253A11F4A2
:103C50003196F8CFCF01865D9F4008959091A703DC
:103C6000E92FF0E0E755FC4F80839F5F97709093BA
:103C7000A70308959091B103E92FF0E0ED54FC4FB4
:103C800080839F5F9F779093B10308951F93CF9395
:103C9000DF93EB01142FEEDF112331F08881EADF8F
:103CA000113011F08981E6DFDF91CF911F910895E6
:103CB000CF93DF93D62FC42FDDDF8D2FDBDF8C2F4B
:103CC000D9DFDF91CF9108959091B2032091B10394
:103CD0009150921B9F77C1F3CDCF0895382FEEEF0F
:103CE000F4E020E08FEF321729F09381982393833B
:103CF000909589232F5F34962630A9F708950F9366
:103D00001F93CF93DF930EEF14E0C6E3D5E0F801E5
:103D10006381CE010E94D6280C5F1F4FC35ADE4F2D
:103D2000FDE0C436DF0799F7DF91CF911F910F9126
:103D3000089586E395E032D783E996E02FD780EFA8
:103D400097E02CD78DE499E029D78AEA9AE026D724
:103D500087E09CE023C70895A6E0B0E0E2EBFEE137
:103D60000C94C66A2091160530E0C901880F991F8E
:103D7000092E000CAA0BBB0BAC01BD0144525440F0
:103D80006A4F7F4F49835A836B837C83220F331F93
:103D9000220F331F032E000C440B550B69817A81CF
:103DA0008B819C810E94796A790150911705652F5A
:103DB00070E0660F771F6156774E7E836D8380902B
:103DC0001805912CB12CA12CF2EDCF2EF4E0DF2EB2
:103DD00010E000E08BE598E1ABE5B8E1892B49F014
:103DE000ED81FE8185919491FC01E00FF11FA59179
:103DF000B49197010E949B6AA50194010E94156AE3
:103E000069837A838B839C838B819C818E0D9F1D1C
:103E1000F601819391936F010E5F1F4F00321105E0
:103E2000C9F68091D2049091D3049093F7048093C3
:103E3000F6042696ECE00C94E26A8EDF8FEF4EDFFC
:103E40005EDF81E08093D10408951F93CF93DF93C9
:103E5000182F48E350E06CE770E08EEF94E00E948A
:103E6000046BC6E3D5E0612FCE010E949029C35AAE
:103E7000DE4F8DE0C436D807B1F7DFDFDF91CF9199
:103E80001F910895CF93C82F86E395E00E94622882
:103E900083E996E00E94622880EF97E00E94622802
:103EA0008DE499E00E9462288AEA9AE00E946228E2
:103EB00087E09CE00E946228CC2341F080E0C5DFCF
:103EC0000E9471311092F304CF9108950E94C6317F
:103ED0008823A1F3B2DFF6CF8091F90D813011F480
:103EE0008AEFBCDE1092F5041092F4041092F204F2
:103EF00086E395E053D683E996E050D680EF97E0CD
:103F00004DD68DE499E04AD68AEA9AE047D687E012
:103F10009CE044D68091D2049091D3049093F7040E
:103F20008093F60481E08093F30408958091F90D65
:103F3000813011F48CEF92DE86E395E00E94202A16
:103F400083E996E00E94202A80EF97E00E94202AD1
:103F50008DE499E00E94202A8AEA9AE00E94202AB1
:103F600087E09CE00E94202A1092F3040895EF92CB
:103F7000FF921F93CF93DF938091F50491E0980F08
:103F8000853009F44CC09093F5048091F3048823A4
:103F900009F43FC0EDEAF5E0C6E3D5E02081DF019A
:103FA000A052BF4F8C91082E000C990B28171906B0
:103FB00009F450C0BEDE8091F90D813011F488EF14
:103FC0004DDE84E6E82E8DE0F82E11E0CE010E9451
:103FD0004E30FE01E451FF4F8081811110E0C35A41
:103FE000DE4FEC16FD0691F780911605883288F0B9
:103FF000209119051123B1F18091F2048F5F809314
:10400000F20438E1239F900111248217130609F06E
:1040100060F5DF91CF911F91FF90EF90089510927E
:10402000F5048091F40491E0980F8F3081F0909323
:10403000F404E091F404F0E0EE0FFF1FEE52FB4FAA
:10404000808191819093F7048093F6049ECF109223
:10405000F404EFCFE35AFE4F8DE0EB3DF80709F093
:104060009DCFA9CF1092F204D4CF60DFD2CFCF93EF
:10407000DF938091FA049091FB0488329105C0F09F
:104080002091F9042F5F2093F90488979093FB0403
:104090008093FA04C6E3D5E06091F9046170CE0123
:1040A00092D4C35ADE4F8DE0C436D807A9F7E1CFCA
:1040B0008FB7F894C091F8041092F8048FBF8091E4
:1040C0001605883220F0C15010F051DFFCCFDF918F
:1040D000CF910895E82FF0E0E250FB4F90819617C2
:1040E00081F060839091D10492609093D1048831E3
:1040F00028F48370833029F4A0CE08958B3108F41E
:104100002BCE089586E395E0FC01E059FF4F24E5AE
:10411000DF011D922A95E9F7835A9E4FBDE0843650
:104120009B0791F70895CF93C62F9A01009741F40A
:10413000FA0180E38193C150C1111082CF9108959B
:1041400097FF08C04DE2F90141939F01C15091953D
:104150008195910940E0E42FF0E04F5FEC59F24F78
:104160006AE070E00E94446A8083CB01009799F76F
:10417000842F522F932F882369F08150E52FF92F38
:10418000A82FB0E0AC59B24F9C91905D91935E2FF7
:104190009F2FF1CFF901E40FF11DC41BCDCFFC011E
:1041A000CB01EE0FFF1FE959F24E6591749150E07B
:1041B0000C941F6B0895FC01862F9281992381F046
:1041C000238164816F5F621B880F382F639F812D6D
:1041D0001124820F943121F48F3E08F080EF8E7FFE
:1041E00008951F93CF93DF93EC01162F642FE3DF25
:1041F0009A819330F1F4612F110F770B681B7109CD
:1042000087FD73952C818B81281B30E085E03595E7
:1042100027958A95E1F777FF03C07195619571093C
:1042200081E0261737070CF480E0DF91CF911F91D2
:104230000895212F281B330BB901E4CFFC018381A2
:104240009281933031F4681754F08481861734F4E6
:104250000895681720F08481681708F4862F089560
:10426000FC01862F922F042E000C550B23813281E6
:10427000333021F5460F511D67FD5A95992381F082
:104280008481682F082E000C770B6417750764F182
:10429000022E000C330B421753077CF0842F089535
:1042A000022E000C330B421753073CF02481022EE0
:1042B000000C330B241735078CF70895460F511D5A
:1042C000992349F084818417150674F02417150684
:1042D00009F09CF7E3CF2417150609F074F79481D1
:1042E0009417150654F3DACF822FE7CFFC017481BF
:1042F000838161E0670FE62FE81B40910101509137
:1043000002019A0121703327319521953109222725
:10431000347B569547952427352730930201209307
:104320000101932F681304C0781749F0832F089573
:104330009E1720F0282F261B920FFACF890F089581
:10434000DB0190E08C3018F09F5F8C50FBCF880F22
:10435000E82FF0E0EF52F94FE491EC938F5FE82FF4
:10436000F0E0EF52F94FE4911196EC931197E92F99
:10437000F0E0EB53F94FE4911296EC9312971396F9
:104380001C920895B0E0A0E0E8ECF1E20C94C66A5B
:104390006C01C62F4A01D22FFC018281E82FF0E088
:1043A000EE0FFF1FE651F94FA590B4907501062F4F
:1043B00010E0823049F08A50823148F4E82FF0E072
:1043C000E256F4490C94956ACF5F0F5F1F4FA1141A
:1043D000B104D9F087E69DE1892B31F04D2FB4016E
:1043E000C7018C0F911DDBDE6D2FC4010E94781771
:1043F000CDB7DEB7ECE00C94E26AFAE06F9F800183
:104400001124E5CF6F3018F3CF50F601828183314C
:1044100059F3833019F40C2FCC0F110BDD2321F34A
:10442000A4016D2FC8017FDEDFCF263080F232ED90
:10443000E32EF12CCFCF263050F221EFE22EF12CDB
:10444000C9CF683220F691E4E92EF12CC0E0C2CF4A
:10445000B4018C2F75DFBBCF6111B9CF85E4E82E95
:10446000F12CB8CF1F93CF93DF93FC01162FD72FDA
:10447000C42F473098F48185928527E63DE1232BB0
:1044800021F04C2F612F7D2F8ADE6C2F812F9D2FE5
:104490000E947B17DF91CF911F91089583859485AA
:1044A000ECCFA4E0B0E0E7E5F2E20C94CA6A6C015C
:1044B000142F79016F3F71F080E7F901808384E761
:1044C000818380E282836F5C638384830550C901AA
:1044D00005967C0187E69DE1892B31F0402FB701DD
:1044E000F601858596855BDEF60187818F3FF1F0C9
:1044F00080E289831C82812F90E0AE014E5F5F4F86
:1045000062E0019610DE602F70E0C7010E9438174C
:10451000982FDE011196F701E80FF11D8D5F9017BE
:1045200028F42D919F5F21939813F9CF602FC70135
:104530000E947B172496E8E00C94E66AB0E0A0E0C5
:10454000E4EAF2E20C94CB6A182FD92FD62E7A0126
:10455000C22F422FB70186DF2FEF2C0FF701E20F9A
:10456000F11D8081803219F421500F5FF7CF2F5F4A
:1045700030E0F701E20FF31F80E280832F5F3F4FAF
:10458000A701420F531F202F6D2D812F9D2FFADE83
:10459000CDB7DEB7E7E00C94E76ACF93C82F87E08A
:1045A00091E0CE3FA1F0809106018C1771F08FE071
:1045B000C89FB00111246C547F4F4FE050E08BE650
:1045C0009DE00E94046BC09306018BE69DE0CF91B5
:1045D0000895E82F8091FF0D823059F4E23428F4D9
:1045E000F0E0EB5EF94F84910895E63640F08EEFEF
:1045F0000895E03720F4F0E0EB5AF94FF4CF8FEF55
:10460000089590E8980F903448F0813C08F08FEFBF
:10461000E82FF0E0EB5AFA4F849108958EEFF8CF2F
:104620000F93FC01962F622F202F36818181439FAB
:10463000800D112430813230B1F030F090E0333011
:10464000A1F08059904F13C04DE551E0949FF001C7
:10465000959FF00D1124462F682FCF018A5C9A4F49
:10466000CCD50F91089536DDFCCF8850924FFC01D8
:104670006083F7CFFC0196818181499F800D1124D1
:10468000208190E02230A1F028F02330A1F0805961
:10469000904F0BC04DE551E0649F9001659F300D38
:1046A00011242A5C3A4F820F931FFC0180810895E8
:1046B00082509B4FFACF8850924FF7CF2091010143
:1046C00030910201C90181709927919581959109D5
:1046D0008827947B3695279582279327909302010C
:1046E00080930101892F0895E62FF0E0EE0FFF1F60
:1046F000B096EF73E80FF92FF11D90898189692F2A
:104700006F77782F7F778078907808959C0185E087
:104710002633380709F186E02339380701F187E0AD
:10472000203F3807F9F089E02D343807F1F08AE0AE
:104730002A3A3807E9F027503C40E9F485E090E058
:10474000880F991F880F991FFC01E250FB4F808151
:10475000882391F08150089590E080E0F1CF81E0CE
:1047600090E0EECF82E090E0EBCF83E090E0E8CF06
:1047700084E090E0E5CF80E00895E82FF0E0E7588E
:10478000F04F108260E60C9428400895CF93DF9399
:10479000C62FD42F2091F90D213029F4B7DF4D2FEA
:1047A0006C2F806985DADF91CF910895CF93DF93E5
:1047B000C62FD42F2091F90D233029F4A7DF4D2FD8
:1047C0006C2F806975DADF91CF9108951F93CF9395
:1047D000DF93D62FC42F2091F90D223088F123309A
:1047E00029F46F3719F4443009F4C1E08FDF909158
:1047F000CE049F5F9093CE0420910501182F106B7B
:104800002D1302C0903280F04D2F441F4427441FC7
:1048100063E6812F4DDA4D2F4F7762E6812F48DA1C
:10482000D09305011092CE044C2F441F4427441FFF
:1048300066E0812F3DDA4C2F4F7766E2812F38DA20
:10484000DF91CF911F910895EF92FF921F93CF9325
:10485000DF93EC01FC01E65AFE4F81E0808310E01B
:104860007E018AECE80EF11CF7018081181750F4E4
:10487000FE01E10FF11DEC53FF4F80810E94584073
:104880001F5FEECF88EA91E60197F1F710E0F7019C
:104890008081181760F4FE01E10FF11DEC53FF4F0A
:1048A00040E7BE0180810E9497401F5FF0CFDF91FB
:1048B000CF911F91FF90EF9008959C01FC01E55866
:1048C000FF4FE081F0E0EC5FF74FE49127513F4F5D
:1048D000D901EC930895CF93DF93DC01EC01C05232
:1048E000DF4F9C01285E3F4F5D96EC915D97EF3066
:1048F00070F4F0E0EC5FF74FE491E88318962196AE
:104900000696A217B30781F7DF91CF910895EF5074
:10491000F0E0EE0FFF1FE959F34E45915491FC0171
:10492000E553FF4F51834083E9CF262F30E02F5FBF
:104930003F4F86539F4FFC0180818217130621F061
:104940001CF081E0860F089580E008951F93CF93B7
:10495000DF93EC01FC01E551FF4F108210E0FE01F6
:10496000E653FF4F8081181758F4FE01E10FF11D47
:10497000EC53FF4F68EF80810E9428401F5FEFCF0C
:10498000DF91CF911F9108950F931F93CF938C01C7
:10499000C0E0F801E653FF4F8081C81780F4F801AA
:1049A000EC0FF11DEC53FF4F8081E82FF0E0E7584A
:1049B000F04F108269EF0E942840CF5FEACFCF917D
:1049C0001F910F910895B0E0A0E0E9EEF4E20C949D
:1049D000C46A8C01862EFC01E951FF4F80819181D0
:1049E00001969183808358018AECA80EB11CF501D1
:1049F0008081882309F47BC06801E801C553DF4F3B
:104A00007801FDEDEF0EF11C912CF601848D2881CB
:104A100039814A815B81420F531F5B834A8391E056
:104A20004217530708F090E09C83652F823039F1DC
:104A300078F4752E770C7708811127C0440F452F25
:104A4000441F550B5195742E67FD1FC070941DC0F7
:104A5000752E8330D1F08450982F8D5E974FFC01D6
:104A6000E50FF11D442F85911590419DF001409572
:104A7000489FE00DF11D11248F2F782E06C042179C
:104A8000530710F41BDE8D837D80992011F0882060
:104A9000B9F0F7018681871589F0612CF5018081D5
:104AA000681660F4F801E60DF11DEC53FF4F472D39
:104AB000692D80810E948B406394F0CFF70176824C
:104AC000F601878D823041F48C81958D9F30A0F462
:104AD000F7018081882391F09394F8E0CF0ED11CE8
:104AE00026968FEFE81AF80AE3E09E128ECFCDB734
:104AF000DEB7EEE00C94E06A882371F3712CF501C7
:104B00008081781648F7F801E70DF11DEC53FF4F4F
:104B1000692D606880810E9428407394F0CFCF9304
:104B2000DF939C01DC01FC01E353FF4F90E080E048
:104B30005F964C915F97413049F442831182108215
:104B4000EC01C352DF4FC20FD31F18820196189693
:104B500036968330910561F7DF91CF910895CF9319
:104B6000DF939C01FC01EC5AFE4F80813296D90103
:104B7000AB5ABE4F813029F410821C92DF91CF9145
:104B80000895E901C451DF4F888181508C932758E3
:104B90003F4FD9018C9181508083F0CFCF93DF9329
:104BA000EC0143E050E070E060E0835B9E4F0E94C8
:104BB000446B43E050E070E060E0CE0183529F4FD1
:104BC0000E94446BFE01E651FF4FDE01A751BF4F2B
:104BD0008C918083EA59FF4F108231968FEF80834A
:104BE000319681E090E091838083EA5DF1098081D4
:104BF000813081F081E0FE01EC5AFE4F80833396D4
:104C0000DE01A958BF4F8C918083CE01A8DFDF91D0
:104C1000CF9108958FEFEFCFB0E0A0E0E2E1F6E2B0
:104C20000C94CB6AEC01FE01E451FF4FD080E457B5
:104C3000F1092081ED2CF12C8E010B5A1E4F2430EE
:104C400059F53CDDFE01EA5AFE4F982F9F70908384
:104C500090E024E0959587952A95E1F7D8018C930B
:104C6000C758DF4F9881292F30E08081482F082EC8
:104C7000000C550B421753071CF0891B8083F5CF9E
:104C8000F8018081282F082E000C330B2E153F05CC
:104C9000DCF18D198083F4CFFE01EC5AFE4F808148
:104CA000D8019C91980F492F092E000C550B4E15D9
:104CB0005F0534F11C92DE01AA5ABE4F9C91980FF9
:104CC0009C93492F092E000C550B8E0107581F4F3E
:104CD000D8013C913417150619F014F097FF14C051
:104CE0002230D9F481958083CE0139DFB1E0BD1542
:104CF00008F499CFF8018081823008F094CF04C085
:104D000097FD07C0F8019083CDB7DEB7E7E00C94BC
:104D1000E76A9FEF9D0D9C93CECFCE0120DFF4CFAD
:104D2000EF92FF920F931F93CF93DF938C01D62FB7
:104D3000F42EE22EC0E0F801E653FF4F8081C81741
:104D400068F4F801EC0FF11DEC53FF4F2E2D4F2DA1
:104D50006D2F80810E947A40CF5FEDCFCDB7DEB757
:104D6000E6E00C94E86A660F771F660F771F272F1F
:104D700040E160E4D5CF0895262F4FE060E4D0CF26
:104D800008950F931F93CF93DF938C01D42FFC01D1
:104D9000E158FF4FC081C13021F08DEF8C0F83307F
:104DA000B8F5C8018C5B9E4F0E94553FE82FD80193
:104DB000A85BBE4F8C91C43039F48695E81718F57E
:104DC000E00FF12FF11D17C0E817E8F4C330C1F769
:104DD000CE2FCC0FF801EC0FF11DEC53FF4F2D2F10
:104DE0004FE060E480810E947A406C2FC8019DDD15
:104DF000F801E80FF11DEC53FF4F2D2F4FE060E459
:104E000080810E947A40DF91CF911F910F91089588
:104E1000642FC801B1DFF7CF0F931F93CF93DF93B8
:104E2000FC0140A580E0442309F454C0C42FD0E025
:104E30008E010F5F1F4FD801AA0FBB1FA00FB11F1C
:104E4000AE0FBF1F5C919E01220F331FD901AC0F23
:104E5000BD1FAE0FBF1F11969C91961709F43FC05E
:104E6000842F452FE0CF90E00196DC01AA0FBB1FF5
:104E7000A80FB91FAE0FBF1F5C939081DF019996F9
:104E800080E09817B1F05D91541311C0A82FB0E0E5
:104E9000692F6150770BA617B7075CF4AE0FBF1FE1
:104EA0009A964C919A9799964C938F5FEFCF8F5F1C
:104EB000E8CFD801AA0FBB1FA00FB11FAE0FBF1FB5
:104EC0001C92C20FD31FCE0FDF1F8FEF89831A8270
:104ED00091509083DF91CF911F910F91089581118F
:104EE000C2CF50A7CACFFF920F931F93CF93DF93E8
:104EF000EC01162F042F90DF88818C3071F4FE01B5
:104F0000CE0184962681211101C0F4803396E817E2
:104F1000F907C1F76F2DCE017FDFFE0181E094819B
:104F20009F3F29F08F5F33968D30C9F780E0282F9F
:104F300030E0A9014F5F5F4FDA01AA0FBB1FA40F3A
:104F4000B51FAC0FBD1F98A59C93F901EE0FFF1F75
:104F5000E20FF31FEC0FFD1F1183028388A79881D6
:104F6000DE01999670E060E0062F691728F59B0135
:104F7000ED916F5F7F4F4E2F50E0FA01EE0FFF1F54
:104F8000E40FF51FEC0FFD1F4181141768F7FE01B8
:104F9000E90FF11D492F50A551A741503197041732
:104FA000D0F32C0F3D1FF90181A79F5F9883CDB7E8
:104FB000DEB7E5E00C94E96AFE01E90FF11DF4CFDC
:104FC000CF93DF93EC01188245E150E070E060E0A0
:104FD00004960E94446B47E050E070E060E0CE0130
:104FE0004B960E94446B198E8FEF89838C838F833D
:104FF0008A878D87888B8B8B8E8BDF91CF910895DD
:105000000F931F93CF93DF93EC018C0101581F4F37
:10501000F8019081892F8D7FAE014E5D5E4F811129
:105020000CC0CA01CDDFC55ADE4FF80180818883EC
:10503000DF91CF911F910F910895FE01E653FF4F2D
:1050400020819330E1F430E02F5F3F4F3695279574
:10505000FE01EC5BFE4F24834F5F5F4F5183408323
:105060009E01215D3E4F3383228381E0943009F419
:1050700080E081958583CF010E94413FD4CF953058
:1050800039F7220FE5CFCF93DF93EC01188244E28A
:1050900050E070E060E004960E94446B4CE050E009
:1050A00070E060E0CE018A960E94446B18A6CE01A3
:1050B00087962FEF29832396C817D907D1F7DF9159
:1050C000CF910895CF93DF93EC01FC01E551FF4FA1
:1050D000108284519F4FD7DFCE018E5D9E4F70DFCF
:1050E000DF91CF9108951F93CF93DF93EC01FC01E3
:1050F000E158FF4F80818D7FF9F4CE018E5D9E4F88
:105100005FDFCE0184519F4FBEDF10E0FE01E6530A
:10511000FF4F80811817B0F4FE01E10FF11DEC5331
:10512000FF4F8081E82FF0E0E758F04F108260E7F2
:105130000E9428401F5FEACFCE018C5B9E4F0E94E9
:10514000413FDFCFDF91CF911F910895EF92FF9202
:105150001F93CF93DF93EC01B0DBCE01BCDBFE01EC
:10516000E65AFE4F81E080837E0180E7E80EF11C65
:1051700010E0F70121917F01412F60E3CE01D0DDE6
:105180001F5F1730B1F7FE01E158FF4F9081E452E5
:10519000FF4F8081981721F0CE01A5DFCE0130DFCF
:1051A000DF91CF911F91FF90EF9008951F93CF93C0
:1051B000DF93EC01162F97DFDE01A653BF4F1C9241
:1051C00080E091E0212F292351F0EC9121E02E0F76
:1051D0002C93EC0FFD2FF11DEC53FF4F8083990FA3
:1051E0008F5F863079F7CE010BDFCE012DDBCE014C
:1051F000ADDFDF91CF911F910895B0E0A0E0E3E033
:10520000F9E20C94CB6AEC01162F042FFC01E60F97
:10521000F11DD08040837C0186EAE81A8EEFF80AFF
:10522000F701808181608083222331F0CE01CEDAC4
:10523000F701808182608083103768F4202F412F2E
:1052400060E2CE016DDD1851183130F1CDB7DEB717
:10525000E7E00C94E76A1737B0F4202F40E9410FDC
:1052600060E3CE015DDD183789F7FE01E858FF4F96
:1052700080818130A1F081E0FE01EC5AFE4F8083F5
:10528000CE016DDCE3CF1F3761F40D15F9F2CE01CD
:105290002ADFCE01B5DEDACFCE011DDBD7CF8FEF0F
:1052A000EBCF1B3701F7CE0108DBD0CFFF920F9376
:1052B0001F93CF93DF93082FF92ED62F142FC62FCD
:1052C0002D2F210F3327331FC217130674F48C2F91
:1052D00098D98F3F41F061D909D8482F20E06C2F31
:1052E000802F9F2D8ADFCF5FEBCFCDB7DEB7E5E014
:1052F0000C94E96ACF93DF93D82FC92F61110CC0AA
:1053000040E750E066E777E00E94046B8D2F9C2F0A
:105310009BDADF91CF91089540E760E0C7DFF6CFD9
:105320001F93CF93DF93EC01162FE4DF11110FC011
:1053300044E550E062E277E0CE0180599F4F0E9441
:10534000046BCE0103DFDF91CF911F91089544E5F7
:1053500060E7CE01ABDFF5CF611109C048E450E052
:105360006AE277E088589F4F0C94046B089548E4F4
:1053700068E79CCF0895CF92DF92EF92FF921F9340
:10538000CF93DF93EC01FC01E551FF4F1081111128
:1053900039C0EC56F10980818D7FD1F4CE018E5D4C
:1053A0009E4F0EDE7E018CEEE80EF11CC7016BDE17
:1053B000D12CFE01E653FF4F8081D81678F4FE0110
:1053C000ED0DF11DEC53FF4F8081D7D9D394F1CF70
:1053D000CE018C5B9E4F0E94373FE4CF6E01EFEA17
:1053E000CE1AEEEFDE0AF60160816F3F59F0E95DFB
:1053F000F1098081853071F040E0CE01C7D98FEF8F
:10540000F6018083DF91CF911F91FF90EF90DF90A5
:10541000CF900895F7018081181788F7E10FF11DEB
:10542000E1A58E2F90E0FC01EE0FFF1FE80FF91FA2
:10543000EE0DFF1D40E06181CE01A8D91F5FEACFCC
:10544000FC01E551FF4F108296CF0895FC018BE5DA
:1054500098E1892B79F0EE0FFF1FE55AF74E859101
:105460009491E62FF0E0EE0FFF1FE80FF91F8591F2
:10547000949108958BE598E108950F931F93CF932E
:10548000DF938C01862FF801EF58FF4F20813CE01D
:10549000230390011124260F311D2038310514F00B
:1054A0002FE730E037FD20E030E8239FE0011124B2
:1054B000F801EC58FF4F2081222349F06CE00E9454
:1054C000246A692F822F90E0C1DFC80FD91FF8012D
:1054D000EE58FF4F80819E01280F311D87FD3A95C0
:1054E000C901DF91CF911F910F9108958C589F4F63
:1054F000FC01208181E0222379F0862F6CE00E945C
:10550000246A692F822F90E0A1DF9C0181E02F3F68
:105510003F4711F480E0089508950F931F93CF93B0
:10552000DF93FC01418D80E0442309F454C0C42F73
:10553000D0E08E010F5F1F4FD801AA0FBB1FA00F35
:10554000B11FAE0FBF1F5C919E01220F331FD90107
:10555000AC0FBD1FAE0FBF1F11969C91961709F49B
:105560003FC0842F452FE0CF90E00196DC01AA0FC9
:10557000BB1FA80FB91FAE0FBF1F5C939081DF0147
:105580005A9680E09817B1F05D91541311C0A82F7E
:10559000B0E0692F6150770BA617B7075CF4AE0F28
:1055A000BF1F5B964C915B975A964C938F5FEFCFE2
:1055B0008F5FE8CFD801AA0FBB1FA00FB11FAE0F9E
:1055C000BF1F1C92C20FD31FCE0FDF1F8FEF898327
:1055D0001A8291509083DF91CF911F910F9108957E
:1055E0008111C2CF518FCACFB0E0A0E0EAEFFAE25A
:1055F0000C94C76AEC01162F042F78DF882309F476
:10560000A4C0402F612FCE01C1D86E012FE7C20E7A
:10561000D11CF60180818D7F09F0A0C07E01FEEDD6
:10562000EF1AFEEFFF0A612FC70177DFF7018081D4
:105630009E012A5D3E4F5901873079F4F901CE0170
:10564000855C9E4F2281211101C090803396E8171E
:10565000F907C1F7692DC70160DFF50181E090818D
:105660009F3F29F08F5F33968830C9F780E0282F5D
:1056700030E0A9014F5F5F4FDA01AA0FBB1FA40FF3
:10568000B51FAE0DBF1DF701918D9C93F901EE0F73
:10569000FF1FE20FF31FEE0DFF1D11830283F701C1
:1056A000818F9081DE01A45CBE4F50E040E0B42EBB
:1056B000491708F04FC09A01ED914F5F5F4F6E2F71
:1056C00070E0FB01EE0FFF1FE60FF71FEE0DFF1D51
:1056D0006181161760F7E92FF0E0E45CFE4FEC0FF4
:1056E000FD1F492FDF015E9150834150FD01B4162B
:1056F000C8F3F701E20FF31F828F81E0890FF701F2
:105700008083612FCE01B9DE5C01F7019080EE2429
:10571000E394E91408F0E12CF601F080FF2009F48D
:1057200061C02E2D402FB501FE01EC53FF4F80814B
:105730000E945B4031E0391508F08EC0FE01EB5845
:10574000FF4F8081882309F487C0CDB7DEB7EBE037
:105750000C94E36AF701E90FF11DCECF5E01FCEB7B
:10576000AF1AFEEFBF0A612FC5010E94693FF82EF4
:105770002FEF821305C0612FC5010E94A63FF82EAE
:10578000F6018081FE01E85BFE4F9081833009F0D5
:1057900045C0F916D0F6BF2CBB0C612FCE016DDED3
:1057A0006C01FE01EB0DF11DEC53FF4F20E0402F8B
:1057B000BC0180810E945B40FE01ED58FF4FE080FC
:1057C000EC0CFD2CF11C6B2DCE01AFD8FE01E80FC7
:1057D000F11DEC53FF4F20E0402FB70180810E9464
:1057E0005B403AC010E0FE01E653FF4F808118177E
:1057F00008F0A0CFB5016F0D711DFE01E10FF11D85
:10580000EC53FF4F2E2D402F80810E945B40FE0104
:10581000ED58FF4F8081F80E1F5FE5CF8530F9F41A
:105820009695F916A0F4612FCE0127DEFE01ED5802
:10583000FF4F2081BC01F29E600D711D1124FE01FD
:10584000EF0DF11DEC53FF4F20E0402FC7CF402F4D
:10585000612FCE010E94D623CE0161D976CFF916F1
:1058600008F073CFE0CFB0E0A0E0E9E3FCE20C94F5
:10587000C76AEC01162F6F3F09F49AC040E00E94FE
:10588000C6237E018FE7E80EF11CD7018C91882397
:1058900049F1823009F44DC0612FCE018C5B9E4FDF
:1058A0000E94F33FF7012081E753FF4F233009F0B7
:1058B00084C09081891708F07BC0182F110FFE015A
:1058C000E10FF11DEC53FF4F80810E94BD23612F3A
:1058D000CE012BD8C80FD11DCC53DF4F88810E9439
:1058E000BD2366C0FE01E653FF4FB0807E01FEED92
:1058F000EF1AFEEFFF0AD7015996EC918E2F90E038
:10590000FC01EE0FFF1FE80FF91FEE0DFF1DD18008
:10591000612FC70102DEF701008101110DC0CC53D8
:10592000DF4F0B1509F444C089910E94BD230F5F1E
:10593000F8CFBB24B394DACF1D113AC0E18D8E2F7E
:1059400090E0FC01EE0FFF1FE80FF91FEE0DFF1DA9
:105950006181CE0192DD8C016E01B4ECCB0ED11CC5
:10596000A12C912CBA14F1F0D7015996EC918E2FFD
:1059700090E0FC01EE0FFF1FE80FF91FEE0DFF1D79
:1059800042814F77B801690D711D21E0F6018191C7
:105990006F010E945B40FE01ED58FF4F8081980E21
:1059A000A394E0CFFE01EB58FF4F80818823A9F03C
:1059B000CDB7DEB7EBE00C94E36A9081253051F46B
:1059C0009695891708F486CF40E0612FCE010E949A
:1059D000D623EECF891760F77DCFCE01A0D8E8CFD0
:1059E000AF92BF92CF92DF92EF92FF921F93CF932D
:1059F000DF93EC01162F7ADD882321F17E018BEEF7
:105A0000E80EF11CF701808181112FC05E01F7E7DC
:105A1000AF0EB11CF5018081833038F56E01FCEECC
:105A2000CF0ED11C612FC601F7D9F50180818823E3
:105A300031F0813089F431968081853069F4612FAD
:105A4000CE0111DFDF91CF911F91FF90EF90DF909A
:105A5000CF90BF90AF900895F60180818111F2CF71
:105A6000F7011082CE0187DCEDCFFE01E051FF4F40
:105A7000CC5EDE4F8081811305C08181882311F0C7
:105A8000806881833396EC17FD07A1F7DBCFB0E088
:105A9000A0E0EDE4FDE20C94CB6AEC01062F142F9C
:105AA000663209F49AC068F5643009F466C008F5F6
:105AB000613009F457C0242F220F42E1623009F40B
:105AC00054C0802F0E94E9228F3F09F451C00E94E8
:105AD000CD227C01FC019581D12C9D1509F48EC04D
