:100000000C9411110C9439110C9439110C94391170
:100010000C9439110C9439110C9439110C94391138
:100020000C9439110C944A190C9439110C9439110F
:100030000C9439110C9439110C9439110C94391118
:100040000C9439110C9439110C9439110C94391108
:100050000C9439110C9439110C9439110C943911F8
:100060000C9439110C9439110000000000000000BC
:10007000010101010101020202020303030304045E
:1000800005050506060707080809090A0A0B0B0CEF
:100090000D0D0E0F0F101111121314141516171841
:1000A000191A1A1B1C1D1E1F202122232425272854
:1000B000292A2B2C2D2F30313234353638393A3C21
:1000C0003D3E404143444647494A4C4D4F505254AF
:1000D0005557585A5C5E5F61636566686A6C6E70FE
:1000E00071737577797B7D7FFFFEFCFAF8F6F4F289
:1000F000F0EFEDEBEAE8E6E5E3E1E0DEDDDBDAD9BF
:10010000D7D6D4D3D2D0CFCECCCBCAC9C7C6C5C41C
:10011000C3C1C0BFBEBDBCBBBAB9B8B7B6B5B4B336
:10012000B2B1B0AFAEADACABAAA9A8A8A7A6A5A422
:10013000A3A3A2A1A09F9F9E9D9C9C9B9A999998E6
:100140009797969594949392929190908F8F8E8D8D
:100150008D8C8C8B8A8A8989888787868685858419
:10016000848383828281818002020303040507085D
:100170000A0B0E101215161A1C1E202425282A2CD4
:100180002E31323536393A3C3D4141444547494CA0
:100190004D50515357575B5C5F616366676A6C6E85
:1001A0007171757679797D7E8081858588898C8E5F
:1001B00090919496999A9CA0A1A3A6A8A9AEADB13E
:1001C000B3B4B7B9BABDBEC0C2C4C6C7CACBCDD11D
:1001D000D0D4D7D7DBDCE0E2E4E6E9ECEEEFF3F4F1
:1001E000F6F8F9FBFCFDFDFDFFFDFEFDFCFBF9F85B
:1001F000F6F5F2F0EEECE8E8E3E3DFDCDCD7D7D3AA
:10020000D2D0CDCCC9C8C6C3C3C0BFBCBABAB6B5BC
:10021000B2B1AFACAAA8A6A4A0A09D9A98979393B8
:100220008F8E8B8B878683837F7F7C7A79767472BF
:10023000716E6C6A686563625E5C5B5954555150BF
:100240004D4B49484642433F3E3C3B3836353231C0
:100250002E2C2B272623201F1B1A1714130F0E0CCE
:1002600009090606030402030102030305070A0B3A
:100270000E1013141618191D1C21212426282A2CAF
:100280002E30323336383A3B3F3F434445484B4AA1
:100290004F4F535356585B5B5E60616565686A6C8F
:1002A0006E7072747579797C7E8082848688898D7F
:1002B0008E8F92949698999D9EA0A2A3A7A7AAAC70
:1002C000AEB0B2B4B6B8B9BDBEBFC2C4C6C8CACC5F
:1002D000CFCFD2D4D6D7DADCDFDFE2E5E6E8E9ED4E
:1002E000ECF0F2F5F5FAFAFDFCFFFEFCFBFAF6F590
:1002F000F1F1EEEBEBE7E8E3E4DFDFDDD9D8D7D3CC
:10030000D3D0CECCCBC9C5C5C2BFBFBCBAB8B7B4B9
:10031000B2B1ADADA9A9A6A4A2A09E9D9A989694AB
:1003200092908E8D8989858582807F7B7A7876749C
:1003300072716D6D6A67676461615D5C5B5856548C
:1003400051514E4C4948474342413E3B3B3737337E
:1003500031312E2B2B28262422201D1B1B1717136F
:1003600013110D0C090706030203020405070A0B0B
:100370000E0E13121617191B1E1E22232428292BBA
:100380002C3030343437383C3C3F40434546494AB2
:100390004D4E515255555A595D5E60636367686AA8
:1003A0006C6E7072747678797D7D80828485888A9F
:1003B0008B8E8F929495979A9B9E9FA1A4A5A7AA96
:1003C000AAAEAFB1B3B5B7B9BBBDBFC1C3C4C8C88E
:1003D000CBCCD0D0D2D6D6D8DBDCDFE1E2E4E6E984
:1003E000EBEBEFF0F2F5F6F7FBFCFFFCFCF9F6F5B2
:1003F000F3F2EEEEEAE9E8E5E3E1DFDDDCD9D7D5BB
:10040000D4D1D0CCCCCAC7C6C3C1C0BDBDB8B8B6A4
:10041000B4B1B0ADADA9A8A5A5A1A09E9C9A97978F
:100420009491918E8B8B888684837F7F7C7A79767A
:100430007472716E6D6A69656662605F5D5A585864
:100440005452524E4D4A4A464542423E3E3A39384F
:100450003433312F2E2A2A26262321201C1C19183A
:10046000141510100D0C0908050302030506090BED
:100470000C0F10121517171B1C1E20222426282AC9
:100480002B2E3031343538393B3E3F4143454848C7
:100490004B4D4F51525557585A5E5D6162656569C3
:1004A0006A6C6E6F737475787A7B7E7F82848488C1
:1004B0008A8A8E8F90949597989B9E9DA2A2A4A7BE
:1004C000A9AAACAEB1B2B4B6B8BABCBEC0C1C4C6BB
:1004D000C8C9CBCECFD2D3D5D8D9DADEDFE0E4E4B9
:1004E000E8E7ECECEFF0F3F4F7F8FAFEFDF9F9F6D3
:1004F000F4F2F1EEECEBE9E6E4E3E1DEDDDADAD6A4
:10050000D5D3D1CFCDCBC9C7C5C3C2BFBDBBBAB789
:10051000B6B3B2AFADADA9A8A5A4A2A09E9C9A9770
:10052000979492908E8C8B88868582817E7C7B7955
:10053000767573716E6D6B6966666360605D5B593D
:1005400058555351504D4C49474742433F3E3B3B22
:10055000373634322F2F2C2A28272323201E1C1B0A
:1005600019161413100F0D0B0807040451505150A5
:100570005150505250515353545658585B5E5D621F
:1005800062656668696A6C6C6D6D6E6E6D6F6D6FBD
:100590006E6E6F6F70717273747678797A7E7E7F0B
:1005A000838285858687888888888A878A878A88DB
:1005B0008A888B8B8B8D8E9090939496969A9A9C2A
:1005C0009D9DA09EA1A0A0A1A19FA19FA19FA0A031
:1005D000A1A2A1A3A5A5A7A8ABACADAFB1B2B3B47E
:1005E000B6B5B6B6B6B6B5B6B4B4B4B3B3B3B4B3C1
:1005F000B5B5B7B8BABBBDC0C1C3C5C7C8C9CBC9FB
:10060000CBCBC9C9C9C6C6C4C3C1C1C1BFC1C0C1A2
:10061000C4C6C7CCCED1D5DADBE0E2E4E5E5E5E35C
:10062000E1DAD8CEC8BEB5A89D908376695A4F420C
:10063000362C2219130B08040201020105080B0EC7
:1006400013181B1F25272A2D303132323433333211
:100650003130312F2E302E2F3031333337383A3E70
:100660003E434447484B4C4E4E4F514F524F5050D3
:1006700054535858595A5A5B5A5A5C5C5E616065CB
:100680006365666564676569686B6C6F6E706F70D3
:100690006F71707373757778797A797A7A7A7B7CEF
:1006A0007E7E8281838482848384858588888A8C07
:1006B0008C8C8D8C8D8C8F8E919194949595969534
:1006C00095959798999A9C9D9E9D9E9E9D9DA09F75
:1006D000A2A2A4A6A5A6A6A5A5A6A6A7AAABABAEB0
:1006E000ADADADADACAEACB0B1B1B5B3B5B5B4B305
:1006F000B3B4B5B5B8B9BBBCBBBCBAB9BBB8BCBC6C
:10070000BEC0C2C2C3C1C1C0BEBFC0C3C4C7C9C9C5
:10071000CAC7C6C4C2C4C5C7CBCFD1D1D0CDCBC444
:10072000C5C3C8CCD4DCE1E1DCCEB99F805F4225F3
:100730001405010308111820232323201B1B191B58
:100740001E22252B2B2C2D2B29292A292E2F333500
:1007500037383738373538373B3C3F4143444343DC
:100760004343434646494B4C4F4F4F4F4E505352D5
:100770005456575757595A5B5D5A5E5F60606062C6
:1007800063646564666869676A6B6B6E6B6E6F70D5
:10079000717171737574757677787979797C7C7DF0
:1007A0007C7F7E8180818184848385868787888918
:1007B000888C8B8B8C8D8F8E908F9093929294934C
:1007C00097959598979999999A9C9C9C9C9E9EA088
:1007D000A09EA2A2A2A2A4A3A6A5A5A7A7A8A8A9D5
:1007E000A9AAACABABACADAFAEAEAFB1B0B1B2B02D
:1007F000B5B3B3B4B5B6B6B7B5B8B9B9B8B9BABC8C
:10080000BCBABBBDBFBDBEBDBFC2C0BFBFC3C4C1FC
:10081000C2C2C5C6C4C4C3C9C7C7C4C8C9CCC7C679
:10082000C9CECDC9C5CDD3D0C5C5D3DFD296491069
:10083000020F1E1E1413191F201B192123241F220F
:1008400025292726272B2D2D2B2C313231313235DE
:10085000383536383B3B3A3C3D40403F41424445C9
:10086000454547494A494A4D4D4E4E505053534DC8
:10087000504F5251535455565659595A5A5D5C5E11
:100880005F5F626163636566666769696A6C6B6E08
:100890006D706F7171737473767677777A797B7B0D
:1008A0007C7D7F7E8080828283848585878788891E
:1008B0008A8A8C8C8D8D8F908F929193939496943D
:1008C00097979899999A9C9A9E9C9E9F9FA0A1A267
:1008D000A1A4A3A5A4A7A5A8A8A8A9ABA9ACACADA1
:1008E000ACAFAEAFB0B0B2B1B3B3B3B5B5B5B7B6E8
:1008F000B8B7B9B9BBB9BCBBBDBCBDBEBFBFC0C03A
:10090000C0C2C1C4C1C5C3C6C3C8C4C9C5C9C8C99A
:10091000C8CCC8CCCBCCCCCDCECCD0CDD0CFD1CF09
:10092000D4CED4D1D5D0D7D0D9D1D9D2DBD1DD0056
:100930000C030D071009110D130F151316161818B7
:100940001C191E1D1E21212223252527282A282E79
:100950002B2E2E3130333235353737393A3A3D3C4C
:100960003F3F40414342464547464B484B4C4D4E26
:100970004E505151525455555659575A5A5C5C5E17
:100980005E5E626063626564676668686B696C6D11
:100990006D6E6F70717174727675757878797A7A18
:1009A0007B7D7D7E7E81808182848385868687882B
:1009B00089898B8B8B8E8E8D90909092929394944C
:1009C00096969699979A999B9B9C9D9D9F9EA0A178
:1009D000A0A2A2A4A3A5A6A4A8A7A8A8AAAAAAACB4
:1009E000ABADAEADAFAFAFB1B2B1B2B3B4B4B5B5FC
:1009F000B6B7B8B6BAB8BABABBBCBBBDBCBFBDC04F
:100A0000BEC1C0C0C3C1C3C3C4C4C4C6C6C5C8C7B1
:100A1000C7C9C9C9C9CBCBCBCBCDCCCECDCECFCF1F
:100A2000CED1D1CFD3D1D1D4D3D2D4D7D1D5DCCAA2
:100A300013020A0E090E0F100F14131317161819AC
:100A40001B1B1D1D1F202222232526262929292D77
:100A50002C2D2F303132333435383639393C3B3C4C
:100A60003F3F404142434446464749494A4C4D4D29
:100A70004E4D4E4E515052545356565659595A5C3B
:100A80005B5E5D60606162636465666768686B6A2F
:100A90006C6C6F6D70707272737475767777797A2B
:100AA0007A7B7D7C7E807E82818283858486868837
:100AB000888A898B8C8C8D8E8F909092929295944F
:100AC0009596979898999A9B9C9B9E9D9F9FA0A175
:100AD000A1A3A2A4A5A4A7A5A9A7A8AAABA9ADABA9
:100AE000ADAEAEAEB1AFB1B2B2B2B4B5B4B5B6B8E8
:100AF000B6B8B9B9BABABCBABEBCBDBEBFC0BFC039
:100B0000C2C0C4C1C4C4C4C5C6C5C7C7C8C8C9C992
:100B1000CACACBCBCCCCCECCCFCDD0CFD0D0D1D1FC
:100B2000D2D2D3D3D4D4D4D5D5D7D6D6D8D7D8DB70
:100B3000D30901060807090C0B0C0F10101213142F
:100B40001617171A1A1B1D1F1E20222323252726BE
:100B5000292A2B2B2D2F2F303233333537363A3885
:100B60003B3B3D3E3F4041424443464747484B495B
:100B70004D4C2B2C2B2B2A292827262623232321B7
:100B800023212224232626282B2D2E3033353538B9
:100B9000383A39393A37373632322F2C2B29262634
:100BA00024252426282B2F333A40485159636F7946
:100BB00084909CA6B2BCC7D0D9E1E8EEF3F8F9FD69
:100BC000FEFEFDFDFAF9F6F4EFEEEAE7E6E2E1DF1C
:100BD000DEDDDDDEDCDFE0DFE2E3E5E5E7E8E9E9F5
:100BE000E9EAE8E9E7E6E4E4E1DFDEDBDBD8D8D6F2
:100BF000D5D5D3D6D3D6D5D7D7D8DBDADBDEDCDE76
:100C0000DEDEDEDCDCDAD9D8D5D3D1CFCECACBC795
:100C1000C8C6C7C5C8C7C9CACDCED1D3D5D7D9DBF9
:100C2000DADCDBD9D8D6D0CBC8BEB9AEA79C9187C9
:100C30007B70645A4D433930271E18110D09050386
:100C40000202020304080A0C0F1316171B1D1F21B2
:100C5000212322232221211F1F1B1D1918191716BA
:100C60001617161819191B1C201F22242627282A9C
:100C70002A2B2B242526292A2A2C2A2929282728E9
:100C80002A2B2E2E2F2F2F2D2B2C2C2B2F30333386
:100C90003334332F302E2F3034353839393835331B
:100CA00031313134393D4042403B372F2C2A313BE2
:100CB000506A85A6C2DBEEFAFEFDF7F0EAE5E2E552
:100CC000E5EAEDF0F0EEECE8E7E3E2E4E5E8E8E998
:100CD000EAE8E6E4E1E1DFE2E1E4E4E6E3E3E1DFE0
:100CE000DDDDDDDDDFDFE1E0DFDEDCDBD9D8DAD939
:100CF000DCDBDCDDD9DAD8D5D5D5D5D7D6D9D8D770
:100D0000D7D4D2D2D0D1D1D2D5D4D4D4D1D0CDCDC4
:100D1000CBCDCDD0D0D2D0D0CCCBC7C7C7C8CACD11
:100D2000CED0CFCAC8C2C0BFBFC3CBCFD5D5D0C429
:100D3000AF977A5A3E2313060103090F161B1D1B9A
:100D40001B151310101114171A1C1D1D1A18181535
:100D50001718191C1F1F1F201D1C1B1C1B1D1F20CB
:100D6000232323222120201F212124262528272553
:100D700025242423292827282B2B29292B2B2D2BED
:100D80002B2C2E2D2E2C2E302F2E2F30313130307B
:100D90003234323132343534343236383535343811
:100DA0003A3735373A3C3837373D3F3A35394343A0
:100DB000382C3C72B9EFFEF2E4E5EEF2ECE7E6ED3A
:100DC000ECEBE5E7E9ECE6E6E5E8E8E6E4E3E7E6B0
:100DD000E3E3E2E5E4E2E0E2E2E3DFE0DFE1E1DDFC
:100DE000DEDFDEDFDCDCDDDDDDDADADCDBDBD9D843
:100DF000DADAD8D8D7D7D9D7D5D5D7D6D5D4D4D489
:100E0000D5D3D2D2D4D2D2CFD1D2D1D0CDD0CFD0CF
:100E1000CECCCECDCFCCCACBCECCC9CAC9CBCCC719
:100E2000C7C8CBC9C5C4C7CAC9C1C1C7CAC7BDBC69
:100E3000C8D4C48D4711010E1C19120F121B1715AF
:100E40001117191A1515181C1918171B1B1C191A1C
:100E50001C1E1C1B1C1E1F1F1C1E1F21201F1F21B0
:100E60002321212123242322242426252326262747
:100E7000272528272A1F1E201F211F231F23212447
:100E8000212423242426232725272528282629280A
:100E90002A282B282C2A2B2C2C2B2E2C2F2C2F2F96
:100EA0002E302F3130313034303430373037313824
:100EB000313A313B32FEF5FDF3FDF3FCF2FAF3F982
:100EC000F2F8F2F6F2F5F1F4F2F2F2F0F2EFF1EFFD
:100ED000F0EEEFEDEFECEFEBEDEBECEAECEAEAE94C
:100EE000E9EAE7E9E7E8E6E8E4E8E4E5E5E5E2E59C
:100EF000E3E2E3E2E1E1E2E0E0DFE1DDE0DDDFDDEE
:100F0000DDDDDCDCDBDCDADBDADAD8DAD8D9D7D83D
:100F1000D6D7D6D7D4D7D3D5D4D4D2D4D2D2D2D18F
:100F2000D2CFD2CED1CDD1CCD1CAD1C9CFCACFC7E1
:100F3000CFC6CFC5CE020B020C030C050C060D0765
:100F40000D080D0A0D0C0D0C0E0D0F0E0F100F10CD
:100F5000101210131113111512151414151616165C
:100F60001617181718181A181B191B191D1B1C1BEC
:100F70001E1C1F1C1F1F202120212222232124246C
:100F80002324252525262626272827272A28282BF7
:100F9000292A2B2B2B2B2E2B2D2D2E2D302D302F88
:100FA000312F30332F333232333432353435343716
:100FB00036333A383043ECFFF5F4F8F7F3F5F7F24F
:100FC000F4F4F3F2F3F2F1F2F1EFF1F0EFEFEFEE10
:100FD000EEEDEDEDEDEBECECEAEBEAE9EAE9E9E860
:100FE000E7E9E6E7E7E6E5E6E4E5E5E3E3E4E2E2B0
:100FF000E3E1E1E1E0E1DFE0DEDFDEDEDEDCDEDBFF
:10100000DDDBDCDADBDAD9DAD9D8D9D8D7D7D8D54D
:10101000D6D6D6D4D5D3D5D3D3D3D2D2D1D1D2CF9D
:10102000D1D0CFCED0CDCECECDCBCECCCBCBCCC9EC
:10103000CBCBC6C9D0BC1303080D07090D090B0C97
:101040000C0B0E0C0D0E0F0D0F100F1011101013B6
:101050001112131313141414151516161616181747
:10106000181819181A191B1A1B1B1B1C1D1D1C1ED6
:101070001E1D201E201F201D1D1F1D1F1F1F202085
:10108000202220232123232323242525242627252A
:10109000272728272929282A292B2A2C2A2D2B2DB6
:1010A0002D2D2E2E2E2F2F30303032303133323244
:1010B0003434323635313CF5FFFAF8FCF9F9F8F9F9
:1010C000F8F7F8F6F6F7F5F5F5F5F3F5F3F2F3F2D0
:1010D000F2F1F2F0F0F0EFF0EEEEEFEDEDECEEEB22
:1010E000ECEBEAECE9EAE9E9E9E8E8E7E7E6E7E674
:1010F000E5E5E5E4E4E4E3E2E3E2E2E0E2E0E0E0C7
:10110000DFDFDFDDDFDCDEDDDBDDDBDBDBD9DBDA18
:10111000D8DAD8D7D9D6D8D6D6D5D6D5D5D3D4D46B
:10112000D3D2D3D1D2D1D1CFD2CECFD0CECDCECEBD
:10113000CCCDCDCACBCEC6090106060605070707EA
:101140000907080A09090A0B0B0B0B0D0B0E0D0DF5
:101150000E0E0F0F100F1110111211131213141382
:10116000141514161615171717171918181A191A0F
:101170001B1A1B1C1C1B1E1C000101020203030482
:1011800004050608090B0D10000101020203030407
:1011900004050608090B0D100001010202030304F7
:1011A00004050608090B0D100001010202030304E7
:1011B00004050608090B0D100001010202030304D7
:1011C00004050608090B0D100001010202030304C7
:1011D00004050608090B0D100001010202030304B7
:1011E00004050608090B0D100001010202030304A7
:1011F00004050608090B0D1000FFFFFEFEFDFDFCB7
:10120000FCFBFAF8F7F5F3F000FFFFFEFEFDFDFC36
:10121000FCFBFAF8F7F5F3F000FFFFFEFEFDFDFC26
:10122000FCFBFAF8F7F5F3F000FFFFFEFEFDFDFC16
:10123000FCFBFAF8F7F5F3F000FFFFFEFEFDFDFC06
:10124000FCFBFAF8F7F5F3F000FFFFFEFEFDFDFCF6
:10125000FCFBFAF8F7F5F3F000FFFFFEFEFDFDFCE6
:10126000FCFBFAF8F7F5F3F000FFFFFEFEFDFDFCD6
:10127000FCFBFAF8F7F5F3F00000000000000000B6
:101280000000000000000000000202030304050645
:1012900007080A0C0E111418000304050607090AB2
:1012A0000C0F12151A1F252D0004050608090B0D39
:1012B0001013171C2228313A00050607080A0C0FE4
:1012C0001115191E242C353F0004050608090B0DC5
:1012D0001013171C2228313A000304050607090AD7
:1012E0000C0F12151A1F252D000202030304050618
:1012F00007080A0C0E11141800000000000000007E
:10130000000000000000000000FEFEFDFDFCFBFAF6
:10131000F9F8F6F4F2EFECE800FDFCFBFAF9F7F669
:10132000F4F1EEEBE6E1DBD300FCFBFAF8F7F5F3C2
:10133000F0EDE9E4DED8CFC600FBFAF9F8F6F4F1F7
:10134000EFEBE7E2DCD4CBC100FCFBFAF8F7F5F3F6
:10135000F0EDE9E4DED8CFC600FDFCFBFAF9F7F6C4
:10136000F4F1EEEBE6E1DBD300FEFEFDFDFCFBFA63
:10137000F9F8F6F4F2EFECE800000080004000809D
:1013800002020203020303040504070509070A0B0E
:101390000B0D0D111012151517191B1C201F2424DD
:1013A00027292B2E30333537393E3F4146464B4CAB
:1013B000515255595C5E6164686B6D7074777A7CCC
:1013C000818287898C9093949A9B9EA3A3A9A9AEAE
:1013D000B1B2B6B9BBBFC0C3C7C8CBCDD1D2D4D8C8
:1013E000D8DCDDDFE2E3E6E6E9EBEBEFEEF1F2F38A
:1013F000F5F5F6F9F7FBF9FCFBFCFDFDFDFEFEFE45
:10140000FDFFFEFDFDFEFCFDFBFBFAFAF8F8F6F62B
:10141000F5F2F3F0EFEEECEAE9E7E6E2E2E0DDDB3D
:10142000D9D7D4D3D0CECAC9C6C4C0BEBCB8B6B34F
:10143000B1ADAAA8A4A29E9C9995938F8D8887830D
:10144000807D7A7674716D6A6865605F5C5855530B
:10145000504D4A4745423F3D39383532312D2B2AD0
:10146000262523201F1D1A1A1616141310100D0EF0
:101470000B0A0A0808060605040502040202020314
:1014800001000120002A0033004000550080008147
:1014900000AA00C000CC00D500E00000010101332B
:1014A000014001550166018001AA01C0010002024C
:1014B000024002C002000300040005000800000012
:1014C000000000000000000000000000000000809C
:1014D0000087008F009800A100AA00B500BF00CBD4
:1014E00000D700E400F10000010F011F01300142AC
:1014F0000155016A017F019601AE01C801E30100B7
:10150000021B28590F0D010012333E0D0C06000F6F
:10151000455D0E0C07000A546E0D0A0800172C5783
:101520000F0C01000D1D500D080000062E510C037C
:10153000000009335F0F03000306496307030E0928
:10154000000000000000000020000000000000007B
:101550007F00000000003F000028143C0000000055
:101560000028143C000000000028143C000000008B
:10157000001003020000030003020000030000004B
:101580000003010004060006003F0B00000C0100F0
:101590000112200E120010040003040000000000DD
:1015A000000000000000000000000000000000003B
:1015B0002B0DD107DA064906E10591054F051805FF
:1015C000E704BD0497047504550438041D0404049D
:1015D000ED03D703C303AF039D038B037A036A03B1
:1015E0005B034C033E033003230316030A03FE028E
:1015F000F302E702DD02D202C802BE02B402AB026D
:10160000A2029902900288027F0277026F026802AA
:101610006002580251024A0243023C0235022F0284
:10162000280222021B0215020F0209020302FE0118
:10163000F801F201ED01E701E201DD01D701D2017C
:10164000CD01C801C301BE01BA01B501B001AC01B1
:10165000A701A3019E019A01950191018D018901C4
:10166000850181017C017801750171016D016901BC
:10167000650161015E015A01560153014F014C01A0
:101680004801450141013E013B013701340131016F
:101690002D012A012701240121011E011A01170130
:1016A000140111010E010B010901060103010001E2
:1016B000FD00FA00F700F500F200EF00EC00EA0090
:1016C000E700E400E200DF00DD00DA00D700D5002B
:1016D000D200D000CD00CB00C900C600C400C100BC
:1016E000BF00BC00BA00B800B500B300B100AF0045
:1016F000AC00AA00A800A600A300A1009F009D00C6
:101700009B00980096009400920090008E008C0040
:101710008A00880086008400820080007E007C00B1
:101720007A00780076007400720070006E006C0021
:101730006A00680067006500630061005F005D008B
:101740005C005A00580056005400530051004F00EE
:101750004D004C004A00480046004500430041004F
:1017600040003E003C003B003900370036003400AA
:10177000330031002F002E002C002B002900270001
:10178000260024002300210020001E001D001B0055
:101790001A001800170015001400120011000F00A5
:1017A0000E000C000B0009000800060005000400F4
:1017B0000004070B0F13171A1E2225292C2F33366E
:1017C000393C3F4245484B4E515456595C5E61632B
:1017D00066686B6D6F727476787A7D7F818385879A
:1017E000898A8C8E9092949597999A9C9E9FA1A29B
:1017F000A4A5A7A8AAABACAEAFB0B2B3B4B5B7B806
:10180000B9BABBBCBDBEC0C1C2C3C4C5C6C7C8C8C7
:10181000C9CACBCCCDCECFCFD0D1D2D3D3D4D5D5CE
:10182000D6D7D8D8D9DADADBDBDCDDDDDEDEDFE007
:10183000E0E1E1E2E2E3E3E4E4E5E5E6E6E7E7E868
:10184000E8E8E9E9EAEAEAEBEBECECECEDEDEDEEE9
:10185000EEEEEFEFEFF0F0F0F1F1F1F1F2F2F2F283
:10186000F3F3F3F3F4F4F4F4F5F5F5F5F6F6F6F630
:10187000F6F7F7F7F7F7F8F8F8F8F8F8F9F9F9F9EB
:10188000F9F9FAFAFAFAFAFAFAFBFBFBFBFBFBFBB3
:10189000FBFCFCFCFCFCFCFCFCFDFDFDFDFDFDFD82
:1018A000FDFDFDFEFEFEFEFEFEFEFEFEFEFEFEFF5A
:1018B000FF01FE040004000400040005000500050B
:1018C00000060006000700070007000800080009DE
:1018D0000009000A000B000B000C000D000E000EAA
:1018E000000F001000110012001400150016001760
:1018F0000019001A001C001E001F002100230025F3
:101900000028002A002D002F003200350039003C4D
:10191000004000430047004C00500055005A006052
:101920000065006C007200790080008800900099CA
:1019300000A200AC00B600C100CC00D900E600F364
:10194000000201110122013301450159016E018498
:10195000019B01B301CD01E901060225024602699E
:10196000028E02B502DF020B0339036B039F03D61D
:1019700003110450049204D80422057005C4051C08
:10198000067906DD064607B5072B08A8082D09B914
:10199000094E0AEC0A930B450C010DC80D9B0E7AFB
:1019A0000F671063116D128713B214EF153F17A361
:1019B000181C1A991800009F1100009F1100009E2A
:1019C000170000EE1700002E170000471600004712
:1019D0001600004716000047160000471600004793
:1019E0001600004716000047160000471600009238
:1019F0001200007915000028150000B01300003215
:101A0000120000FA13000099180000EE170000926F
:101A1000120000791500009F110000FA1300006009
:101A20002B6A2B742B7E2B882B922B9D2BA72BB1F3
:101A30002BBB2BC52BCF2BD92BE32BED2BF82B025C
:101A40002C0C2C162C202C2A2C352C3F2C492C53BA
:101A50002C5E2C682C722C7C2C872C912C9B2CA619
:101A60002CB02CBA2CC52CCF2CD92CE42CEE2CF875
:101A70002C032D0D2D182D222D2C2D372D412D4CC5
:101A80002D562D612D6B2D762D802D8B2D952DA016
:101A90002DAA2DB52DC02DCA2DD52DDF2DEA2DF562
:101AA0002DFF2D0A2E142E1F2E2A2E342E3F2E4AA5
:101AB0002E542E5F2E6A2E752E7F2E8A2E952EA0E6
:101AC0002EAA2EB52EC02ECB2ED62EE02EEB2EF625
:101AD0002E012F0C2F172F222F2D2F372F422F4D56
:101AE0002F582F632F6E2F792F842F8F2F9A2FA58A
:101AF0002FB02FBB2FC62FD12FDC2FE72FF22FFDBA
:101B00002F083014301F302A30353040304B3056DB
:101B10003062306D30783083308E309A30A530B0FE
:101B200030BB30C730D230DD30E830F430FF300A1F
:101B300031163121312C31383143314F315A316531
:101B40003171317C31883193319F31AA31B631C145
:101B500031CD31D831E431EF31FB31063212321D53
:101B6000322932353240324C32573263326F327A58
:101B700032863292329D32A932B532C032CC32D85E
:101B800032E432EF32FB32073313331F332A33365A
:101B90003342334E335A33663372337D3389339550
:101BA00033A133AD33B933C533D133DD33E933F545
:101BB0003301340D341934253431343D344934552E
:101BC0003461346E347A34863492349E34AA34B616
:101BD00034C334CF34DB34E734F33400350C3518F8
:101BE00035253531353D354935563562356E357BD0
:101BF0003587359335A035AC35B935C535D235DEA9
:101C000035EA35F735033610361C36293635364277
:101C1000364E365B366836743681368D369A36A740
:101C200036B336C036CC36D936E636F336FF360C08
:101C3000371937253732373F374C375837653772C2
:101C4000377F378C379937A537B237BF37CC37D97D
:101C500037E637F33700380D381A3827383438412B
:101C6000384E385B386838753882388F389C38A9D8
:101C700038B638C338D038DD38EA38F83805391284
:101C8000391F392C393A394739543961396F397C20
:101C90003989399639A439B139BE39CC39D939E6BF
:101CA00039F439013A0F3A1C3A2A3A373A443A524F
:101CB0003A5F3A6D3A7A3A883A953AA33AB13ABEDF
:101CC0003ACC3AD93AE73AF43A023B103B1D3B2B67
:101CD0003B393B463B543B623B703B7D3B8B3B99E6
:101CE0003BA73BB43BC23BD03BDE3BEC3BFA3B0764
:101CF0003C153C233C313C3F3C4D3C5B3C693C77D4
:101D00003C853C933CA13CAF3CBD3CCB3CD93CE743
:101D10003CF53C033D113D1F3D2D3D3C3D4A3D58AA
:101D20003D663D743D833D913D9F3DAD3DBB3DCA0C
:101D30003DD83DE63DF53D033E113E203E2E3E3C66
:101D40003E4B3E593E683E763E843E933EA13EB0B9
:101D50003EBE3ECD3EDB3EEA3EF83E073F163F2408
:101D60003F333F413F503F5F3F6D3F7C3F8B3F994B
:101D70003FA83FB73FC53FD43FE33FF23F00400F8E
:101D8000401E402D403C404B4059406840774086C3
:101D9000409540A440B340C240D140E040EF40FEF7
:101DA000400D411C412B413A414941584167417620
:101DB0004185419541A441B341C241D141E141F046
:101DC00041FF410E421E422D423C424B425B426A61
:101DD00042794289429842A842B742C642D642E579
:101DE00042F5420443144323433343424352436185
:101DF00043714381439043A043AF43BF43CF43DE8E
:101E000043EE43FE430E441D442D443D444D445C8B
:101E1000446C447C448C449C44AB44BB44CB44DB86
:101E200044EB44FB440B451B452B453B454B455B75
:101E3000456B457B458B459B45AB45BB45CB45DC61
:101E400045EC45FC450C461C462C463D464D465D42
:101E5000466D467E468E469E46AF46BF46CF46E01E
:101E600046F04600471147214732474247534763F0
:101E700047744784479547A547B647C647D747E8BD
:101E800047F847094819482A483B484C485C486D80
:101E9000487E488E489F48B048C148D248E248F33F
:101EA000480449154926493749484959496A497BEF
:101EB000498C499D49AE49BF49D049E149F249039E
:101EC0004A144A254A364A474A594A6A4A7B4A8C42
:101ED0004A9D4AAF4AC04AD14AE34AF44A054B17E1
:101EE0004B284B394B4B4B5C4B6D4B7F4B904BA274
:101EF0004BB34BC54BD64BE84BF94B0B4C1D4C2E03
:101F00004C404C514C634C754C864C984CAA4CBB85
:101F10004CCD4CDF4CF14C034D144D264D384D4A01
:101F20004D5C4D6E4D7F4D914DA34DB54DC74DD977
:101F30004DEB4DFD4D0F4E214E334E454E584E6AE2
:101F40004E7C4E8E4EA04EB24EC44ED74EE94EFB46
:101F50004E0D4F204F324F444F574F694F7B4F8E9E
:101F60004FA04FB24FC54FD74FEA4FFC4F0F5021F4
:101F7000503450465059506B507E509150A350B63B
:101F800050C950DB50EE5001511351265139514C7C
:101F9000515E51715184519751AA51BD51CF51E2B7
:101FA00051F55108521B522E524152545267527AE7
:101FB000528D52A052B452C752DA52ED520053130E
:101FC0005327533A534D536053735387539A53AD2A
:101FD00053C153D453E753FB530E54225435544941
:101FE000545C54705483549754AA54BE54D154E54D
:101FF00054F9540C552055345547555B556F55824F
:10200000559655AA55BE55D255E655F9550D56214A
:1020100056355649565D56715685569956AD5602F7
:102020000202020202020202020202020202020290
:102030000202020202020202020202020202020280
:102040000202020202020202020202020202020270
:10205000020202020202020202020202020203035E
:102060000303030303030303030404040404050537
:10207000050506060607070808090A0A0B0C0D0ED7
:102080000F1012131516181A1C1E212326292D3085
:1020900034373B4044494E53585D63696E747A80CF
:1020A000868C92979DA3A8ADB2B7BCC0C5C9CCD051
:1020B000D3D7DADCDFE2E4E6E8EAEBEDEEF0F1F2CA
:1020C000F3F4F5F6F6F7F8F8F9F9FAFAFAFBFBFB90
:1020D000FBFCFCFCFCFCFDFDFDFDFDFDFDFDFDFD37
:1020E000FDFDFEFEFEFEFEFEFEFEFEFEFEFEFEFE12
:1020F000FEFEFEFEFEFEFEFEFEFEFEFEFEFEFEFE00
:10210000FEFEFEFEFEFEFEFEFEFEFEFEFEFEFEFEEF
:10211000FEFEFEFEFEFEFEFEFEFEFEFEFEFEFEFFDE
:10212000FFD8492140E237DB30D82AAF253D216571
:102130001D101A2B17A5146F128010CC0E4D0DFA1E
:102140000BCE0AC409D80805084907A1060A068368
:10215000050A059C043A04E103900347030503C9FB
:10216000029202600232020902E301C001A001836F
:102170000168014F01390124011001FF00EE00DF69
:1021800000D100C400B800AC00A20098008F008706
:10219000007F00770071006A0064005F005A0055FC
:1021A0000050004C004800440040003D003A003719
:1021B00000340032002F002D002B002900270025BD
:1021C000002300210020001E001D001C001A001921
:1021D000001800170016001500140013001200125A
:1021E000001100100010000F000E000E000D000D79
:1021F000000C000C000B000B000A000A000900098B
:102200000009000800070007000600060005000599
:1022100000040004000300030002000200010000AB
:10222000522411241FBECFEFD8E0DEBFCDBF11E096
:10223000A0E0B1E0E6EDF9E402C005900D92A23510
:10224000B107D9F725E0A2E5B1E001C01D92AE3299
:10225000B207E1F711E1C1E1D1E104C02197FE012C
:102260000E946524C031D107C9F70E94CD190C9492
:10227000E3240C9400008091A50281508093A50274
:1022800091E0811101C090E091959093690180E007
:1022900008958091A50281508093A5029FEF80341C
:1022A00018F4982F990F990F9093690199E3899FDA
:1022B000802D1124089590915F0122E0290F209331
:1022C0005F0180915E012031B8F09F5090935F01D3
:1022D0002091A502422F39E4839F400D1124842FC1
:1022E00040935E01911108C09FEF920F9093A50259
:1022F00097FD03C0909369010895922F9195909353
:102300006901FACF8091A502809369018150809381
:10231000A50290915E0129E4929F800D1124809383
:102320005E0108959091A502909369019150909358
:10233000A50281E0903208F080E081950895CF9267
:10234000DF92EF920F931F93CF93DF93DC01FB019A
:1023500019965C91199716968C911697823009F40C
:1023600078C0893209F47AC01FE7813009F010E0A3
:102370001A969C911A972D913D914C911297BF01FD
:10238000685D7F4F5B96CD91DC915C976E010FEF9E
:10239000C01AD00A5C96DC92CE925B978881139625
:1023A000CD90DD90EC901597811146C02C0D3D1D10
:1023B0004E1D81E0C216D306E40608F480E05D9667
:1023C000CD91DC915E976E010FEFC01AD00A5E9638
:1023D000DC92CE925D978883C42EDD24EE248C2D72
:1023E0005C3650F41696CC911697C23059F1C9322A
:1023F00031F1C13039F080E091936E177F0771F0B1
:10240000982FC0CFC116C0F317968C911797CC2D7B
:10241000C81B8C2F91936E177F0791F72D933D93D7
:102420004C9312971A968C93DF91CF911F910F9135
:10243000EF90DF90CF9008954E2D9601C0CFC1163A
:10244000D8F6D9CFC1E0C11608F4C0E08C2F819531
:10245000D3CF17961C91179711588ACF17961C91B6
:10246000179786CFCF92DF92EF920F931F93CF9360
:10247000DF93FC01DB01238534852115310511F43F
:1024800021E030E08781082F000F000F043008F4AE
:1024900004E0C080D180E280BD01685D7F4F09C04B
:1024A0008FE7850F831B8C936C177D0771F1DE011D
:1024B0008781C38DD48DAE014F5F5F4F548F438FA3
:1024C0009881992311F025853685A9015695479560
:1024D000217033273195219531092227347B242718
:1024E00035271285309FA0010095109F0095400D63
:1024F000511D11245287ED012196803488F6880FF2
:10250000850F8C936C177D0791F6C082D182E28291
:1025100034872387DF91CF911F910F91EF90DF9048
:10252000CF9008952F923F924F925F926F927F9239
:102530008F92AF92BF92CF92DF92EF92FF920F9362
:102540001F93CF93DF9300D000D0CDB7DEB7FC014F
:102550006B837C83638074808580EE24D82CC72CA9
:102560002781822F90E08C9DA0018D9D500D9C9D18
:10257000500D112470E060E0ADE0769567955795B9
:102580004795AA95D1F74F5F5F4FBA016C0D7D1D3E
:102590007A8369838B01040F151FBA01600F711FC5
:1025A000A080B180C2803681373209F473C0EB80DD
:1025B000FC8088E2E80EF11C07C0C82C5301638040
:1025C00074808580BC83AB83838D948D9C012F5F49
:1025D0003F4F348F238FDC014C9141110BC0A60C6F
:1025E000B71CC81C41E06A147B048C0408F440E06A
:1025F00035018C2C858D968D9C012F5F3F4F368F3A
:10260000258FDC014C934285538589819A81480F3F
:10261000591F5387428724853585200F311F358701
:10262000248786859785860F971F97878687CC2472
:10263000B82CA72C6501CD2CDD24C694C694AB81A3
:10264000BC81852F86958695232F26952695820F0A
:1026500096959695890FC80ECD92EA16FB0609F05D
:10266000ACCF6082718282820F900F900F900F909A
:10267000DF91CF911F910F91FF90EF90DF90CF905E
:10268000BF90AF908F907F906F905F904F903F90F2
:102690002F9008953FE7F32EF20E81589F4F582E4A
:1026A00044242B803C8098E2290E311C07C0C82CA2
:1026B0005301638074808580BC83AB83838D948D4C
:1026C0009C012F5F3F4F348F238FDC014C914111D0
:1026D0000DC0EC2C6501C60CD71CE81C41E06C1445
:1026E0007D048E0408F440E036018E2C858D968D95
:1026F0009C012F5F3F4F368F258FDC014C93428525
:10270000538589819A81480F591F538742872485B1
:102710003585200F311F3587248786859785860F5D
:10272000971F97878687EE24D82CC72C2FE3E22E9D
:10273000C414D50408F4E12C5F1510F0AFE3EA0EE1
:102740003F1510F0BFE3EB0E9F1510F02FE3E20EE4
:10275000AB81BC81ED92A215B30509F0A8CF81CF62
:10276000CF92DF92EF920F931F93CF93DF93FC01F1
:10277000DB01578151582081318142818B01085DF5
:102780001F4F1EC02C0D3D1D4E1D81E0C216D306ED
:10279000E40608F480E0C58DD68DBE016F5F7F4FE3
:1027A000768F658F8883BD016F5F7F4F81E045170E
:1027B00008F480E081958C936017710781F0DB014C
:1027C000C38DD48DCE010196948F838F8881C38071
:1027D000D480E5808823B1F24E2D9601DCCF208392
:1027E00031834283DF91CF911F910F91EF90DF9062
:1027F000CF9008952F923F924F925F926F927F9267
:102800008F92AF92BF92CF92DF92EF92FF920F938F
:102810001F93CF93DF93CDB7DEB72C970FB6F89405
:10282000DEBF0FBECDBF1C01F62ED72EFC01828D60
:102830008F5F8370828F8111A0C09101265F3F4F0F
:1028400038872F83A101405F5F4F2A01C10146965F
:102850009A87898720910101F101318D230250016E
:10286000112486E0E2E0F1E0DE01119601900D9284
:102870008A95E1F7F1016080718082800B2C000C59
:10288000CC08CB2CBA2CAA240F2D1D2D9801285D25
:102890003F4F3C872B87AF81B88569857A85AE012C
:1028A0004F5F5F4F20E0FD011296E680F780808148
:1028B00091818E0D9F1D15969C938E931497FB010D
:1028C0003191BF01FA01E190F190AF01892F807F32
:1028D000832BF701E80FF11DE4912E0F4A165B06DA
:1028E00011F7382D2303212D1124F10183819481C7
:1028F000A581681A790A8A0A6C2DA501460D571D13
:10290000681D481759076A0730F4118A108A138A1C
:10291000128A158A148A213E64F1203264F5220F4E
:10292000220F2058F801208321830E5F1F4F2B8533
:102930003C852017310709F0AECFF101608271822A
:1029400082822C960FB6F894DEBF0FBECDBFDF910A
:10295000CF911F910F91FF90EF90DF90CF90BF909C
:10296000AF908F907F906F905F904F903F902F909F
:10297000089520E0D7CF2FEFD5CF6781262F30E005
:10298000359527953595279535952795359527952F
:10299000822F880F880F880F821B6F7007E0080F47
:1029A00090E0AC014F5F5A4E9101265F3F4F388750
:1029B0002F83D901210130E1430E511CA02EB12CEF
:1029C000FA01C4909501281B390BE20FF31FE49024
:1029D0001C2D7E2D769FF0016095605F169F6051E3
:1029E0006095E00DF11D1124EE0FFF1FEE0FFF1F8C
:1029F000EE0FFF1FED93FD934F5F5F4FA415B505DD
:102A0000F9F68C5F9A4EA1014A5E5F4F5A8749875B
:102A1000DA014C5F5F4FFC017491E20FF31FE49108
:102A200010E000E07E2F769F80016095605FE69F5A
:102A300060516095000D111D11241F70007F102B37
:102A40001295E12FED9301964A175B0721F702CF0C
:102A5000CF92DF92EF921F93CF93DF93DC01FB01C4
:102A60002D913D914C91129717965C911797152FC8
:102A7000110F5095685D7F4F1DC02C0D3D1D4E1DE3
:102A800081E0C216D306E40608F480E05D96CD919D
:102A9000DC915E976E019FEFC91AD90A5E96DC92AF
:102AA000CE925D978883812F842785238193E617B3
:102AB000F707A9F05B96CD91DC915C97CE0101966A
:102AC0005C969C938E935B9788811396CD90DD9056
:102AD000EC901597882389F24E2D9601D7CF2D9330
:102AE0003D934C93DF91CF911F91EF90DF90CF906A
:102AF00008952F923F924F926F927F928F92AF9252
:102B0000BF92CF92DF92EF92FF920F931F93CF93DA
:102B1000DF9300D000D00F92CDB7DEB78C016C836D
:102B20007D83DC011896EC91EF73F0E0EE0FFF1F50
:102B3000EF57FB4E25913491F801C380D480E58096
:102B400040E08E2DB6010E945C24272E382E4424AE
:102B50006781F62EFF0C80819181A28122853385C9
:102B6000448529833A834B83AC80BD80F8E2AF0E65
:102B7000B11C3901842E20E833E106C0AE2DC60118
:102B8000F801C380D480E580F801638D748DAB01BA
:102B90004F5F5F4F548F438FFB01708171110BC0EA
:102BA0008C0D9D1DAE1D71E0C816D906EA0608F40D
:102BB00070E06C01EA2ED8015D96ED91FC915E9774
:102BC000CF0101965E969C938E935D977083620C05
:102BD000731C841CAA27982D872DF901E90FF11D7C
:102BE000982F85911590919DF0019095989FE00DFB
:102BF000F11D11248F2F8058482F5F2D4503C001F0
:102C0000112466275E2D4D2D840F951FF901E90FC4
:102C1000F11D982F85911590919DF0019095989FA9
:102C2000E00DF11D11248F2FAC81BD818D93BD83EB
:102C3000AC83AA16BB0609F0A1CFD801CD92DD92D4
:102C4000EC9298E2842DB1010E946B2489819A81D3
:102C5000AB81280F391F4A1FD8011A962D933D9337
:102C60004C930F900F900F900F900F90DF91CF919A
:102C70001F910F91FF90EF90DF90CF90BF90AF909A
:102C80008F907F906F904F903F902F900895A5E088
:102C9000B0E0EDE4F6E10C948D248C839D836A838F
:102CA0007B83AC81BD8116968C9116978650898363
:102CB000582F569556958270982E13966D907D904C
:102CC0008C9015974427382D272D17968C911797A0
:102CD00090E0829F7001839FF00C929FF00C112472
:102CE000F694E794F694E794E20EF31E1A968D910B
:102CF0009C911B972D913D914C9112975B960D9154
:102D00001C915C975D96ED91FC916981637070E018
:102D1000660F771FDB01A858BC4E1D012801B8E2E1
:102D20004B0E511C37C081E08083482D9301F10187
:102D3000859194918E0D9F1DE92FFF27E058FC4E41
:102D4000E491CA80DB80FFEFCF1ADF0A513009F42B
:102D500039C0523009F475C0552309F46FC0992069
:102D600009F451C0E0580E2F1A2D0103E12D112452
:102D700010E81E0FEA81FB8110834A165B0609F4F6
:102D80004EC0EC81FD81638074808580FB018D01E4
:102D9000DB82CA82D801BF016F5F7F4FDD90D11007
:102DA000C2CF260D371D481DDD24D394621673064D
:102DB000840608F4D12CD08262167306840608F4C7
:102DC000B9CFB5CF642E77248824AA24AA9440349E
:102DD000A0F0A12C67FC11C0632E742E882453012F
:102DE00000E4B01AA094B0940024AA0CBB1C001CF0
:102DF000AA0CBB1C001CAB2CB02C1981153009F09F
:102E0000AECFE695E0580E2F1A2D019FB12C11245C
:102E1000EA81FB81B0824A165B0609F0B2CFAC8131
:102E2000BD812D933D934C93A0E0EC81FD81828781
:102E30009387A4872596E2E10C94A924A42EA0945C
:102E40008ECF632E742E88245301AA0CAB2CAA1C9F
:102E5000BB08B19447FF83CFA09481CF6F927F923C
:102E60008F92AF92BF92CF92DF92EF92FF920F9329
:102E70001F93CF93DF937C01DB01FC012081318123
:102E80004281838D948DC58CD68C685D7F4F37C011
:102E9000260D371D481D51E062167306840608F49E
:102EA00050E0E6015993642E77248824BB24BA9419
:102EB000303268F4A32EB42ECC24F501F695E795B4
:102EC000F295E295EF70EF27FF70EF27BE2EF70126
:102ED0005781550F062D1B2D159F60015095059F9D
:102EE0005095C00CD11C11240D2D10E0F801E058B4
:102EF000FC4EE491ED936A177B0771F06E01FC01C3
:102F000050810196F701638074808580552309F410
:102F1000BFCF482D9301C5CFF70120833183428372
:102F2000DF91CF911F910F91FF90EF90DF90CF90A5
:102F3000BF90AF908F907F906F9008956F927F9227
:102F40008F92CF92DF92EF92CF93DF93EC01DB0170
:102F5000C880D980EA802B8D3C8D6D8D9E8DAD0112
:102F6000485D5F4F23C0C60CD71CE81C81E06C1481
:102F70007D048E0408F480E0E62FF92F81936D2CF8
:102F80007E2C8824C301880F892F881F990B919567
:102F900077FE80959F81891718F4990F981B892FC8
:102FA0008D93A417B50771F06E2F9F2FF9018081C3
:102FB0002F5F3F4F6B807C808D808823A1F2E82CAF
:102FC0006301DACFC882D982EA82DF91CF91EF9094
:102FD000DF90CF908F907F906F900895B0E0A0E049
:102FE000E4EFF7E10C948D248C015B01DC01199670
:102FF0002C91E22FE295BE2FB07F5B2E4B2E40949A
:10300000EC019E81943009F48EC0EF70CAE0CE0FBF
:10301000D0E0CC0FDD1FC85FDE4FE880F980EF5FA6
:10302000E73008F07EC0E65FF0E0EE0FFF1FE85FDC
:10303000FE4F20803180F801608071808280438D56
:10304000548D258D968D6501F8E2CF0ED11C4BC0B5
:103050006C0E7D1E8E1E81E0C615D705E80508F4AE
:1030600080E0C22FD92F8993AA27982D872DF701A9
:10307000E90FF11D282F95901590219DF0012095C5
:10308000299DE00DF11D11249F2EF101E90FF11D85
:10309000882FA5911590819DF00180958A9FE00D64
:1030A000F11D1124AF2F292D342D6A2F752D679F07
:1030B000C001239F800D911D1124292FD80117963F
:1030C000EC9117979E1738F416962C912330D1F077
:1030D0002E2F2695290FF5012193EC15FD05C1F042
:1030E0002C2F9D2F5F01FA0180814F5F5F4FD80128
:1030F0001396CD91DD91EC91882309F4A9CF3E017F
:103100008E2EAFCF2E2FF5012193EC15FD0541F743
:10311000E801688279828A82CDB7DEB7E2E10C9459
:10312000A924E6E080CF80E8282E83E1382E7101C3
:1031300082CFCB01AB01485D5F4FFC01019620E8D7
:10314000208384179507C9F70895A0ECB1E0EBEA56
:10315000F8E10C949B24109285021092840206EAF6
:1031600012E0F8018FEF8287158616861582148289
:1031700011861086789622E0EE3EF20799F7EDEB85
:10318000F1E085E991E04DE651E01192DC011D92FC
:10319000CD01DA011D92AD01B1E0E53EFB07A9F7D3
:1031A00040E750E060E475E1CE018F5A9E4F0E94E7
:1031B000C42480E7FE01EF5AFE4FDE01AF51BF4F3E
:1031C00001900D928A95E1F780E7FE01EF51FF4FE4
:1031D000DE01AF58BF4F01900D928A95E1F780E76D
:1031E000FE01EF58FF4FDE01119601900D928A9576
:1031F000E1F780E7FE013196A4E2B4E001900D9280
:103200008A95E1F780E88093010310920003109201
:103210000203109203031092040394E090930F03AF
:1032200098E090930E0390E190930D0390E29093B9
:103230000C0390E490930B0380930A038FEF809329
:103240000903E0911703F09118038FE78083E09161
:103250001703F09118031682E0911703F0911803F9
:103260001582F801178A168A108A8685818B84E078
:103270008787158A148A80859185938B828B085E57
:103280001F4FF2E00E3E1F0761F7C054DE4FE4E02F
:103290000C94B7240F920FB60F921F9211242F9304
:1032A0008F939F93EF93FF9380912304882309F1D9
:1032B0005A9A5A9810922304809162018093C60012
:1032C000809161018093C6008091C00085FFFCCF92
:1032D0008091A60428995CC0E82FF0E0EE0FFF1F54
:1032E000E055FA4E8591949190619093620180939C
:1032F000610180912D0590912C05891B8F7719F420
:1033000081E08093810280912D0590912C05891B8D
:103310008F77A1F080912C05E82FF0E0E455FB4F6A
:1033200090818F5F8F7780932C05809160018F5FF4
:103330008093600120919F048217E0F40DB407FE92
:103340000FC09FEF9093AA042EB580912204E82F1E
:10335000F0E0EF5DFC4F20838F5F809322049EBDE1
:10336000FF91EF919F918F912F911F900F900FBE22
:103370000F9018955A9A5A981092600120E1929FE6
:10338000C001112490699093C6008093C600D6CFE7
:1033900020E1829FC0011124A7CFCDB7DEB761978E
:1033A0000FB6F894DEBF0FBECDBF78941092C10067
:1033B00014BE80916000886180936000109260006C
:1033C000529A5A9A1092C5001092C400549A519A77
:1033D000509880EC8093C20088E18093C1001092E5
:1033E000C5001092C4003C9A3D9A44984598569A5C
:1033F00084B5806884BD559A84B5806284BD539A33
:103400008091B00080628093B00087B1876087B9F7
:1034100025982398249A229880E48CBD109220034A
:103420001092A90492DE5A9A5A988FE18093C600AE
:103430008FEF8093C6002098289A8FEF93E00E9428
:10344000CD2481110C94392485B5887F816085BD98
:1034500084B58C7F816084BD80918100887F81608C
:1034600080938100809180008C7F816080938000B8
:103470008091B100887F81608093B1008091B0001D
:103480008C7F81608093B000809170008160809318
:1034900070008E010D5F1F4F1B870A87F7E52F2EE7
:1034A000F2E03F2EAFE2AA2EA2E0BA2EBAE14B2EF6
:1034B000B3E05B2E80912C0590912D05891B990B13
:1034C00001978F779091AB04981710F48093AB0419
:1034D000883208F459C58091AA04882309F409C7E1
:1034E00081508093AA048091A904811101C0449A5B
:1034F00080910001909101019C0121703327319549
:10350000219531092227347B9695879528273927DD
:103510003093010120930001309307038091B8029A
:103520009091B9024091BA025091BB02480F591FC5
:103530005093BB024093BA024817590708F036C0AF
:103540006091B6021091B7027FEF179FA0017095AE
:10355000679F7095400D511D11244093BC025093FC
:10356000BD028091B5028F5F8093B502952F8430A4
:1035700029F41092BD021092BC0290E09093B60222
:1035800090E0FC01EA55FD4F42854093B70210924E
:10359000BB021092BA02880F991FFC01EA55FD4F39
:1035A000808191819093B9028093B802892B09F0B0
:1035B000C9C68091BD028093F1028091D0029091A2
:1035C000D1024091D2025091D302480F591F50931B
:1035D000D3024093D2024817590708F036C06091D1
:1035E000CE021091CF027FEF179FA0017095679FC9
:1035F0007095400D511D11244093D4025093D50273
:103600008091CD028F5F8093CD02952F843029F475
:103610001092D5021092D40290E09093CE0290E0E6
:10362000FC01EA55FD4F42A14093CF021092D30214
:103630001092D202880F991FFC01EA55FD4F808D30
:10364000918D9093D1028093D002892B09F053C6BB
:103650008091D5028093F2028091E8029091E90274
:103660004091EA025091EB02480F591F5093EB0230
:103670004093EA024817590708F036C06091E60205
:103680001091E7027FEF179FA0017095679F7095DB
:10369000400D511D11244093EC025093ED02809196
:1036A000E5028F5F8093E502952F843029F4109214
:1036B000ED021092EC0290E09093E60290E0FC01A3
:1036C000EA55FD4F42AD4093E7021092EB02109293
:1036D000EA02880F991FFC01EA55FD4F80A991A9C4
:1036E0009093E9028093E802892B09F0DBC5809171
:1036F000ED028093F3024091840250918502598B30
:10370000488BCA01880F991F880F991F9093050352
:103710008091EE02809306039091540460916301BE
:10372000709164014091650150916601460F571FE9
:10373000509366014093650181E04617570708F0F2
:1037400080E080936701923009F486C708F0AAC42C
:10375000992309F476C7852F880F880B8093F70289
:103760001A82198287E0AA85BB851D928A95E9F79E
:10377000E0E8F4E041EF52E0B4E28B2EB4E09B2E9F
:103780009281992391F1A081B0E0AF50BD4F3C915F
:10379000A181B0E0AF50BD4F2C91993008F068C4C2
:1037A000622F6695832F8695860F8A83329F812D9F
:1037B00011248B8360E8630F6203812D11248058EC
:1037C0008C83231708F014C53D832E838FEF8887E1
:1037D000198623272F83A1E0B0E0AC0FBD1FA90FEE
:1037E000B11D8C91DA0117968C9333964F5F5F4F22
:1037F0000CE814E00E171F0709F0C2CFE091170381
:10380000F09118038081880F8093A60480E090E2F5
:1038100090935C0280935B0290935E0280935D02C2
:103820009093600280935F029093620280936102A2
:103830008091250430E8182F139FC0011124909324
:1038400058028093570280912904282F239FC0019A
:10385000112490935A028093590280912C04109263
:1038600063028093640280912E041092650280931B
:1038700066028091320410926B0280936C028091F8
:10388000330410926D0280936E0280913104109285
:1038900067028093680280913004109269028093DD
:1038A0006A0220913404239F900111248889998908
:1038B0009052820F931F97FD6EC696FD69C6282F02
:1038C000892F20936F0280937002809135041092AB
:1038D00071028093720280E090E290937402809370
:1038E000730290937602809375029093780280938E
:1038F00077028091550420E8382F329FC0011124AF
:1039000090937A028093790270915804E6E5F4E08E
:1039100040E01091A604672F30818181A32FB0E091
:10392000AF50BD4F2C91823109F43CC090E0880F1C
:10393000991FDC01A95ABD4F0D90BC91A02D5DEFE0
:10394000530F543020F13B7F303109F16203B00155
:1039500011249D01260F371F37FD21C036FF02C0FD
:103960002FEF3FE3895A9D4FDC012D933C934F5F2E
:103970004E3009F432C065814D3011F03396CCCF12
:10398000209102036203612D11243396C5CF205884
:103990006202900111242A0F3B1F37FFDFCF30E076
:1039A00020E0E0CF67FF02C0619520956F3361F0A2
:1039B000660F660F3FEF269FC0016095369F6095AA
:1039C000800D911D1124292F129F112D1124109368
:1039D000A6044F5F4E3009F0CECF40913A042091BB
:1039E000F2024203A001112480916F0290917002B3
:1039F000480F591F57FDC9C556FF02C04FEF5FE37F
:103A000020913B043091F50230582302900111249B
:103A1000420F531F57FDB6C556FF02C04FEF5FE37D
:103A200020918C043091FF02230390011124240F74
:103A3000351F37FDFEC536FF02C02FEF3FE38091F3
:103A40008D04409105034058082F0402C001112441
:103A5000820F931F97FDEBC596FDEEC5880F991F4A
:103A6000880F991F9C873C853093A0048091710238
:103A700090917202880F991F880F991F9093A1044B
:103A800080916E028F5F80939F0480915702909186
:103A90005802880F991F9093EC01809126048C5D49
:103AA0008093ED018091590290915A02880F991FDD
:103AB00090938D0280912A048C5D80938E02809178
:103AC000730290917402880F991F80EC890FE82E81
:103AD000880FFF088091750290917602880F991FD8
:103AE00000EC090F602E000F77088091770290910B
:103AF0007802880F991F80EC890FC82E880FDD0887
:103B0000A6EAB2E044E254E0FA01218D260D372DF9
:103B1000311D2038310514F02FE730E037FF02C0A7
:103B200030E020E0FA01838D8C0D9D2D911D8038B1
:103B3000910514F08FE790E097FF02C090E080E0DD
:103B4000FA01028D608D6E0D7F2D711D603871053B
:103B500014F06FE770E077FF02C070E060E0FB01F7
:103B6000EE0FFF1FE15EFE4D6591749111967C93FF
:103B70006E93F901EE0FFF1FE15EFE4D259134912A
:103B800013963C932E931297FC01EE0FFF1FE15EFC
:103B9000FE4D8591949117969C938E931697802F46
:103BA000880F1B968C931B971C968C931C97485FD1
:103BB0005F4F58962EEE32E02A173B0709F0A4CF4C
:103BC0008091790290917A02880F991F880F991F2E
:103BD000E92FE695F0E0EE0FFF1FED54F74E8591CB
:103BE00094919093640180936301123008F4D1C3DF
:103BF000209182023091830268887988620E731E58
:103C00000091EF021091F00291E0121613060CF0F1
:103C100090E081E0601671060CF080E0981709F4DE
:103C20000EC51092830210928202109385020093B7
:103C3000840280915F0290916002905295958795E1
:103C4000959587959595879595958795800F911F63
:103C500000916102109162021052000F012F001FAB
:103C6000110B080F191FEBE56E2EE2E07E2E61E0CE
:103C7000D4018C919801803141F012962C9140E84A
:103C8000240390011124200F311FD40113968C912D
:103C9000280F311D87FD3A95F301819191913F01E4
:103CA000905297FD03969595879595958795280F42
:103CB000391F2130FCE33F0714F020E03CE3F90119
:103CC000FA53F7FFEBC450E0FA5F452F5F5FF7FD53
:103CD000FBCFEE7FE15EF54E85919491A0E0A92F98
:103CE000982F8827552329F0A695979587954150B9
:103CF000D8F7220F331F3C5037FD30E0613009F414
:103D00004DC420912D044DEB51E0213011F445E9D3
:103D100051E0609128042BEE260F213108F0A4C257
:103D200021E020938C0230938F028093890290933C
:103D30008A02A0938B025093A2024093A102EDE667
:103D4000F1E0F093A402E093A30267EB79E144E091
:103D500050E0CE01019618D68B819C8180FF7DC2F8
:103D6000959587958A579D4FDC01ED91FC912981AE
:103D70003A81E20FF31F0190F081E02D6FE272E0D3
:103D800009952091630230916402220F331F220FA4
:103D9000331F432F8091650290916602880F991F0F
:103DA000880F991F892F9927682F532F5095782FA7
:103DB000709520912D04243009F4DFC408F01EC250
:103DC000223009F4ADC4EFE2F2E087E092E0233064
:103DD00009F067C40191DC011D91CD01049F9001A0
:103DE000159F200D311D11248F0101501109D8019B
:103DF0002C91DC011E912127269F8001379F000D09
:103E0000111D11241C932E163F0621F78091690283
:103E100090916A02880F991F192F50912F045630E4
:103E200008F0C8C2609004027090050280900602FB
:103E3000533020F08694779467945350B0E4511136
:103E400001C0B0E8092F0095E7E0F2E080916A0137
:103E500090916B01A0916C01652F860D971DA81D97
:103E600080936A0190936B01A0936C01CA2EDD24AC
:103E7000EE24613009F42EC121E0CB1608F420E0D5
:103E800021953081219FA001309F400D511D1124AB
:103E9000519322E0EF32F20701F720910101809166
:103EA000670290916802880F991F192FF92E1095BB
:103EB00080916B0290916C02880F991F880F991F57
:103EC000392F3095A7E0B2E0EF2CD92E732F49E4BB
:103ED000F42E2F9DC00111248F5F2C91082F3E2DB1
:103EE000039FA001219F400D511D1124E52FF0E0FB
:103EF000E15EFF4D44916D2D469F9001579F200D2F
:103F0000311D11248F9DC001112421E0280F11962D
:103F10008C911197082F6E2D269FA001019F400DB7
:103F2000511D1124E52FF0E0E15EFF4D44910D2D70
:103F3000409FC001579F800D911D112480912D0538
:103F4000E82FF0E0E455FB4F308391838E5F8F774D
:103F500080932D051296AA16BB0609F0B8CF1091D2
:103F6000A0041C872C8527BD8091A10488BD88B141
:103F7000E0913604F0E0E25BFE4F887F9081892B70
:103F800088B981E0809323048091220490912104D8
:103F900015C080931F0350921E0340921D0391E0B1
:103FA0009093200320EF280F203108F043C083E0D6
:103FB000809319039091220480912104981709F4A9
:103FC00079CA90912104E92FF0E0EF5DFC4F8081E8
:103FD0009F5F90932104909120039923D1F2E09167
:103FE0001D03F0911E039F012F5F3F4F30931E036F
:103FF00020931D03808380911903815080931903BE
:104000008111D8CF90911F03892F807F803309F4CD
:1040100005C2B0F4803109F407C2E0911A03F0E060
:10402000EC5DFB4F803219F480911B03808310926A
:104030002003C0CF20EE280F203390F482E0B8CFC9
:10404000803409F434C2803591F79F70933078F74B
:104050009D5FE92FF0E0EF50FD4F80911A03E6CF0E
:10406000282F207F203509F043C090931903A2CF59
:10407000993009F425C29A3009F0B7CB822F869582
:104080008695682F6095DA0117962C911797629F95
:10409000B00111248F5F839F600D711D112417964D
:1040A0007C93A3CB852F933009F458CB8CEF890FE9
:1040B000982F8F54974EFC01E50FF11D442F8591E9
:1040C0001590419DF0014095489FE00DF11D112490
:1040D0008F2F44CB292F3A2F4427A901440F452F76
:1040E000441F550B5195242FC7FCCBCE2095C9CE2C
:1040F0008F3F09F49CCF883F08F438C0E7E0E80F11
:10410000E63008F059C3F0E0EB51FB4DDEC381E02F
:104110008EBD8DCF61E08FEF93E047D488E198E0CA
:104120000FB6F894A895809360000FBE909360003E
:10413000FFCF0BD845987BCF84E18EBD78CF81E04F
:104140008093A9044498459872CF9091810291116F
:1041500007C08091AB048E3F08F098C38091AB04F8
:104160008EBD1092AB041092810261CF803709F4AA
:1041700043C300F190E8980F933008F058CF8F7048
:1041800090E0FC01EE0FFF1FE80FF91FEE0FFF1F7D
:10419000EE0FFF1FEE0FFF1FEA55FD4F8789808B43
:1041A0008285818B1786158A148A80819181938BF1
:1041B000828B3DCF882309F436C3803609F037CF90
:1041C0001092EE02E6EAF2E08789808B8585818B8A
:1041D00083E08787158A148A86819781938B828BE7
:1041E00078964EEE52E04E175F0771F745981FCF55
:1041F0002D833E8318868FEF8987EBCA253009F01F
:1042000050C29C013595279535952795359527956D
:10421000359527953595279581E090E001C0880F69
:104220002A95EAF7182F1195AFE2B2E0E7E0F2E045
:104230007F017D91F70161917F01749F9001659FDE
:10424000200D311D1124CF010197212F2323FC01C3
:1042500020832A163B0669F7D9CDE981FA81959525
:1042600087958A579D4F8ACD60938C0230938F0239
:104270008093890290938A02A0938B025093A202AA
:104280004093A1020DE611E01093A4020093A30253
:10429000653108F4FBC160516B3108F4FEC263EB79
:1042A00079E155CD8091EA029091EB0240EB57E124
:1042B000FA01E90FF11D982F85911590919DF0015C
:1042C0009095989FE00DF11D11248F2F6091E602CB
:1042D0007091E702082F709FA0010095609F0095E4
:1042E000400D511D1124852F4093EC025093ED0297
:1042F00000CA4498FDC88091D2029091D30240EB4D
:1043000057E1FA01E90FF11D982F85911590919DC4
:10431000F0019095989FE00DF11D11248F2F609171
:10432000CE027091CF02082F709FA0010095609F70
:104330000095400D511D1124852F4093D4025093B8
:10434000D50288C98091BA029091BB0240EB57E137
:10435000FA01E90FF11D982F85911590919DF001BB
:104360009095989FE00DF11D11248F2F6091B6025A
:104370007091B702082F709FA0010095609F009573
:10438000400D511D1124852F4093BC025093BD0256
:1043900012C994E180912D05E82FF0E0E455FB4F20
:1043A00020E8208321838E5F8F7780932D059150A5
:1043B00089F7D8CDF92EFF0CE52F5B3008F0EAE045
:1043C000E650FF0BEE0FFF1FEC5BFE4FC080D1806D
:1043D0008091A50207E012E0811106C05ECD32E0B7
:1043E0000F32130709F459CDF6010995209169019F
:1043F0003F2D239F212D1124D8013C91682F629FCE
:10440000A0012095329F2095400D511D11245D93F0
:104410008D018091A5028111E2CF3FCDE0911A0379
:10442000F0E0E05FFC4F00CE80911C039170209182
:104430001A0340911B03522F5093F0024093EF0256
:10444000E0911703F0911803609184027091850246
:104450002581222309F440C0992309F43DC0611548
:10446000710509F48AC0461B570BE681F0E0EE0F98
:10447000FF1FE15EFE4D25913491DA0148D26C8731
:104480007D878E879F87AA27BB27009731F48FEF00
:104490009FEF57FD02C081E090E0909383028093EC
:1044A00082028091A9048111C2CD459AC0CDE091CC
:1044B0001A03EF3108F0BBCDF0E0EF50FD4FB4CD63
:1044C000922F969580E004C086958068292F969556
:1044D0002230D0F7832386C92FEF2093EE02A6EA7D
:1044E000B2E057962C91579750962C9350971A9666
:1044F0002C911A9751962C9351971F961C921F97A7
:1045000055961C921E9254972D913C91119753965B
:104510003C932E93529758960EEE12E00A171B0703
:1045200001F72FEF2093A5028093FF02A0910001D5
:10453000B0910101B09308039D012170332731959B
:10454000219531092227347BB695A7952A273B2749
:104550003093010120930001232F33272F5F3F4F1A
:1045600030939402209393026115710531F0858197
:10457000882309F478CF911176CF50938502409328
:10458000840289CF50E040E04BCA50E040E038CA96
:104590002FEF8FE396C920E080E093C96C01EA2EEB
:1045A000E694D794C794C0920402D0920502E09298
:1045B0000602209124044BEE420F413108F08FC0D7
:1045C0006093EB013093EE018093E8019093E90151
:1045D000A093EA012DEB31E0309301022093000219
:1045E00045E951E0509303024093020267EB79E101
:1045F00044E050E0CE010196C7D18B819C8180FFC1
:1046000067C0959587958B519E4FDC01ED91FC918C
:1046100029813A81E20FF31F0190F081E02D67E0DC
:1046200072E00995B4E08B0E911C62E021CB1C86F0
:104630001ACA30E020E003CA2FEF2C8714CA830186
:10464000F4CACA01880F892F881F990B919557FFCB
:1046500001C084C8809582C88091680146175707B9
:1046600008F07CC8C90181709927919581959109BD
:104670008827947B3695279582279327909301016D
:1046800080930001892F9093680168C870E0660FDD
:10469000771F660F771F6D54764E59CB4FEF50E062
:1046A00018CBAFE2B2E0E7E0F2E08F017D91F801D4
:1046B00061918F01749F9001659F200D311D112420
:1046C000CF010197FC0130832A163B0679F79ECB78
:1046D000E981FA81959587958B519E4FA0CF2093C4
:1046E000EB013093EE018093E8019093E901A093F0
:1046F000EA018DEB91E09093010280930002A5E91D
:10470000B1E0B0930302A0930202253108F4B7C0D0
:1047100060EF620F6B3108F4BBC063EB79E168CFE7
:10472000EFE2F2E087E092E0F52EE72E762F642F9D
:104730003191DC012D91CD010F2D369FA001209FDD
:10474000400D511D11243E916D0130588F010150D3
:104750001109D8012C9120583202212D1124205802
:104760003E2D279F8001539F000D111D1124D6015E
:104770001C932E163F06E1F649CBAFE2B2E0E7E02C
:10478000F2E07F010D91F70111917F01049F9001EB
:10479000159F200D311D112420E8230F269F800135
:1047A000379F000D111D1124CF010197FC011083CB
:1047B0002A163B0639F72ACB80E880930103109232
:1047C000000310920203109203031092040394E07A
:1047D00090930F0398E090930E0390E190930D0354
:1047E00090E290930C0390E490930B0380930A0360
:1047F0008FEF809309031BCCE6EAF2E0178A168A52
:10480000108A8685818B84E08787158A148A808543
:104810009185938B828B78968EEE92E08E179F0710
:1048200069F7459804CC809170008E7F809370006A
:104830000DB407FEFDCF2EB5A4E2B4E0B0931E0385
:10484000A0931D0390E080E0222369F00DB407FEE1
:10485000FDCF3EB5803720F4FC01EC5DFB4F30838B
:104860000196821798F380917000816080937000A8
:10487000DECB60E08FEF93E098D00C94241AB4E084
:104880002B9FB00111246D54764EB2CE8DEF68CCC3
:10489000E4E06E9FB0011124F6CF14E0619FB001F7
:1048A0001124F9CEE0E1F3E087E0DF011D928A9563
:1048B000E9F7F087E7830895DB01582F19D0529F5D
:1048C000800DA49F800D11240895EE0FFF1F059009
:1048D000F491E02D0994699F9001899F402D799F63
:1048E000300D411D112497FF0895361B470B089585
:1048F000A29FB001B39FC001A39F700D811D112421
:10490000911DB29F700D811D1124911D0895F0DF3E
:10491000B7FF0895821B930B08952F923F924F92F9
:104920005F926F927F928F929F92AF92BF92CF923F
:10493000DF92EF92FF920F931F93CF93DF93CDB748
:10494000DEB7CA1BDB0B0FB6F894DEBF0FBECDBFC0
:1049500009942A88398848885F846E847D848C8491
:104960009B84AA84B984C884DF80EE80FD800C819A
:104970001B81AA81B981CE0FD11D0FB6F894DEBF7D
:104980000FBECDBFED010895FB01DC0102C0059013
:104990000D9241505040D8F70895F999FECF92BD3D
:1049A00081BDF89A992780B50895262FF999FECFF1
:1049B0001FBA92BD81BD20BD0FB6F894FA9AF99A3C
:1049C0000FBE01960895F894FFCF99209F208A206A
:0649D00087209C20A520B9
:1049D60021007812781278117812781180137710E6
:1049E600760F750E740D730C720B8013710A7009B5
:1049F6006F086E076D066C0580136B046B046B0401
:104A06006A0369026801801301151F20B118B017E7
:104A1600E8006800921182115B1149113B110001F7
:024A2600020389
:00000001FF
