:100000000C94FA160C9422170C9422170C942217B5
:100010000C9422170C9422170C9422170C9422177C
:100020000C9422170C9422170C9422170C947A5ECD
:100030000C9422170C9422170C9422170C94015F35
:100040000C9422170C9422170C9422170C9422174C
:100050000C9422170C9422170C9422170C9422173C
:100060000C9422170C9422170C9422170C9422172C
:100070000C9422170C9422170C94221702030302EB
:10008000020E1E0C000004040E1F1F0000000815C5
:1000900002000000010101030300120C00191B06FD
:1000A0000204040800100804020100000400040017
:1000B000040004004600ACFF540090FF54009EFF73
:1000C00070009EFF3600BAFF7F00ACFF7F0090FFFC
:1000D0005400ACFF58009BFF6B00A1FF5800A8FF25
:1000E0003200DAFF4100A8FF6500A1FF650081FF33
:1000F0003F00E1FF13002C005D00FCFF2000CBFF60
:10010000A6FF81FF750020009AFFCBFF6900CBFF9F
:100110005D00CBFFC1FFC1FF7F00000081FF000039
:1001200000005800000000005800CEFFA8FF0000AB
:10013000580000007F0081FF7F0081FF7F0081FF6A
:100140007F0081FF7F0081FF7F0081FF7F0081FFB3
:100150007F0081FF7F007F0081FF81FF7F007F00A4
:1001600081FF81FF7F007F0081FF81FF7F007F0093
:1001700081FF81FF0000FF7FFF7FF9FFEFFFFEFFA0
:10018000FF7FFF7FFF7FECFFFBFFFF7F0000FF7F14
:10019000FF7FF9FFFF7FFEFFF4FFFF7FF6FFFF7F8A
:1001A000FF7FFF7F0000FF7FFF7FF9FFFF7FFEFFE4
:1001B000FF7F0200FF7FFF7FFBFFFF7F0000F4FF58
:1001C000FF7FF9FFFF7FFF7FFF7F0200FF7FFF7F41
:1001D000FBFFFF7F0000F4FFFF7FFF7FFF7FFEFF3D
:1001E000FF7F0200FF7FFF7FFBFFFF7F0000FF7F9D
:1001F0000500FF7F0A00FEFFFF7FFF7FF6FFFF7F06
:10020000FBFFFF7F0000FF7F0500FF7FEFFFFEFF8A
:10021000FF7F0200F6FFFF7FFF7FF1FF0000FF7FFF
:100220000500F9FFFF7FFEFFFF7F0200FF7F070051
:10023000FBFFFF7F0000FF7F0500FF7FFF7FFF7F49
:10024000F4FF0200FF7FECFFFBFFFF7F0000FF7F5A
:10025000FF7FFF7FEFFFFEFFFF7F0200F6FFFF7FC4
:10026000FBFFFF7F0000FF7F0500F9FFFF7FFEFF20
:10027000FF7F0200FF7FFF7FFF7FF1FF0000F4FFA1
:10028000FF7FF9FFFF7FFEFFFF7FFF7FFF7FECFF18
:10029000FBFFFF7F0000FF7F0500F9FFFF7FFEFFF0
:1002A000FF7F0200FF7FECFFFBFFF1FF0000FF7FFD
:1002B0000500FF7FEFFFFEFFFF7F0200FF7F0700CB
:1002C000FBFF0C000000FF7F0500FF7FEFFFFEFF3C
:1002D000FF7F0200FF7FECFFFBFFFF7F0000FF7F3F
:1002E0000500F9FFFF7FFEFFFF7F0200F6FFFF7FA3
:1002F000FBFFFF7F0000FF7F05001400FF7FFEFF74
:10030000FF7F0200FF7F07001600FF7F0000FF7FD6
:10031000EAFFF9FFFF7FFEFFFF7F0200FF7FECFF98
:10032000FBFFFF7F0000FF7F0500FF7F0A00FF7FCC
:100330000F000200FF7F0700FF7F0C000000FF7F1F
:100340000500FF7FEFFFFEFFFF7F0200FF7F07003A
:10035000FF7FF1FF00000F00FF7FFF7FEFFFFF7FB8
:10036000F4FF02001100FF7FFF7FF1FF0000F4FFA8
:10037000FF7FFF7FEFFFFF7FF4FF0200F6FFFF7FAD
:10038000FF7FF1FF00000F00FF7FFF7FEFFFFF7F88
:10039000F4FFFF7FFF7FECFFFF7FF1FF00000F0006
:1003A000FF7FFF7FFF7FFEFFFF7F02001100FF7FC7
:1003B000FF7FFF7F0000F4FFFF7FFF7FEFFFFEFF67
:1003C000FF7F0200F6FFFF7FFF7FF1FF00000000CC
:1003D00000000000C0FF0000000000000000C0FF9F
:1003E000000000000000000000000000C0FF00004E
:1003F00000000000000000000000000000000000FD
:1004000000000000C0FF000000000000000000002D
:100410000000C0FF00000F000500F9FF0A00FEFF0A
:10042000F4FF02001100ECFFFBFF0C0000000F00C6
:1004300005001400EFFFFEFFF4FF02001100ECFFC7
:10044000FBFFF1FF6444E0293644DC295144CE2906
:1004500041550000C6297D5A482BC529844DE02905
:10046000DE29DC29D029CE29CE540000C6294E59D8
:10047000AD29C529C84BE0299858DC297B2BCE290A
:1004800082570000C6293C4B602B0D4E1A42E029D2
:10049000CA41DC29D02974418A4D0000C6294F4544
:1004A000BA29C5292E572257BB3CDC299A3C8753D1
:1004B0008A4D0000C6292E5DD42AC5293C571757FE
:1004C00000572C4190541E548A4D6254C629325E06
:1004D000E92AC529B256A8569955DC29832AF92953
:1004E0008A4D922AC6299259BA29C5292E572257D0
:1004F000BD562C41745487538A4D0000C6292E5D89
:10050000E92AC5296C6F61642064656C6179006CAF
:10051000646C79007261736961006A6F6765736802
:1005200077617269006B61757368696B20746F64C1
:1005300069006368616E6472616465657000622E53
:10054000746F64690062616972616769006D2E6B26
:1005500061756E73006E61746268616972617600C4
:1005600070612E206B616669006B616D65736877E1
:100570006172690067616E676573687761726900AF
:1005800072616E676573687761726900706172612C
:100590006D65736877617269006D69276D616C00C4
:1005A0006B68616D616A0072616765736872656529
:1005B000006261676573687265650064617262619B
:1005C0007269006268696D70616C61737265650063
:1005D0006B6166690079616D616E0062696C61775B
:1005E000616C007075727669007368726565006D84
:1005F000617277610067756E616B72690062686134
:100600006972617600312F3420656100312F34200A
:100610006500312F34206562007079746861676FFE
:100620007265616E006A75737400657175616C0046
:100630005F5F5F004D554C54490050524F47524147
:100640004D0053455155454E434500504154434894
:1006500000696E69740072616E646F6D697A65001D
:10066000707420582070726F6772616D0070742012
:10067000582073657175656E63650070742058202D
:1006800070617463680073797374656D007065726E
:10069000666F726D616E636500636C6F636B006D96
:1006A000756C7469006172706567676961746F72F7
:1006B00000656E76656C6F70650066696C74657256
:1006C00020320066696C7465722031006C666F00C0
:1006D0006D69786572006F7363696C6C61746F72B9
:1006E0002032006F7363696C6C61746F722031002B
:1006F0006D6F6E6B65790068756D616E00707573F6
:10070000680073687566666C65007377696E67006C
:10071000636E707300636E702E00636E2E730063E1
:100720006E2E2E00632E707300632E702E00632ECB
:100730002E7300632E2E2E002E6E7073002E6E70A0
:100740002E002E6E2E73002E6E2E2E002E2E707307
:10075000002E2E702E002E2E2E73002E2E2E2E00EA
:100760006C6B6579006C61756E63686B657900739D
:10077000687275746869585400616D62696B6100D4
:1007800066756C6C00636F6E74726F6C6C72007364
:10079000657175656E636572007468727500312FDE
:1007A000393600312F343800312F333200312F32B7
:1007B0003400312F313600312F313200312F3800E3
:1007C000312F3600312F3400312F3300332F3800D2
:1007D000312F3200322F3300332F3400312F3100CC
:1007E000322F310063686F726400706C61796564E8
:1007F00000757026646F776E00646F776E00757099
:1008000000636861696E006379636C6963003278C4
:1008100020756E69736F6E00736F6C6F00706F6C14
:1008200079006D6F6E6F006C61670071747A003CC7
:100830003D003E3D006D696E006D6178006174742D
:100840006E0070726F64006164640063686F72644C
:100850002073657100617270656767696F007374FA
:10086000657020736571006C666F7E656E760065DD
:100870006E767E6C666F0066726565006E740068E9
:1008800070006270006C70006472756D20320064DC
:1008900072756D2031006672657175656E637900E1
:1008A0006372757368007375626F73630076696253
:1008B0007261746F006F736320312B32006F73634A
:1008C0002032006F7363203100706172616D2032DD
:1008D00000706172616D2031003D2034003D203890
:1008E000003D203136003D203332003D20363400BB
:1008F0003D20313238003D203235360072616E6461
:100900006F6D00706564616C00776865656C3200BE
:100910006D776865656C0062656E6465720061661E
:1009200074746368007365712E2032007365712ED4
:100930002031006D6F642E2034006D6F642E2033E3
:10094000006D6F642E2032006D6F642E2031006CBC
:10095000666F2034006C666F2033006C666F203247
:10096000006C666F203100656E76203300656E7610
:10097000203200656E7620310064726D3200647240
:100980006D31007663610072656C6500646563615A
:10099000006174746B007265736F0066726571003C
:1009A000637273680066757A7A0073756200786D99
:1009B0006F64006D697800766962720003312B32D2
:1009C000006F736332006F7363310070726D3200B9
:1009D00070726D31003D34003D38003D3136003DD0
:1009E0003332003D3634003D313238003D32353649
:1009F0000072616E64006E6F6973006761746500F8
:100A00006E6F7465007064616C0077686C32006DA5
:100A100077686C0062656E6400616674720076656A
:100A20006C6F0061727000736571320073657131B3
:100A3000006D6F6434006D6F6433006D6F6432005D
:100A40006D6F6431006C666F34006C666F33006CE0
:100A5000666F32006C666F3100656E763300656ECE
:100A6000763200656E763100706F70006D6574616E
:100A70006C00626C6F7700676C6974636800636C0C
:100A800069636B0070756C32007472693200737147
:100A900075320070756C3100747269310073717554
:100AA00031006269747300666F6C6400786F720065
:100AB00072696E676D6F640073796E630073747032
:100AC00032007374703100727371720072736177E7
:100AD000006C737172006C7361770073706B32001D
:100AE00073706B310062617432006261743100674F
:100AF00072673200677267310068726D3500687224
:100B00006D330068726D320072616D70007326681B
:100B1000007371720074726900766F77656C2032B1
:100B2000006373617700666D6662007170776D00B7
:100B30006F6C64736177007761767175656E63655C
:100B40000062656C6C006D6574616C6C6963006457
:100B5000726F6E6520320064726F6E6520310064C2
:100B600069676974616C007761766573006F72679D
:100B7000616E00657069616E6F00736C6170007604
:100B8000696265730063656C6C6F00626F776564A2
:100B90000074616D707572610063686F69720066E0
:100BA000656D616C65006D616C6500766F77656C75
:100BB000006E6F6973650070776D003862697473D9
:100BC00000666D00706164007A747269616E676CB2
:100BD000650068707A70756C73650062707A707504
:100BE0006C736500706B7A70756C7365006C707AED
:100BF00070756C73650068707A7361770062707AE3
:100C000073617700706B7A736177006C707A7361CF
:100C100077007A7361770073696E65007472696139
:100C20006E676C6500737175617265007361770042
:100C30006E6F6E65006F6E006F6666006F63747630
:100C400000612F73710073707264006F63740073BE
:100C500072636500616D6E74006F6D6E69006C7318
:100C60006571006C61756E63686B65792073657181
:100C7000006363206D617000657874006F75747037
:100C8000206D6F646500696E70742066696C7465B0
:100C900072007377617020636F6C6F7273006361B1
:100CA0007264206C656473006C65647300617574B4
:100CB0006F206261636B75700068656C7000736EA5
:100CC0006170006D6964690067726F6F7665006CB2
:100CD000656E70006C656E32006C656E310070611F
:100CE0007474206C656E0073657132206C656E00E3
:100CF00073657131206C656E0067726964006869A4
:100D00006768006C6F77006C61746368006C746373
:100D1000680062706D0070617274006368616E6E6D
:100D2000656C007061747465726E006469726563ED
:100D300074696F6E0072616761006172702F736514
:100D40007100706F7274616D656E746F006C6567B1
:100D500061746F00737072656164006F63746176B3
:100D60006500766F6C756D65006D6F6469662E0049
:100D70006D6F646966696572006D6F64756C2E00D5
:100D80006D6F64756C6174696F6E00696E320069B5
:100D90006E310064657374696E6174696F6E00739F
:100DA0006F7572636500766F696365206C666F00AE
:100DB0006C666F2F65670072617465007472696795
:100DC0006765720072656C65617365007375737435
:100DD00061696E0064656361790061747461636B5D
:100DE000006B6579627E7663660076656C6F7E76F1
:100DF0006366006C666F327E76636600656E76327F
:100E00007E766366006D6F6465007265736F6E61F8
:100E10006E636500616D6F756E74006F70657261F1
:100E2000746F720063726F73736D6F642E007375ED
:100E300062206F73632E006F7363206D6978007496
:100E4000756E650072616E676500706172616D65D7
:100E50007465720077617665666F726D00000203DB
:100E60000506090B0D0F808386898C8F9295989BC0
:100E70009EA1A4A7AAADB0B3B6B8BBBEC1C3C6C835
:100E8000CBCDD0D2D4D7D9DBDDDFE1E3E5E7E9EAAA
:100E9000ECEEEFF0F2F3F4F6F7F8F9F9FAFBFCFCFC
:100EA000FDFDFDFEFEFEFEFEFEFEFDFDFDFCFCFB6F
:100EB000FAF9F9F8F7F6F4F3F2F0EFEEECEAE9E715
:100EC000E5E3E1DFDDDBD9D7D4D2D0CDCBC8C6C3D3
:100ED000C1BEBBB8B6B3B0ADAAA7A4A19E9B98955E
:100EE000928F8C898683807C797673706D6A676453
:100EF000615E5B5855524F4C494744413E3C39373F
:100F000034322F2D2B28262422201E1C1A181615A9
:100F10001311100F0D0C0B09080706060504030337
:100F200002020201010101010101020202030304A4
:100F30000506060708090B0C0D0F101113151618DE
:100F40001A1C1E20222426282B2D2F323437393C00
:100F50003E414447494C4F5255585B5E6164676A55
:100F60006D707376797C8080858A8F94999DA2A715
:100F7000ACB1B5BABEC2C7CBCFD2D6DADDE0E3E6BC
:100F8000E9ECEEF1F3F5F6F8F9FBFCFCFDFEFEFEF4
:100F9000FEFEFDFDFCFBFAF9F8F6F4F3F1EFEDEAE5
:100FA000E8E6E3E0DEDBD8D5D2CFCCC9C6C3C0BD0E
:100FB000B9B6B3B0ADAAA7A4A19F9C999794928FFC
:100FC0008D8B8987858382807F7D7C7B7A79787819
:100FD00077777676767676767676777778787979A3
:100FE0007A7B7B7C7D7E7F80808182838484858602
:100FF000868787888889898989898989898888876E
:10100000878685848382807F7D7C7A78767472700F
:101010006D6B686663605E5B5855524F4C49464243
:101020003F3C393633302D2A2724211F1C19171530
:1010300012100E0C0B090706050403020201010140
:101040000101020303040607090A0C0E1113161905
:101050001C1F2225292D3034383D41454A4E535816
:101060005D62666B70757A8080878F969EA5ACB442
:10107000BAC1C7CDD3D9DEE3E7EBEFF2F5F8FAFB5F
:10108000FDFEFEFEFEFDFCFAF9F7F4F2EFECE8E5FA
:10109000E1DDD9D5D1CDC9C6C2BEBAB7B3B0ADAA0C
:1010A000A8A5A3A2A09F9E9E9E9E9E9FA0A2A3A530
:1010B000A8AAADB0B3B7BABEC2C6C9CDD1D5D9DD25
:1010C000E1E5E8ECEFF2F4F7F9FAFCFDFEFEFEFED6
:1010D000FDFBFAF8F5F2EFEBE7E3DED9D3CDC7C1BC
:1010E000BAB4ACA59E968F8780787069615A534BCD
:1010F000453E38322C26211C1814100D0A07050411
:10110000020101010102030506080B0D1013171A55
:101110001E22262A2E3236393D4145484C4F525523
:10112000575A5C5D5F606161616161605F5D5C5ADF
:101130005755524F4C4845413D3936322E2A2622CA
:101140001E1A1713100D0B080605030201010101F9
:10115000020405070A0D1014181C21262C32383EF3
:10116000454B535A6169707880808890989FA7ADED
:10117000B4B9BEC3C6C9CBCCCCCCCBC9C7C4C0BC28
:10118000B8B3AEA9A4A09B97938F8C8A88878787D2
:10119000888A8D9094999EA4AAB0B7BEC5CCD3D9A5
:1011A000E0E5EBF0F4F7FAFCFEFEFEFCFAF7F4F0F3
:1011B000EBE5E0D9D3CCC5BEB7B0AAA49E99949074
:1011C0008D8A88878787888A8C8F93979BA0A4A90C
:1011D000AEB3B8BCC0C4C7C9CBCCCCCCCBC9C6C3DA
:1011E000BEB9B4ADA79F98908880776F676058525A
:1011F0004B46413C3936343333333436383B3F4346
:10120000474C51565B5F64686C707375777878787B
:101210007775726F6B66615B554F48413A332C2688
:101220001F1A140F0B0805030101010305080B0F1A
:10123000141A1F262C333A41484F555B61666B6F79
:10124000727577787878777573706C68645F5B56C1
:10125000514C47433F3B3836343333333436393CD3
:1012600041464B525860676F7780010101010102CE
:1012700003030506080A0D1013171B20252B313810
:101280003E464D555D666E778089919AA3ACB4BC9D
:10129000C4CCD3DAE0E6EBEFF3F7FAFCFDFEFEFD9B
:1012A000FCFAF8F4F1ECE7E2DCD5CEC7BFB8B0A7A2
:1012B0009F968E857D746C645C544C453E37312B13
:1012C00025201B17130F0C0906040201010101015F
:1012D00001010101010101010101010101010101FE
:1012E00001010101010101010101010101010101EE
:1012F00001010202020203030304040505060606B7
:1013000007070707060605040302010101010101A1
:1013100001010101010101010101010101010101BD
:1013200001010101010101010101010101010101AD
:10133000010101010101010101010101010101019D
:10134000010101010101010101010101010101018D
:10135000010101010101010101010101010101017D
:10136000010101010101010101010101010101026C
:10137000030507090D11161B2229313A434D586305
:101380006E7A86919DA9B4BFC9D3DCE4EBF1F6F97E
:10139000FCFEFEFDFBF8F4EFEAE3DCD4CCC3BBB209
:1013A000A9A199928B847F7A777473727374777A18
:1013B0007F848B9299A1A9B2BBC3CCD4DCE3EAEFC2
:1013C000F4F8FBFDFEFEFCF9F6F1EBE4DCD3C9BF5B
:1013D000B4A99D91867A6E63584D433A3129221BF8
:1013E00016110D09070503020101010101010101A7
:1013F00001010101010101010101010101010101DD
:1014000001010101010101010101010101010101CC
:1014100001010101010101010101010101010101BC
:1014200001010101010101010101010101010101AC
:10143000010101010101010101010101010101019C
:10144000010101010101010101010101010101018C
:10145000010101010101010101010101010101017C
:10146000010101010101010101010101403D3A3782
:1014700034312E2B2825221F1C191613100D0A0794
:1014800004010205080B0E1114171A1D202326292A
:101490002C2F3235383B3E4144474A4D5053565924
:1014A0005C5F6265686B6E7174777A7D8082858817
:1014B0008B8E9194979A9DA0A3A6A9ACAFB2B5B814
:1014C000BBBEC1C4C7CACDD0D3D6D9DCDFE2E5E804
:1014D000EBEEF1F4F7FAFDFEFBF8F5F2EFECE9E6DE
:1014E000E3E0DDDAD7D4D1CECBC8C5C2BFC2C5C810
:1014F000CBCED1D4D7DADDE0E3E6E9ECEFF2F5F8D4
:10150000FBFEFDFAF7F4F1EEEBE8E5E2DFDCD9D61D
:10151000D3D0CDCAC7C4C1BEBBB8B5B2AFACA9A603
:10152000A3A09D9A9794918E8B888582807D7A77EF
:1015300074716E6B6865625F5C595653504D4A47D3
:1015400044413E3B3835322F2C292623201D1A17C3
:1015500014110E0B0805020104070A0D10131619C9
:101560001C1F2225282B2E3134373A3D40807C78B1
:1015700074706C6864605C5854504C4844403C380B
:1015800034302C2925211D1915110D0905010509D6
:101590000D1115191D2125292C3034383C404448A3
:1015A0004C5054585C6064686C7074787C8083879D
:1015B0008B8F93979B9FA3A7ABAFB3B7BBBFC3C79B
:1015C000CBCFD3D6DADEE2E6EAEEF2F6FAFEFAF6B0
:1015D000F2EEEAE6E2DEDAD6D3CFCBC7C3BFBBB7C3
:1015E000B3AFABA7A39F9B97938F8B878380838792
:1015F0008B8F93979B9FA3A7ABAFB3B7BBBFC3C75B
:10160000CBCFD3D6DADEE2E6EAEEF2F6FAFEFAF66F
:10161000F2EEEAE6E2DEDAD6D3CFCBC7C3BFBBB782
:10162000B3AFABA7A39F9B97938F8B8783807C7867
:1016300074706C6864605C5854504C4844403C384A
:1016400034302C2925211D1915110D090501050915
:101650000D1115191D2125292C3034383C404448E2
:101660004C5054585C6064686C7074787C800101E4
:10167000020203030304040505060606070708091A
:10168000090A0A0B0B0C0C0D0E0E0F101011121381
:1016900013141516171718191A1B1C1D1E1F2021AD
:1016A000222324252628292A2B2D2E2F313234358A
:1016B00037383A3B3D3F40424446484A4C4E5052F0
:1016C0005456585A5D5F626467696C6F7174777ABB
:1016D0007D8083878A8D9194989B9FA3A7ABAFB39E
:1016E000B7BCC0C5C9CED3D8DDE2E8EDF3F8FEF84B
:1016F000F3EDE8E2DDD8D3CEC9C5C0BCB7B3AFAB1C
:10170000A7A39F9B9894918D8A8783807D7A777415
:10171000716F6C696764625F5D5A58565452504EDF
:101720004C4A48464442403F3D3B3A3837353432D4
:10173000312F2E2D2B2A2928262524232221201F34
:101740001E1D1C1B1A191817171615141313121126
:1017500010100F0E0E0D0C0C0B0B0A0A09090807CE
:10176000070606060505040403030302020101013E
:10177000070C11161B2024292D3034383B3E4144E0
:10178000474A4D4F525456585A5C5E6062636566D4
:1017900068696A6C6D6E6F70717273747576767746
:1017A0007878797A7A7B7B7C7D7D7D7E7E7F7F8079
:1017B00080808181828282838484858586878788F0
:1017C00089898A8B8C8D8E8F90919293959697991B
:1017D0009A9C9D9FA1A3A5A7A9ABADB0B2B5B8BB7C
:1017E000BEC1C4C7CBCFD2D6DBDFE4E9EEF3F8FE4F
:1017F000F8F3EEE9E4DFDBD6D2CFCBC7C4C1BEBB82
:10180000B8B5B2B0ADABA9A7A5A3A19F9D9C9A996D
:10181000979695939291908F8E8D8C8B8A898988DB
:101820008787868585848483828282818180808087
:101830007F7F7E7E7D7D7D7C7B7B7A7A79787877F1
:1018400076767574737271706F6E6D6C6A696866A6
:10185000656362605E5C5A585654524F4D4A474425
:10186000413E3B3834302D2924201B16110C070132
:10187000F1E5D9CDC2B8AEA49B938A827B746D6624
:10188000605A544F4A45403C3733302C2926232098
:101890001D1B18161412100E0D0B0A090807060559
:1018A000040403030202010101010101010101021B
:1018B00002020303040405050606070809090A0BCA
:1018C0000C0D0D0E0F1011121314151617191A1BEB
:1018D0001C1D1E1F21222324252728292A2C2D2EBA
:1018E00030313233353637393A3B3D3E4041424460
:1018F000454648494B4C4D4F505253545657595AF0
:101900005C5D5E606163646667686A6B6D6E707172
:1019100073747577787A7B7D7E80818284858788F1
:101920008A8B8D8E909193949597989A9B9D9EA06B
:10193000A1A3A4A6A7A9AAACADAEB0B1B3B4B6B7E3
:10194000B9BABCBDBFC0C2C3C5C6C7C9CACCCDCF5A
:10195000D0D2D3D5D6D8D9DBDCDEDFE1E2E3E5E6D1
:10196000E8E9EBECEEEFF1F2F4F5F7F8FAFBFDFE47
:10197000F10B141D262E363E454D535A60666C728F
:10198000777D82868B9094989CA0A3A7AAAEB1B4D1
:10199000B7BABCBFC1C4C6C8CACCCED0D2D4D5D7C2
:1019A000D9DADCDDDEE0E1E2E3E4E5E6E7E8E9EA16
:1019B000EBECECEDEEEFEFF0F0F1F2F2F3F3F4F428
:1019C000F5F5F5F6F6F7F7F7F8F8F8F8F9F9F9F9A3
:1019D000FAFAFAFAFBFBFBFBFBFCFCFCFCFCFCFC54
:1019E000FDFDFDFDFDFDFDFDFDFDFEFEFEFEFEFE21
:1019F000FEF4EBE2D9D1C9C1BAB2ACA59F99938DDF
:101A000088827D79746F6B67635F5C5855514E4B6C
:101A1000484543403E3B39373533312F2D2B2A285B
:101A200026252322211F1E1D1C1B1A1918171615E7
:101A3000141313121110100F0F0E0D0D0C0C0B0BB5
:101A40000A0A0A090908080807070707060606061A
:101A50000505050504040404040303030303030349
:101A6000020202020202020202020101010101015C
:101A7000010BFEF8ECDCC7B0977D644D3725160BE3
:101A8000040102060D1723313F4E5C6A76818A916C
:101A90009699999895918B857E78716B65605D5A62
:101AA0005858595A5D6064686D72767B7F8285886C
:101AB0008A8B8C8C8B8B8A888785848381818080BC
:101AC0008080818283848688898B8D8F9092939485
:101AD0009596979798989898989899999999999A86
:101AE0009A9B9B9C9D9E9FA0A1A2A3A4A5A6A7A7ED
:101AF000A8A9A9AAABABACACADADAEAEAFAFB0B020
:101B0000B1B2B2B3B4B5B5B6B7B8B8B9BABBBBBC6D
:101B1000BDBDBEBFBFC0C1C1C2C3C3C4C4C5C6C6AC
:101B2000C7C8C8C9CACACBCCCCCDCECECFD0D1D1F4
:101B3000D2D3D3D4D5D5D6D7D7D8D9D9DADADBDC36
:101B4000DCDDDEDEDFE0E1E1E2E3E3E4E5E5E6E77C
:101B5000E7E8E9E9EAEBEBECEDEDEEEFEFF0F1F1C0
:101B6000F2F3F3F4F5F5F6F7F7F8F9F9FAFBFBFC05
:101B7000FDFDFE4348515D6C7D8FA2B4C5D5E2EDFD
:101B8000F6FBFEFEFBF7F0E8DFD5CBC1B8B0A9A3AA
:101B90009E9B9A9A9B9EA1A6ABB0B5BABFC4C8CB78
:101BA000CDCFCFCFCFCDCCC9C7C4C1BEBCB9B7B5DF
:101BB000B4B3B3B3B3B4B5B6B8B9BBBCBEBFC0C1A0
:101BC000C1C2C2C2C2C2C1C0C0BFBEBDBCBCBBBB21
:101BD000BABABABABABABBBBBBBCBCBDBDBDBEBE4D
:101BE000BEBEBEBEBEBEBEBEBEBDBDBDBDBDBCBC1E
:101BF000BCBCBCBCB7AEA29382705D4B3A2A1D122E
:101C00000904010104080F17202A343E474F565C8F
:101C10006164656564615E59544F4A45403B3734A1
:101C20003230303030323336383B3E414346484A1A
:101C30004B4C4C4C4C4B4A494746444341403F3E39
:101C40003E3D3D3D3D3D3E3F3F4041424343444498
:101C5000454545454545444444434342424241414C
:101C6000414141414141414141424242424243435B
:101C7000434343430101010101010101010101014C
:101C8000010101010101010101015555555555554C
:101C900055555555555555555555555555555555F4
:101CA00055555555555555555555555555555555E4
:101CB00055555555AAAAAAAAAAAAAAAAAAAAAAAAD8
:101CC000AAAAAAAAAAAAAAAAAAAAAAAAAAAAAAAA74
:101CD000AAAAAAAAAAAAAAAAAAAAAAAAAAAAAAFE10
:101CE000FEFEFEFEFEFEFEFEFEFEFEFEFEFEFEFE14
:101CF000FEFEFEFEFEFEFEFEFEFEFEFEFEFEFEFE04
:101D0000FEFEFEFEFEFEFEFEFEFEAAAAAAAAAAAAEB
:101D1000AAAAAAAAAAAAAAAAAAAAAAAAAAAAAAAA23
:101D2000AAAAAAAAAAAAAAAAAAAAAAAAAAAAAAAA13
:101D3000AAAAAAAAAA5555555555555555555555AA
:101D40005555555555555555555555555555555543
:101D50005555555555555555555555555555550187
:101D60000101010101010101010101010101010163
:101D700001010101010101010101121212121212ED
:101D800012122323232323232323233434343434F0
:101D900034343444444444444444444455555555EF
:101DA00055555555666666666666666666777777E4
:101DB00077777777778888888888888888889999D6
:101DC00099999999999999AAAAAAAAAAAAAAAABBD9
:101DD000BBBBBBBBBBBBBBBBCBCBCBCBCBCBCBCBD3
:101DE000DCDCDCDCDCDCDCDCDCEDEDEDEDEDEDEDBC
:101DF000EDFEFEFEFEFEFEFEFEFEEDEDEDEDEDED7A
:101E0000EDEDDCDCDCDCDCDCDCDCDCCBCBCBCBCB45
:101E1000CBCBCBBBBBBBBBBBBBBBBBBBAAAAAAAA26
:101E2000AAAAAAAA99999999999999999988888811
:101E300088888888888877777777777777776666EE
:101E400066666666666666555555555555555544DC
:101E500044444444444444443434343434343434C2
:101E600023232323232323232312121212121212B9
:101E700012010101010100030104020501007F15A7
:101E800002007F2A03007F0004007F0005007F001E
:101E900006007F007800000400010000100001012E
:101EA00000011000001600002A00011600012A009F
:101EB000000000005555F5F5B5B5D5D555AB5559CC
:101EC0009595090949924952494919D56B6B5B5B54
:101ED0007777B76D57576F6FDF7611A9C16F01D153
:101EE000AB028E03000455051C070008AB0A001066
:101EF00055150020AB2A004055550080FFFFAD244A
:101F00002C041404FC03E403CC03B4039C038403F7
:101F10006C0354033C0324030C03F402DC020C03A3
:101F2000C402AC0294027C0264024C0234021C0221
:101F30000402EC01D401BC01A4018C01740124034E
:101F4000B41E540134011401F400D400B4002D3047
:101F50003132333435363738390020434323204477
:101F60004423204520464623204747232041412340
:101F700020420000000000000000004C004E008DD8
:101F800000930006010A012A0179009E00BD00129B
:101F9000016E010D0123011D01000000002A015204
:101FA000014201390100003E010000000005002A45
:101FB0000100FF10000000005801000100007F0137
:101FC00000FF11010001005801000203DC240100A0
:101FD000FF0E020002005801000303C0400100FF91
:101FE0000F030003005801000405002A0100FF123E
:101FF000000000005901000500007F0100FF1301EF
:102000000001005901000603DC240100FF14020056
:1020100002005901000703C0400100FF150300033F
:10202000005901000801003F0100FF16C300040031
:102030005A0100090600050100FF17C40006005AF6
:1020400001000A01003F0100FF18460008005A0184
:10205000000B07000A0100FF19000000005A0100F0
:102060000C01003F0100FF1A050005005A01000D98
:1020700001003F0100FF1B610061005A01000E01D9
:10208000003F0100FF0CC700C7005A01000F01000C
:102090001F0100FF0DC800FC005A01001000007F66
:1020A0000100FF4AFD00FD005C01001101003F013D
:1020B00000FF47090009005C01001208000201004E
:1020C000FF1C0A000A005C01001300007F0100FFF2
:1020D0001DFD00FD005D01001401003F0100FF1E19
:1020E000090009005D0100150800020100FF1F0A38
:1020F000000A005D01001601003F0100FF030B0014
:102100000B005C01001701003F0100FF090C000CEF
:10211000005C0104000200020100FFFF1500150031
:102120000000001800007F03080049CB000F005E8C
:1021300001001900007F0308004B100010005E0131
:10214000001A00007F03080046110011005E010024
:102150001B00007F03080048120012005E01001FF0
:102160000900020308002C130013005B01001D0A84
:10217000008E0308002D140014005B01001C0B00EE
:10218000130308002E000000005B01003100007FF7
:102190000100FF2F14001400160000300B00030193
:1021A00000FF30000000001600040102000D0100D5
:1021B000FFFF1C001B00000000320C00180E030182
:1021C000FF470017001B0000330D00140E0301FF32
:1021D000180018001B00003403C13F0E0301FF4626
:1021E0000008001B0004020200030100FFFF1F00A3
:1021F0001E000000005C0C001E040302FF19001901
:10220000001E00005D0C001E040302FF1A001A00ED
:102210001E00005E0E000A040302FF070007001EF6
:1022200000017000007F0100FF07200020002A004D
:10223000017103FE020100FFFF4B0021002A000193
:102240007203817F0100FF5E030003002A00017317
:102250000100280100FF5F490022002A0001740FDD
:10226000001F0100FFFF260026002A000175040060
:10227000010100FF44230023002A00017601003FF2
:102280000100FF05240024002A000177100004014A
:1022900000FF664A0025002A0001781100050100B0
:1022A000FF67270027000E0101790301040100FFE9
:1022B00068020002000E01017A02001D0100FF69A0
:1022C000280028000E01017B15000E0100FF6A3076
:1022D0000030000E01017C0101200100FFFF3400ED
:1022E00031003A01017D0101200100FFFF3500327C
:1022F000003A01017E0101200100FFFF360033009A
:102300003A01017F1200050100FF6B0A000A002A52
:102310000004030200050100FFFF2A002A0000005C
:102320000200190010060403FF290029002A0002F8
:102330000113007F060403FF2E002E002A00020274
:1023400013007F060403FF2F002F002A0002181439
:1023500027F00100FFFF2B002B006101021916007E
:10236000050100FFFF370037006101021A00007FFE
:102370000100FFFF460008006101021B0100080187
:1023800000FFFF2C002D006101030017000F01006A
:10239000FFFF3F003F00380003011800040100FF69
:1023A000FF40004000380003020400010100FFFF6D
:1023B0003A003A00630103030400010100FFFF3902
:1023C000003900630103040400010100FFFF3B002A
:1023D0003B00630103050400010100FFFF3C003DD9
:1023E00000630103060400010100FFFF3E003E0000
:1023F0006301006803C13F0100FF6C0D000D005C2C
:1024000001006903C13F0100FF6D0E000E005C0179
:1024100003071A00020100FFFF42004200630103AC
:10242000080400010100FFFF4101430063010309AB
:102430001B00C80100FFFF8F019001630101000034
:10244000000220F40C20001F0000000000600000CB
:1024500000000018000028143C002700000028009D
:1024600028002F000000286428003F0000004800DA
:102470000000000100030200030300040000040147
:1024800000050600060C000B0C000C060002123FB3
:102490000E121010042006041003040004050005A9
:1024A0000B000B0C00000000000000000004000402
:1024B00000040004000500050005000600060007F2
:1024C000000700070008000800090009000A000BC7
:1024D000000B000C000D000E000E000F001000118C
:1024E000001200140015001600170019001A001C35
:1024F000001E001F0021002300250028002A002DB7
:10250000002F003200350039003C004000430047F6
:10251000004C00500055005A00600065006C0072CD
:102520000079008000880090009900A200AC00B6FD
:1025300000C100CC00D900E600F300020111012225
:10254000013301450159016E0184019B01B301CDA5
:1025500001E90106022502460269028E02B502DF88
:10256000020B0339036B039F03D60311045004923B
:1025700004D80422057005C4051C067906DD06464C
:1025800007B5072B08A8082D09B9094E0AEC0A93CC
:102590000B450C010DC80D9B0E7A0F671063116D72
:1025A000128713B214EF153F17A3181C1A60484086
:1025B00030242018100C080604030201F000210248
:1025C00000042F42414E4B2F002F484953544F5285
:1025D000592F002F434C49504252442F434C4950ED
:1025E000425244000000010001010100000000000F
:1025F00000000004D42BE029B52BDC296157A52B62
:10260000675700005757EE5B892BC52900EC040083
:10261000010203040506070100F001EC04080D0C9B
:102620000B090A0E0F00000F02EC041011FF121626
:1026300017494A0201F003EC04181E1F1D191A1B4A
:102640001C1302F004EC04FF2021FFFFFFFFFF0337
:10265000020F05EC0422232425262728291403F041
:1026600006EC042A392F302B2C2D2E0704F007EC12
:1026700004313233343536373808040F08D40400B7
:10268000000000000000000604FF09BC043A3B3CC7
:102690003DFFFFFFFF0A05F00AEC043E3F4041FF0B
:1026A000FFFFFF09050F0BA404F0F1F2F3F4F5F6B8
:1026B000F70C06F00C8C0400000000000000000B7A
:1026C000060F0D740400000000000000000D07F06C
:1026D0000E5C0400000000000000000D08F00FEC8C
:1026E0000442434748444546F81008F010EC044BB8
:1026F0004C4DFFFFFFFFF90F08F0114404000000EC
:1027000000000000001108F0796573207C206E6FD6
:10271000006B6E6F6220787C70617274207A7C002E
:10272000706572666F726D616E636520706167655A
:1027300020637573746F6D697A6174696F6E0028B8
:10274000656D7074792920202020202020000075DC
:1027500073652063757272656E74206D756C746933
:102760002061732064656661756C743F006D756CE3
:10277000746900204120207C206120207C203120B1
:10278000207C205F20207C207E20207C207E20203A
:1027900020736176657C6578697400207C20202038
:1027A000696E69747C73656E647C736176657C7632
:1027B000657273696F6E7320206D6F72657C6578CA
:1027C000697400707265667C7E696E697C444941FB
:1027D00047332020202020202020202020202020BF
:1027E000206D6F72657C6578697400534420636165
:1027F000726420492F4F206572726F72007800005A
:1028000000000000000001000A10101001FFFF800E
:1028100080CCCC20200020406080A0C0FF00102091
:102820004080FF80402020202000008040BC643C8D
:1028300064B0643064BC643C64B0643064BC643CC8
:1028400064B064B0E4BC643C64B064306400000014
:1028500000540E4A0E440E3F0E370E2E0E240E1B51
:102860000E140E0A0E050EFC0DF30DEA0DE10DDA45
:102870000DD40DCC0DC40DBC0DB70DB00DA60D9F24
:102880000D930D8F0D8B0D800D790D800D700D69E1
:102890000D620D5B0D540D4D0D420D3A0D350D2B96
:1028A0000D230D1B0D160D120D0D0D070D030DFE45
:1028B0000CF90CF00CE70CDE0CD90CD40CCF0CC8C6
:1028C0000CC30CBE0CB90CAD0CA80C9E0C920C8663
:1028D0000C7C0C780C710C630C5E0C590C540C4F76
:1028E0000C4B0C460C410C3C0C380C350C300C2CB1
:1028F0000C250C1C0C170C120C0B0C040CFD0BF60D
:102900000BED0BE40BDB0BD20BC80BC40BC10BBBE9
:102910000BB70BB10BAB0BA60B9F0B990B910B8B52
:102920000B850B7F0B7A0B730B6D0B670B5F0B57D4
:102930000B4F0B460B410B370B300B2B0B260B2190
:102940000B190B150B110B0D0B080B170C030BFEC2
:102950000AF90AF40AEF0AEA0AE50AE00ADB0AD6EB
:102960000AD10ACC0AC70AC20ABD0A380CB80AB092
:102970000AAC0AA70AA20A9D0A980A930A8E0A8933
:102980000A840A7E0A770A720A6C0A680A630A5E77
:102990000A590A540A4F0A4A0A450A400A3B0A36AB
:1029A0000A310A2C0A270A230A1E0A190A140A0FD6
:1029B0000A0A0A050A000AFB09F609F109EC09E707
:1029C00009E309DF09DB09D809D509D009CB09C614
:1029D00009C109BC09B709B309AE09F609AA09A5D5
:1029E00009A0099B09960991098C098709450A8361
:1029F000097E09790973096D09670961095B095540
:102A0000094F09480941093A0933092C09250923C5
:102A10000A1E0A1E091709100909090309000AFB01
:102A200009B10BFC08F608F008EB08E608E108DD40
:102A300008D908D108C908C308BD08B508AD08B34E
:102A400009AE09B10BA608A509A00896089609DAEF
:102A50000DD40DC40D4F0983098F0888088508829D
:102A6000087F087C0877086F0867085E0855082308
:102A70000D070D4B08380C470842083D083908354A
:102A800008AC0A32082F082B08270822081D08184E
:102A9000080E0807080108FE07F907F107EA07FC16
:102AA00008E407E007DC07D807D407D007CC07C83D
:102AB00007C407C007BC07B707B207AD07A807A33D
:102AC000079E0799078F0785070108800779076F19
:102AD00007650760075B07560751074C0747074222
:102AE000073D07380733072E07290724071F071A52
:102AF00007150710070A070207FD062708F706F063
:102B000006E306D606D006CC06C306BA06B106A56D
:102B1000069F0699068D0686067B066D066006569C
:102B20000651064B0642063A06340630062A0625AA
:102B300006190612060C060506FD05F505EF05E962
:102B400005E305DB05D505D005C305BB05B105A724
:102B500005A00599058C0580057405690560055576
:102B6000054D0545053E05320525051A0514050FD9
:102B70000504056578697400636C6B3A667700201C
:102B80002D2D00415544200069646C7569206C6FDF
:102B9000647361767379737364746D6964005253FE
:102BA0005420004D494420004C4F57200052414DC5
:102BB00020006578697400696E7374616C6C0075CF
:102BC0007067726164650075706772616465004169
:102BD0004C4C00706F7274203120646576696365B7
:102BE000203F2020004B5A616D62696B61002F56B7
:102BF0004F494345242E42494E002F414D42494BF7
:102C0000412E42494E002F564F494345242E4249FA
:102C10004E003C2D6261636B006D6F72652D3E004E
:102C200007206E6F7465200776656C6F6369747931
:102C30002007737465707365712031077374657054
:102C4000736571203200636F70797C737761707C7B
:102C500070617374652020202020203C3C207C2063
:102C60003E3E207C6B6565707C6578697400766596
:102C70007273696F6E00766F696365636172640079
:102C8000000102030405060708090A0B0C0D0E0FCC
:102C90001011121314151617191A1B1C1F1EFF1DD5
:102CA000191A1B1C1F1EFF1D191A1B1C1F1EFF1D9E
:102CB00021202324252324252324252324252324DC
:102CC00025232425232425232425232425232425C3
:102CD00023242523242523242523242527282927A5
:102CE0002829272829272829494AFFFFFFFFFFFF16
:102CF0002A2B2C2D2E2F30313233343536373839BC
:102D000000000000000000000000000000000000C3
:102D100000000000000000000000000000000000B3
:102D200000000000000000000000000000000000A3
:102D30000000000000000000000000000000000093
:102D4000FFFFFFFFFFFFFFFFFFFFFFFFFFFFFFFF93
:102D5000FFFFFFFFFF1011160106071E30FFFFFFE8
:102D60001CFFFFFFFFFFFFFF1C20080C0D191A1BA3
:102D70001CFFFFFFFFFF1A1B1CFFFF31FFFF1A1B89
:102D8000FFFFFF16FF30FF2AFF17FFFF0E0F0203A2
:102D900000010405060708090A0B0C0D121314158F
:102DA000FFFFFFFFFFFFFFFFFFFFFFFF1D1E1F20B5
:102DB00021FFFFFF1D1E1FFFFFFFFFFF1D1E1FFF47
:102DC000FFFFFFFF2FFF1B111C19101AFFFF1BFF36
:102DD0001C19FF1AFFFF1BFF1C19FF1AFFFF2C2DE8
:102DE000FFFFFFFFFFFF313233343539494AFFFF20
:102DF00087619F6611241FBECFEFD0E1DEBFCDBF3C
:102E000011E0A0E0B1E0E2E9F0ED02C005900D9222
:102E1000AC33B107D9F72FE0ACE3B1E001C01D92AC
:102E2000AA3DB207E1F716E1C9EFD6E104C0219748
:102E3000FE010E941667C83FD107C9F70E949B6137
:102E40000C940B680C9400008FEF8EBD0DB407FE40
:102E5000FDCF8EB508950F931F93CF93DF938C0111
:102E6000EB0184E18093D704EFDF8F3F39F4809149
:102E7000D7048111F9CF90E080E027C08E3FD9F7C9
:102E8000F8018FEF8EBD0DB407FEFDCF8EB58083A8
:102E90008FEF8EBD0DB407FEFDCF8EB581838FEF12
:102EA0008EBD0DB407FEFDCF8EB582838FEF8EBD34
:102EB0000DB407FEFDCF8EB58383249734962097FB
:102EC00001F7C2DFC1DF81E090E0DF91CF911F9178
:102ED0000F9108952C9AB8CF82E38093D604B4DF83
:102EE000B3DF8F3F39F08091D6048111F9CF90E0A4
:102EF00080E0089581E090E008951F93CF93DF93E1
:102F0000182FD92FC62FE8DF9C01892B69F1CEBD80
:102F10000DB407FEFDCF21E030E0CD3F29F1E12FD8
:102F2000FD2FCF019E5F20812EBD0DB407FEFDCF8A
:102F300021812EBD0DB407FEFDCF3296E817F907AB
:102F400091F78FEF8EBD0DB407FEFDCF8FEF8EBDD5
:102F50000DB407FEFDCF78DF8F7141E090E0853042
:102F600009F040E0242F392FC901DF91CF911F9143
:102F70000895CF93DF932C98AFDFEC01892B29F4D0
:102F8000A9DFCE01DF91CF910895C1E0D0E0F9CF64
:102F9000CF92DF92EF92FF92CF93C82F6A017B010D
:102FA00087FF09C040E050E0BA0187E3F1DF8230DB
:102FB00008F03CC0CF778EDFDCDF892B09F43CC002
:102FC00043DF8C2F80648EBD0DB407FEFDCF8F2DA7
:102FD0009927AA27BB278EBD0DB407FEFDCFC701D9
:102FE000AA27BB278EBD0DB407FEFDCFBB27AF2D93
:102FF0009E2D8D2D8EBD0DB407FEFDCFCEBC0DB424
:1030000007FEFDCF85E9CC2321F087E8C83009F021
:1030100081E08EBD0DB407FEFDCFCC3009F414DF86
:10302000CAE012DF87FF02C0C150D9F7CF91FF90ED
:10303000EF90DF90CF9008958FEFF8CFCF92DF928F
:10304000EF92FF920F93CF93DF93EB0169017A0127
:1030500081114FC0002309F44CC08091180180FDFC
:103060004AC08091180182FD48C08091D80483FD38
:1030700007C099E0CC0CDD1CEE1CFF1C9A95D1F723
:103080000130C9F4B701A60188E182DF81112FC0A8
:103090006EEFCE0132DF892B09F000E01BDF81E00B
:1030A000011101C080E0DF91CF910F91FF90EF906F
:1030B000DF90CF900895867031F0402F50E070E09F
:1030C00060E087E965DFB701A60189E161DF811171
:1030D000E5CF6CEFCE0111DF892B19F0DE5F0150D7
:1030E000C1F76DEF90E080E008DF892BB9F601E0D1
:1030F000D5CF84E0D8CF83E0D6CF82E0D4CF0F9372
:10310000CF93DF93EB01E42F952FA9016E2F792F39
:1031100081113BC0002309F438C08091180180FD63
:1031200036C08091D80483FD07C089E0440F551F45
:10313000661F771F8A95D1F70130A1F481E128DF5E
:10314000811107C060E072E0CE0185DE892B09F0B5
:1031500000E0C0DE81E0011101C080E0DF91CF918D
:103160000F91089582E114DF8111F3CF60E072E0E6
:10317000CE0171DE892B19F0DE5F0150B9F740E016
:1031800050E0BA018CE004DFE4CF84E0E7CF83E0D5
:10319000E5CFA4E0B0E0EFECF8E10C944B678111CF
:1031A00099C08091180181FF06C080911801249672
:1031B000E8E00C94676782E08093D7048091D7049D
:1031C0008111FCCF82E58CBD1AE03EDE1150E9F79B
:1031D00040E050E0BA0180E0DBDE082F813009F0EA
:1031E00067C084E68093D7044AEA51E060E070E06B
:1031F00088E0CEDE813009F03BC08E010F5F1F4FAB
:103200006E0185E0C80ED11C78011EDEF7018193A6
:103210007F01EC15FD05C9F78B81813009F048C0AD
:103220008C818A3A09F044C08091D704882341F008
:1032300040E050E060E070E489EAAADE8111F4CF5A
:103240008091D7048823A1F140E050E0BA018AE3DD
:103250009FDE81112DC0F8DDF80181938F01EC15FF
:10326000FD05C9F7898114E086FF23C01CE021C059
:1032700040E050E0BA0189EA8BDE11E0823010F4C0
:1032800012E009EA8091D704882339F040E050E049
:10329000BA01802F7DDE8111F5CF8091D70488237C
:1032A00039F040E052E060E070E080E171DE8111D1
:1032B00010E01093D8040EDE80911801112331F034
:1032C0008E7F8093180180E58CBD6FCF81608093E5
:1032D00018016BCF81E06BCFFC01309791F020811A
:1032E000222379F0268137812617370751F481810F
:1032F000811105C090911801892F817090FD83E0A4
:10330000089589E008950F93CF93DF93EC019A011C
:10331000AB01BC01625D7F4F01E08981F0DE81116C
:1033200026C0FE01E45DFD4F2081318125353A4AFA
:1033300001F5E85CF140408151816281738177271A
:10334000463451446445710571F0C058DF4F4881DF
:1033500059816A817B81772781E0463451446445F5
:10336000710509F480E0DF91CF910F91089583E01A
:10337000FACF82E0F8CFA2E1B0E0E1ECF9E10C9401
:103380004167DC019B01142FED91FC911197808125
:10339000082E000C990BC0978A30910568F0409177
:1033A0005B0550915C055A8B498BD9014D935C9319
:1033B000452B61F41CE01CC041814A3381F73296F1
:1033C000ED93FC93892B59F31BE012C0E989FA892C
:1033D0008081882391F0818181110FC08091180133
:1033E00080FD0BC0112321F0182F147082FD1AE00C
:1033F000812F6296E2E10C945D67A989BA891C92DB
:1034000011961C9280E0C5DE80FD05C2112311F0EB
:1034100082FDEDCF40E050E0BA0189899A8973DFDF
:10342000182F813009F0B9C1E989FA89E051FE4FBE
:103430008081811102C01DE0DBCFE989FA89EC505F
:10344000FE4F80809180A280B380B501A40189895C
:103450009A8959DF182F133009F4DFC11111EBCF0E
:10346000E989FA8981AD92AD8115924021F7E98908
:10347000FA89EC5BFF4F40805180712C612C411424
:10348000510441F4E989FA89EE5AFF4F4080518096
:1034900062807380A989BA895A964D925D926D9225
:1034A0007C925D97DE964C91DE9713964C93139722
:1034B0008FEF840F823008F0BECFDB960C91DB9744
:1034C00012960C931297002309F4B5CF202F30E009
:1034D000C901019780239323892B09F0ACCFFD010B
:1034E000FF962080318019963C922E921897C10148
:1034F0008F709927892B09F09ECF3296C080D1809A
:10350000F12CE12CC114D10441F4E989FA89E25B80
:10351000FF4FC080D180E280F380A989BA89DC9610
:10352000ED91FC91309709F486CFA42FB0E0A30170
:1035300092010E9437676D877E878F87988B9F01E6
:1035400050E040E029873A874B875C87C10164E0FF
:10355000969587956A95E1F7280F391F411D511DF2
:10356000DA01C9012D853E854F855889280F391FFD
:103570004A1F5B1F2D833E834F835887C216D30695
:10358000E406F50608F457CFD701C601821B930B5A
:10359000A40BB50B89839A83AB83BC83C02ED12C3B
:1035A000F12CE12CBC01CD01A70196010E94D86647
:1035B00089819A81AB81BC818C159D05AE05BF05C3
:1035C00008F439CF263F9FE039074105510508F43B
:1035D000E8C0263FAFEF3A074105510508F4E4C0C3
:1035E000B3E0B98369017A0182E0C80ED11CE11C05
:1035F000F11CA989BA895696CD92DD92ED92FC9282
:1036000059978D819E81AF81B885880D991DAA1D1E
:10361000BB1DE989FA8986A397A3A0A7B1A78985CD
:103620009A85AB85BC85880D991DAA1DBB1D868F0B
:10363000978FA0A3B1A3F981F33009F0B8C021148A
:10364000310409F0F8CEE989FA89E65AFF4F808102
:103650009181A281B381E989FA8982A393A3A4A36A
:10366000B5A342E0CC0CDD1CEE1CFF1C4A95D1F743
:103670003FEFC30E31E0D31EE11CF11C89E0F6944C
:10368000E794D794C7948A95D1F74C145D046E04DF
:103690007F0408F4D0CE8FEF9FEFDC01E989FA892F
:1036A00086879787A08BB18B128613861486158622
:1036B000B981B33009F057C01582E25AFF4F8081BB
:1036C0009181A5019401280F391F411D511DA98920
:1036D000BA8952962D933D934D935C93559701E093
:1036E000BD01625D7F4F11968C9109DD81113BC058
:1036F000E989FA89E45DFD4F8081918185359A4A97
:1037000091F5E989FA8986A597A5A0A9B1A982357D
:103710009245A146B14439F5E989FA89EE5EFD4F3B
:1037200080819181A281B38182379247A144B146C1
:10373000D1F4E989FA89E65EFD4F80819181A28109
:10374000B381E989FA8982879387A487B587EA5E7E
:10375000FD4F80819181A281B381E989FA898687B1
:103760009787A08BB18BE981A989BA89EC93809165
:10377000D4049091D50401969093D5048093D404F9
:1037800017969C938E9316979A961D921D921D9252
:103790001C929D9714961C922BCE812C912C540137
:1037A0005ACEE1E0E9831ECFF2E0F9831BCF21146A
:1037B000310409F440CE2D853E854F855889820F0E
:1037C000931FA41FB51FE989FA8982A393A3A4A319
:1037D000B5A3F981F23029F4CC0CDD1CEE1CFF1CE2
:1037E00047CFA3E0B0E0A70196010E9437676D8341
:1037F0007E838F839887DC01CB01B695A79597953B
:10380000879521E0C222DD24EE24FF24C80ED91EB4
:10381000EA1EFB1E2DCF13E0EBCD11E0E9CDA4E0B5
:10382000B0E0E5E1FCE10C945167FC019A01AB01C9
:10383000225031094109510986899789A08DB18D9E
:103840000297A109B109281739074A075B0700F554
:10385000A281B0E00E94376769837A838B839C835F
:1038600086A197A1A0A5B1A529813A814B815C8150
:10387000280F391F4A1F5B1F29833A834B835C83C0
:1038800069817A818B819C812496E2E00C946D673A
:1038900019821A821B821C82F3CF4F925F926F9221
:1038A0007F92AF92BF92CF92DF92EF92FF920F93EF
:1038B0001F93CF93DF93EC016A017B014AA45BA4C1
:1038C0006CA47DA44C145D046E047F0481F480E03C
:1038D000DF91CF911F910F91FF90EF90DF90CF90EC
:1038E000BF90AF907F906F905F904F9008958C81C4
:1038F000811114C0C114D104E104F10441F301E0C9
:10390000A7019601BE01625D7F4F8981F8DB8111BD
:1039100011C0CAA6DBA6ECA6FDA6DACF5E018EE238
:10392000A80EB11C01E0A3019201B501898186DBDB
:10393000882311F081E0CCCF1C828E8D9F8DA8A1B1
:10394000B9A14A8D5B8D6C8D7D8D840F951FA61F4F
:10395000B71F481659066A067B0660F61B811230AF
:1039600048F28A8D9B8DAC8DBD8D480E591E6A1E06
:103970007B1E01E0A3019201B50189815FDB11503B
:10398000EECFB0E0A0E0E7ECFCE10C944367EC0183
:103990006A017B01480159018881823009F464C0C1
:1039A000833009F481C0813009F0BCC08A011695CA
:1039B0000795040F151FC801892F992786954E8DED
:1039C0005F8D68A179A1480F591F611D711DCE013E
:1039D00064DF81113BC0882DF801F170EC0FFD1FF1
:1039E0002601370121E04222552466247724C0FEB7
:1039F00007C086A58F7090E1899E90011124822BCB
:103A000086A70F5F1F4F81E08C83C801892F9927FC
:103A100086954E8D5F8D68A179A1480F591F611D54
:103A2000711DCE013ADF811111C01170FE01E00F4E
:103A3000F11F411451046104710479F064E0B694FB
:103A4000A794979487946A95D1F786A691E09C8372
:103A5000CDB7DEB7E0E10C945F6796A5907FA92D06
:103A6000AF708A2E892AF1CF77276F2D5E2D4D2DCD
:103A70008E8D9F8DA8A1B9A1480F591F6A1F7B1F6A
:103A8000CE010BDF8111E2CFCC0CDD1CEE1CFF1C44
:103A9000E894C0F8B1E0DB22EE24FF24FE01EC0D37
:103AA000FD1D06A797A6D2CF8E8D9F8DA8A1B9A187
:103AB00037E076956795579547953A95D1F7480F32
:103AC000591F6A1F7B1FCE01E8DE8111BFCF92E034
:103AD000CC0CDD1CEE1CFF1C9A95D1F72CEFC222FA
:103AE00021E0D222EE24FF24F601BE96EC0FFD1F4A
:103AF0009381428150E070E060E0BA01552744278D
:103B0000792BCC0EDD1E442755276627707F842A2B
:103B1000952AA62AB72AD6019E968C929182A282D5
:103B2000B38294CF82E092CFAF92BF92CF92DF92D6
:103B3000EF92FF921F93CF93DF93EC016A017B0119
:103B400082E0C816D104E104F10408F4BDC08E89F6
:103B50009F89A88DB98DC816D906EA06FB0608F01C
:103B6000B3C08881823009F452C0833009F46FC039
:103B70008130A9F45A01B694A794A40EB51EC501CC
:103B8000892F992786954E8D5F8D68A179A1480F61
:103B9000591F611D711DCE0180DE882321F06FEF5A
:103BA0007FEFCB0128C0F501F170EC0FFD1F16A5CA
:103BB0008FEFA81AB80AC501892F992786954E8DCF
:103BC0005F8D68A179A1480F591F611D711DCE013C
:103BD00064DE8111E4CF81E0B822CA0DDB1D8EA521
:103BE000782F612FC0FE11C0B4E076956795BA9525
:103BF000E1F790E080E0DF91CF911F91FF90EF908F
:103C0000DF90CF90BF90AF9008957F70F2CF77276D
:103C10006F2D5E2D4D2D8E8D9F8DA8A1B9A1480FC2
:103C2000591F6A1F7B1FCE0138DE8111B8CFCC0C23
:103C3000DD1CEE1CFF1CE894C0F881E0D822EE24C5
:103C4000FF24CC0DDD1D8FA56EA5782FD2CF8E8DD4
:103C50009F8DA8A1B9A1E7E07695679557954795FF
:103C6000EA95D1F7480F591F6A1F7B1FCE0115DE59
:103C7000811195CF82E0CC0CDD1CEE1CFF1C8A95D7
:103C8000D1F78CEFC82281E0D822EE24FF24F60180
:103C9000BE96EC0FFD1F2381628170E090E080E012
:103CA000CB0177276627922BCC0DDD1D2EA5622B2D
:103CB000C180D12CDC2CCC24F12CE12C6C297D2969
:103CC0008E299F299F7097CF61E070E080E090E09F
:103CD00092CFA6E0B0E0EFE6FEE10C944D678C01D8
:103CE0006D837E83ED81FE81DC011596FC93EE935E
:103CF000149716964D915D916D917C911997413075
:103D000051056105710529F482E02696E6E00C94E0
:103D10006967ED91FC9186899789A08DB18D4817CF
:103D200059076A077B0780F7411551056105710541
:103D300009F041C08081833049F442A153A164A1BC
:103D400075A14115510561057105A9F5D8011A96AE
:103D50001D921D921D921C921D97808591852D812B
:103D60003E812817390780F682A193A1A4A1B5A1AD
:103D700044E0369527954A95E1F7820F931FA11DE0
:103D8000B11DF80186879787A08BB18BD801808100
:103D900091818E96ED81FE81EF70FF2725E0EE0F79
:103DA000FF1F2A95E1F7E80FF91F5396FC93EE9356
:103DB000529780E0AACFE280F0E1EF9E70011124DB
:103DC000D8018D919C911197ED81FE81EE15FF0533
:103DD000E8F41A964D935D936D937C931D971FDDC8
:103DE00069837A838B839C838D819E8134E0969551
:103DF00087953A95E1F729813A814B815C81280FBB
:103E0000391F411D511DDA01C901BBCF8DDE462F7F
:103E1000572FBC014F3F2FEF520762077207D1F0B7
:103E2000423051056105710508F46ECFD801ED915E
:103E3000FC9186899789A08DB18D481759076A072B
:103E40007B0708F061CFED81FE81EE19FF09FE834B
:103E5000ED83B6CF81E059CFCF93DF93EC016C8136
:103E60007D8137DF811111C04E855F856889798931
:103E70008881998112DD811108C0EA89FB8995EE5C
:103E80009083E881F98191E09483DF91CF91089547
:103E9000B0E0A0E0EEE4FFE10C944367EC014A01DE
:103EA0005B0181149104A104B104B9F44A845B84D8
:103EB0006C847D84411451046104710449F08E893D
:103EC0009F89A88DB98D481659066A067B06D0F0E1
:103ED000412C512C3201439415C026DE6B017C012C
:103EE00022E0C216D104E104F10408F4A7C08E89CF
:103EF0009F89A88DB98DC816D906EA06FB06D8F0A9
:103F000024013501730162018FEFC81AD80AE80A4B
:103F1000F80A8E899F89A88DB98DC816D906EA0638
:103F2000FB06A8F022E0421651046104710450F42B
:103F3000C12CD12C7601C701B601CDB7DEB7E0E1C7
:103F40000C945F6722E0C22ED12CE12CF12CB7013A
:103F5000A601CE01E9DD462F572FBC0141155105C1
:103F600061057105C1F04F3F8FEF5807680778076B
:103F700029F4CC24CA94DC2C7601DDCF41305105E4
:103F80006105710509F45AC0C414D504E604F704A8
:103F900009F0BACFCDCF22E0C216D104E104F1047A
:103FA00008F44CC08E899F89A88DB98DC816D90692
:103FB000EA06FB0608F042C00FEF1FEF2FEF3FE0CD
:103FC000B701A601CE01DDDC811135C08114910459
:103FD000A104B104C9F4CA86DB86EC86FD868E8511
:103FE0009F85A889B9898F3F2FEF9207A207B20753
:103FF00009F4A1CF0197A109B1098E879F87A88BEA
:10400000B98B81E08D8397CF82E088169104A1045B
:10401000B104A0F08E899F89A88DB98D8816990664
:10402000AA06BB0658F497018601B501A401CE018A
:10403000A8DC882381F2813009F49BCFC12CD12CDC
:104040007601C39478CF4F925F926F927F928F9256
:104050009F92AF92BF92CF92DF92EF92FF921F9307
:10406000CF93DF93CDB7DEB72A970FB6F894DEBFB4
:104070000FBECDBF6B017C0180918B0714E18823BB
:1040800009F451C160918E0770918F0780918C0760
:1040900090918D0721D9182F811145C1209190074A
:1040A00027FD33C18091960790919707A0919807BB
:1040B000B09199078C159D05AE05BF0520F421FD33
:1040C00002C06C017D018091920790919307A091AD
:1040D0009407B0919507109292071092930710924F
:1040E000940710929507C114D104E104F10409F07A
:1040F00045C0C12CD12C76018091920790919307F5
:10410000A0919407B0919507AC01BD01517066274D
:104110007727452B462B472BA9F04091A2075091BA
:10412000A3076091A4077091A5074C155D056E0566
:104130007F0541F0C092A207D092A307E092A407A6
:10414000F092A507409196075091970760919807C4
:1041500070919907481759076A077B0708F0E3C071
:104160008093960790939707A0939807B093990729
:1041700080919007806280939007D5C020918C0732
:1041800030918D073A872987F9018280912CB12CD3
:10419000A12C29E0880C991CAA1CBB1C2A95D1F7DC
:1041A0000097A105B10509F48FC09C01AD01215014
:1041B00031094109510929833A834B835C83D70133
:1041C000C6010197A109B1098D839E83AF83B8878A
:1041D000BC01CD01A50194010E94D86629013A01D4
:1041E00069817A818B819C81A50194010E94D866A6
:1041F000421653066406750608F466C08827992798
:10420000DC0188199909AA09BB0929813A814B81E6
:104210005C8182239323A423B523809392079093F8
:104220009307A0939407B0939507C81AD90AEA0A8E
:10423000FB0A40919E0750919F076091A0077091E3
:10424000A107411551056105710509F452CF8C1480
:104250009D04AE04BF0408F48EC080919207909133
:104260009307A0919407B09195078C0D9D1DAE1DED
:10427000BF1D8093920790939307A0939407B093E8
:104280009507D701C6019170AA27BB27892B8A2BD6
:104290008B2B09F42ECF80918C0790918D07BFDA7C
:1042A000462F572FBC01411551056105710541F19C
:1042B00089E0F694E794D794C7948A95D1F7C40E11
:1042C000D51EE61EF71E18CF40919A0750919B0706
:1042D00060919C0770919D0741155105610571051D
:1042E00009F040C040E050E0BA0189859A85D0DDF0
:1042F000462F572FBC01413051056105710539F436
:104300008091900780688093900712E00CC04F3F27
:104310003FEF530763077307E9F4809190078068C4
:104320008093900711E0812F2A960FB6F894DEBF94
:104330000FBECDBFDF91CF911F91FF90EF90DF9027
:10434000CF90BF90AF909F908F907F906F905F9035
:104350004F90089540939A0750939B0760939C0752
:1043600070939D0740939E0750939F076093A0070B
:104370007093A10766CF80918C0790918D07209153
:10438000900721FF0CC084DD462F572FBC0141153B
:1043900051056105710539F4750164015ECFC4DB17
:1043A000462F572FBC014F3F8FEF580768077807FC
:1043B00009F4B3CF423051056105710508F4A0CF6F
:1043C000E0918C07F0918D0786899789A08DB18D3A
:1043D000481759076A077B0708F092CF40939E075A
:1043E00050939F076093A0077093A1078091920755
:1043F00090919307A0919407B0919507880D991D0E
:10440000AA1DBB1D8093920790939307A0939407D6
:10441000B0939507C818D908EA08FB0818CFB0E090
:10442000A0E0E5E1F2E20C944667EC016B010C813F
:104430001D810F5F1F4F31F484E0CDB7DEB7EDE093
:104440000C9462674E855F856889798941155105AD
:104450006105710589F378018FE0E822FF24E114FA
:10446000F104D1F4888199814F5F5F4F6F4F7F4F87
:104470004E875F87688B798B4A855B856C857D85E8
:104480004115510561057105B9F4DC0118968D914E
:104490009C910817190780F61D830C8388819981E8
:1044A0008E9625E0EE0CFF1C2A95E1F7E80EF91E2A
:1044B000FB8AEA8A80E0C1CFFC0122812150330BC4
:1044C000F801A4E0F695E795AA95E1F72E233F239E
:1044D000232B11F729DB4B015C01F2E08F169104CD
:1044E000A104B10410F482E0A8CF8FEF88169806DB
:1044F000A806B80611F481E0A0CF88819981DC017B
:1045000056964D915D916D917C91599784169506C3
:10451000A606B70608F44CC0C114D10409F48CCF28
:104520004A855B856C857D85B3DC4B015C0187E04A
:1045300081149104A104B10409F47FCFB1E08B167A
:104540009104A104B10479F2EFEF8E169E06AE0637
:10455000BE0689F240E050E0BA01888199819DD978
:10456000782E8111C8CF28813981C9018E96225DAC
:104570003D4F8217930751F5C880D980B501A4013A
:10458000C6014DD9F60162A773A784A795A7E88154
:10459000F98182817816F0F082A593A5A4A5B5A52E
:1045A00087199109A109B10982A793A7A4A7B5A763
:1045B0008A869B86AC86BD86B501A40188819981D7
:1045C0002ED96E877F87888B998B66CFDC011D92F1
:1045D000CD01CFCF81E0848340E050E0BA01CF012C
:1045E0005CD9811188CFE881F98182A593A5A4A522
:1045F000B5A50196A11DB11D82A793A7A4A7B5A734
:104600007394C5CF6F927F928F929F92BF92CF92F9
:10461000DF92EF92FF920F931F93CF93DF93EC0102
:104620007B01DB018C918F3211F08C3519F4BFEFD7
:10463000EB1AFB0A1E821F8218861986F7018081F9
:10464000803208F0A6C070E060E0CE0142DB1B8A39
:104650001A8ADF91CF911F910F91FF90EF90DF9019
:10466000CF90BF909F908F907F906F9008953F0163
:1046700091C040E2DC014D93CD019BC04FEB410F57
:104680004A3148F46894B1F8AF01480F591FDA0174
:104690000C93019699C04FE9410F4A31A8F76894ED
:1046A000B0F800EE010FF0CFE60EF71E40E0113239
:1046B00008F444E0892B09F4AFC08081853E11F4F1
:1046C00085E0808328303105A1F5BB0CBB0C8B2D18
:1046D0008C70843009F44860438770E060E0CE015C
:1046E000F8DA811130C04E855F85688979898881C3
:1046F0009981D3D8811127C0EA89FB8980818823D9
:1047000009F19385892F887093FD0EC02C899D89AE
:10471000AF01455F5F4FE417F507A9F0A22FB92F4E
:1047200021919D91291759F070E060E0CE0177DE6C
:10473000D8CF8B2D8370813051F64061C8CF2A2F9E
:104740009B2FE9CF84E0EC89FD899385882339F09C
:10475000843009F07ECF92FD7CCF85E07ACF92FD48
:1047600078CFEA89FB89838584FFF7CF848995898F
:10477000B0E0A0E0DC0199278827428D538D70E0DE
:1047800060E0842B952BA62BB72B8E839F83A88765
:10479000B98737017301F30181918F3209F467CF33
:1047A0008C3509F464CFEC89FD899F01255F3F4F6B
:1047B000CF012817390709F05CCF90E080E070E066
:1047C00060E028E030E0B12C6F5F7F4FD3011D9196
:1047D0003D01012F113208F467CF1F3209F464CF75
:1047E0001C3509F461CF1E32C9F082179307A0F47B
:1047F00017FD12C0C12ED12C4DE2842E41E0942E23
:10480000D4014D914D01442309F438CF042E000CFE
:10481000550BC416D506A1F786E01BCF283031050D
:10482000D9F7BB0CBB0C88E090E02BE030E0CCCF9C
:10483000B0E0A0E0EEE1F4E20C944767EC016A011D
:104840007B0122E0C216D104E104F10408F45FC048
:104850008E899F89A88DB98DC816D906EA06FB06F0
:1048600008F055C046015701B701A601CE015CD939
:104870006B017C01C114D104E104F10431F480E046
:10488000CDB7DEB7ECE00C94636781E0C816D104C5
:10489000E104F104E1F12FEFC216D206E206F206BE
:1048A000C1F182E088169104A104B10480F18E89DF
:1048B0009F89A88DB98D88169906AA06BB0638F57A
:1048C00000E010E09801B501A401CE015AD8811191
:1048D000D7CF8E859F85A889B9898F3F2FEF920703
:1048E000A207B20749F00196A11DB11D8E879F87CF
:1048F000A88BB98B81E08D838E899F89A88DB98D16
:10490000C816D906EA06FB0608F4ACCFB8CF82E099
:10491000B7CF81E0B5CF9B01FC01460F571F24178D
:10492000350709F40895D9018D919D018193F7CF41
:10493000B0E0A0E0EEE9F4E20C9442676C017B0188
:104940004A0180918B0714E1882309F491C0FA0190
:104950001182108260918E0770918F0780918C0771
:1049600090918D070E946C19182F811181C0809140
:10497000900787FD61C0F82FF1703F2E80FF44C182
:104980008091960790919707A0919807B091990709
:104990004091920750919307609194077091950709
:1049A000841B950BA60BB70BA70170E060E0841782
:1049B0009507A607B70708F47C01E114F10409F490
:1049C00057C040919207509193076091940770915E
:1049D0009507DB01CA019170AA27BB27892B8A2B77
:1049E0008B2B09F0DDC0E0918C07F0918D0782815F
:1049F00081502A013B01A9E076946794579447942B
:104A0000AA95D1F7082F042109F040C0452B462B69
:104A1000472BA1F440919A0750919B0760919C0706
:104A200070919D074230510561057105A8F4809190
:104A3000900780688093900712E01AC040919E070B
:104A400050919F076091A0077091A107CF016CD88A
:104A5000462F572FBC01E6CF4F3F8FEF580768070F
:104A6000780761F480919007806880939007132DF8
:104A7000812FCDB7DEB7E1E10C945E6740939E07CE
:104A800050939F076093A0077093A107A0908C0795
:104A9000B0908D0740919E0750919F076091A007AD
:104AA0007091A107C5010E940F1C2B013C0141140C
:104AB00051046104710409F4BACF400E511C611C09
:104AC000711CE11492E0F90608F462C0E701CD2FF1
:104AD000DD27C695F5016281802F90E0AC014C0F77
:104AE0005D1F262F30E06417150618F4E901C81B76
:104AF000D90B0C2FA3019201B601F50181810E940F
:104B00007F188111AFCFE0918C07F0918D078481E0
:104B10008823D9F082A593A5A4A5B5A584199509E4
:104B2000A609B709AE0170E060E084179507A607F3
:104B3000B70758F4BF01625D7F4F982F8827990F00
:104B400040E052E08C0D9D1DE6DEDC2FCC27DD0F12
:104B5000CC0EDD1E8091920790919307A09194074F
:104B6000B09195078C0F9D1FA11DB11D80939207D9
:104B700090939307A0939407B0939507F4018081D5
:104B800091818C0F9D1F91838083EC1AFD0A15CFB4
:104B90004092A2075092A3076092A4077092A507C3
:104BA0002091920730919307317080E092E0821B50
:104BB000930BE7018E159F0508F4EC014091A207C5
:104BC0005091A3076091A4077091A50780918C076D
:104BD00090918D070E944D1C811144CF80919207C6
:104BE00090919307A0919407B09195079170AA278F
:104BF000BB278E9660918C0770918D07680F791F87
:104C0000AE01C60188DEA4CF17E032CF2F923F92CB
:104C10004F925F926F927F928F929F92AF92BF92CC
:104C2000CF92DF92EF92FF920F93CF93DF935C01CD
:104C30006B011A0180918B07C4E1882309F45FC0DE
:104C4000FA011182108260918E0770918F07809116
:104C50008C0790918D070E946C19C82F81114FC04D
:104C60008091900787FD62C181FFD2C18091960734
:104C700090919707A0919807B0919907AC01BD0159
:104C80004C0D5D1D611D711D481759076A077B0793
:104C900008F0F0C08091920790919307A09194073B
:104CA000B0919507409196075091970760919807AA
:104CB00070919907481759076A077B0708F49FC145
:104CC0008091900780628093900719C040919E0761
:104CD00050919F076091A0077091A107D9D8462FE6
:104CE000572FBC0112C14F3FFFEF5F076F077F07D0
:104CF000C9F480919007806880939007C1E08C2F61
:104D0000DF91CF910F91FF90EF90DF90CF90BF9008
:104D1000AF909F908F907F906F905F904F903F905B
:104D20002F90089540939E0750939F076093A0078C
:104D30007093A10780918C0790918D07FC0142A48C
:104D400053A464A475A44091A2075091A307609155
:104D5000A4077091A507441655066606770639F430
:104D600040E050E0BA010E944D1C8111C2CF8090FA
:104D70008C0790908D0740919E0750919F076091FE
:104D8000A0077091A107C4010E940F1C2B013C01D8
:104D9000411451046104710409F4C3C04D0E511C47
:104DA000611C711CC114F2E0DF0608F4C1C0760179
:104DB000EF2CFF24E694F40162818D2F90E0AC018A
:104DC0004E0D5F1D262F30E06417150618F479018B
:104DD000E81AF90A0E2DA3019201B501F4018181AF
:104DE0000E941E18811185CF80918C0790918D07AC
:104DF000FC0142A553A564A575A54419550966098A
:104E000077092701712C612C441555056605770536
:104E100078F4542F4427550FB501640F751F40E0F7
:104E200052E08E9678DDE0918C07F0918D07148228
:104E3000FE2CEE24FF0CAE0CBF1C809192079091CB
:104E40009307A0919407B09195078E0D9F1DA11D0A
:104E5000B11D8093920790939307A0939407B0930A
:104E60009507F101808191818E0D9F1D9183808333
:104E7000CE18DF08409192075091930760919407F4
:104E800070919507C114D10409F404CFDB01CA0164
:104E90009170AA27BB27892B8A2B8B2B09F075C011
:104EA00080918C0790918D07FC01D281D1502A010D
:104EB0003B01E9E07694679457944794EA95D1F7DB
:104EC000D42109F037CF452B462B472B09F0FECED6
:104ED00040919A0750919B0760919C0770919D07A4
:104EE0004115510561057105B1F440E050E0BA018A
:104EF0000E94481F462F572FBC0140939A0750939A
:104F00009B0760939C0770939D07411551056105B0
:104F1000710509F4BFCE413051056105710509F0F5
:104F2000E2CE80919007806880939007C2E0E7CE40
:104F30004091920750919307609194077091950763
:104F40008091960790919707A0919807B091990743
:104F5000481759076A077B0780F040E050E0BA0124
:104F6000C4010E944D1C8111C4CEE0918C07F091C8
:104F70008D0742A653A664A675A64092A20750923A
:104F8000A3076092A4077092A50720919207309121
:104F90009307317080E092E0821B930B76018C15B1
:104FA0009D0508F47C014091A2075091A3076091F0
:104FB000A4077091A50780918C0790918D070E949E
:104FC0004D1C811196CE8091920790919307A091EC
:104FD0009407B09195079170AA27BB278E962091D0
:104FE0008C0730918D07A701B501820F931F93DCC9
:104FF000E0918C07F0918D0781E084831CCF809332
:10500000960790939707A0939807B093990758CE67
:10501000C7E075CE1F93CF93DF93EC0170E060E0A3
:105020000E94691E182F811138C04E855F856889DE
:105030007989888199810E944D1C182F81112DC07A
:10504000EA89FB898081853E59F0882349F061E037
:1050500070E0CE01E4D9E6CFF90111929F0111C0B1
:105060004E855F8568897989888199810E944D1C68
:10507000182F811112C08A899B89AC01405E5F4F55
:105080009C014217530741F76C897D894BE050E042
:1050900042DCE881F98181E08483812FDF91CF9127
:1050A0001F9108954F925F926F927F928F929F927D
:1050B000AF92BF92FF920F931F93CF93DF93CDB721
:1050C000DEB7A4970FB6F894DEBF0FBECDBF9CA38A
:1050D0008BA3F62E10928D0710928C07462F4E71DF
:1050E000BE016F5F7F4FCE0183960E94BB199E0168
:1050F000295E3F4F3E8B2D8B811105C06BA17CA19A
:10510000CE0101967FDA0B891C89811104C001153B
:10511000110509F486E09F2D9C7109F4D3C0882302
:10512000F9F0843049F4CE01019674DF6894F3F805
:105130000B891C898823E1F0A4960FB6F894DEBF92
:105140000FBECDBFDF91CF911F910F91FF90BF9008
:10515000AF909F908F907F906F905F904F90089549
:10516000D8011B968C91817109F0B7C0F3FE4EC037
:1051700080ECF801868788E087878FE8808B8EE354
:10518000818B1386148E158E168E178E84889588C3
:10519000B12CA12C540199248824828D938DB0E0E8
:1051A000A0E0882A992AAA2ABB2A128E138E148A72
:1051B000158A89819A8121E0DC0114962C93149739
:1051C00081149104A104B104E9F09A964D905D9088
:1051D0006D907C909D97B501A4012ADB8111ACCF25
:1051E00089819A81B1E08B1A9108A108B108FC016C
:1051F00082869386A486B586B301A2010E944D1CC7
:1052000081119ACFF3FE02C06894F5F8E981FA8122
:1052100082A593A5A4A5B5A58093A6079093A707FB
:10522000A093A807B093A9071093AB070093AA0710
:10523000F0929007D80154968D919C91B0E0A0E037
:105240005C0199248824D8015A964D915C9170E0B4
:1052500060E0D501C401842B952BA62BB72B80933E
:105260009A0790939B07A0939C07B0939D07D80142
:105270005C964D915D916D917C915F9740939607FF
:10528000509397076093980770939907109292072D
:105290001092930710929407109295071092A2070C
:1052A0001092A3071092A4071092A507F0938D0700
:1052B000E0938C078681978190938F0780938E0768
:1052C00080E03ACF811138CFD8011B968C9184FDB4
:1052D00006C0F1FE97CF80FF95CF87E02DCF84E009
:1052E0002BCFCF93C62F9A01009741F4FA0180E3A8
:1052F0008193C150C1111082CF91089597FF08C0CA
:105300004DE2F90141939F01C15091958195910919
:1053100040E0E42FF0E04F5FEA53FB4F6AE070E0BB
:105320000E94C5668083CB01009799F7842F522F86
:10533000932F882369F08150E52FF92FA82FB0E033
:10534000AA53BB4F9C91905D91935E2F9F2FF1CFFD
:10535000F901E40FF11DC41BCDCFE7EBF4E080EFC2
:1053600087838FE0808381838283848385838683A0
:1053700013820895E091B504F091B6048585E48523
:10538000F0E0E954FB4F8083089508958091CD04A7
:10539000823011F41092CD0481E0089581E00895E7
:1053A0008091CD04882321F01092CD0481E00895EE
:1053B00081E08093CD04FACF80E0089581E00895E4
:1053C00008959091D1042DE531E0929FF001939FD3
:1053D000F00D1124E455F84FE60FF11DE458FF4F8E
:1053E0009081992321F0891718F0891BFCCF80E068
:1053F0000895CF93DF93D82FC62F8091B404D09314
:10540000D304D43068F4815087FD06C0D13009F44C
:1054100045C040F4DD2319F181E0DF91CF9108957B
:10542000D450F2CFD250D230B8F76D2FCADF2091CE
:10543000D104B0E1DB9FB0011124680F711D6F71C1
:105440008DE591E0289FF001299FF00D1124E4558E
:10545000F84FE60FF11DE058FF4FCC0F1DC062E082
:10546000B0DF4091D104E82FF0E0EE0FFF1FB096BF
:10547000EF732DE531E0429FC001439F900D112451
:105480008455984FE80FF92FF11DE058FF4FC6954E
:10549000C85E60816078C62BC083BECF62E091DFBA
:1054A0004091D10450E0D0E0FE01EE0FFF1F90E0EC
:1054B000880F991F80968F7390E06DE571E0469F8D
:1054C0009001479F300D569F300D11242455384FC1
:1054D000820F931FCD2B59F4FC01E058FF4F208120
:1054E0002F7720838F579F4FDC011C9295CFDC01D3
:1054F000A058BF4F2C9120682C938F579F4FE15895
:10550000DC01EC9389CF8091CD04882339F010928F
:10551000CD0484E08093D30481E0089581E08093FA
:10552000CD04FACFCF93DF93D82FC62F8091CD042F
:105530008823A9F18091B4049091D30494300CF4A1
:10554000815087FD2FC062E03CDF9091D104282F6D
:1055500030E0220F331F205E3F4F2F7330E04DE5C8
:1055600051E0949FF001959FF00D1124E455F84F00
:10557000DF01A20FB31FA058BF4F9C9190789D2BC5
:105580009C93E20FF31FEF57FF4F608160786C2B05
:10559000608362E08F5F15DF8093B40481E0DF9168
:1055A000CF91089580E0FBCF80EF8093BD04809180
:1055B0004405882369F0E091B304E83018F08FE0E7
:1055C0008093C504E770F0E0E954FB4F83E08083EB
:1055D0000895D0DEE091B504F091B6048081833067
:1055E000B9F44091D104E091CE042DE531E0429F21
:1055F000C001439F900D11248455984FE80FF92F57
:10560000F11DED51FF4F8081807F8093C504089587
:10561000809144058823D9F38091B3048370B9F74E
:1056200080EFF3CFE091B504F091B604E80FF11DDF
:10563000838190E1980F983058F48F7090E0FC01CE
:10564000EE0FFF1FE80FF91FE45FFA4F848D0895F6
:105650008091D1040895E82F8830C0F48091B5047A
:105660009091B604E80FF92FF11D838190E1980F16
:10567000983050F48F7090E0FC01EE0FFF1FE80FA0
:10568000F91FE45FFA4F858D8E3408F08FEF08958F
:1056900080911501882321F080EF8093BE04089546
:1056A00080EF8093BE0480916F0480FF03C09FE071
:1056B0009093B70481FF03C08FE08093BA040895EC
:1056C00080EF8093BE048FE08093BD0480916304DB
:1056D00081110EC08091620481110BC085E027EB1F
:1056E00034E0F9019FE091939E2F921B9817D0F31D
:1056F000089583E0F4CF80916304811108C0809104
:10570000D3048F5F81708093D30481E0089548DED5
:10571000FCCFE091B504F091B6048381823080F42F
:1057200080EF8093BE048093BF048093C004809375
:10573000C1048093C2048093C3048093C404089579
:1057400080EF8093BD048FE0ECCFE091B504F09141
:10575000B6048381833039F42481660F269F612D3E
:1057600011246093240481E00895482FE091B5044A
:10577000F091B6048381833099F4248180912404CC
:10578000042E000C550B840F952F911D97FD0AC018
:105790002150330B821793070CF49C0120932404AF
:1057A00081E0089520E0FACF10922404089580FF4C
:1057B00017C09091A0032091E1039150921B9F711B
:1057C000C1F39091E103E92FF0E0EE0FFF1FEF55D9
:1057D000FC4F808361839F5F9F719093E1030895E5
:1057E0009091E203209123049150921B9F71C1F389
:1057F00090912304E92FF0E0EE0FFF1FED51FC4FD5
:10580000808361839F5F9F719093230408958091AB
:1058100023049091E203891B8F71C9F78091E10302
:105820009091A003891B8F7191F708951F93CF93D7
:10583000DF93C82F142FD22FBADF612F8C2FB7DF41
:105840006D2F8C2FB4DFDF91CF911F9108950F93AF
:105850001F93CF93DF93C82F162F072FD42FE82F36
:10586000F0E0E451FB4F408360E1620FA0DF602F66
:105870008C2F9DDF612F8C2F9ADF6D2F660F8C2F61
:1058800096DFDF91CF911F910F910895CF93DF9312
:10589000DC0114968C9114978150282F082E000C4F
:1058A000330B982F1296ED91FC91139797FD10C032
:1058B000EF01C20FD31F4881461731F0E80FF11DE9
:1058C00087FDFA9540838150915021503109EACFEC
:1058D0006083DF91CF910895FC01448130E020E0A6
:1058E000822F241758F4A081B181A20FB31F9C917D
:1058F0009F772F5F3F4F6913F3CF08958FEF089580
:1059000047980895449A08958091340390917503BF
:105910008150891B8F730895CF93C82FF5DF823094
:10592000B8F090917503E92FF0E0EB5CFC4F2C2F61
:1059300030E084E0359527958A95E1F72083CF7094
:10594000C1839E5F9F739093750382E0CF9108950A
:1059500080E0FCCF84FD5B9A9BB18295807F9F7035
:10596000892B8BB95A9A0895CF93C82FCDDF8230F7
:10597000A8F080917503E82FF0E0EB5CFC4F9C2FC2
:1059800092959F7090619083CF70C061C1838E5F4C
:105990008F738093750382E0CF91089580E0FCCFF0
:1059A000D9DF88E893E10197F1F75A985B9888E985
:1059B0009AE30197F1F70895CF93C82F82958F70DE
:1059C000EFDF8C2F8F70ECDFCF91089528E2382F16
:1059D000329FC00111248D519D4F0895E091F6042E
:1059E000F091F7048F3F19F080E00995089581E068
:1059F000FCCFA7E0B0E0EFEFFCE20C944E67FC01B7
:105A00008B0187E0DE01119601900D928A95E1F7F6
:105A10001B8289818330B1F038F4823059F0CE0195
:105A20000196F801099502C08430C9F32796E5E094
:105A30000C946A671982CE010196FB01099584E0F6
:105A40008983EDCFCE010196FB010995F12CFA82F5
:105A5000F394FB821982CE010196F801099584E046
:105A60008983CE010196F8010995F6E0FF12EFCF88
:105A7000DDCFFC018081833059F138F4882391F027
:105A80008130D9F090E080E008958430D9F74181E9
:105A90002DE531E0429FC001439F900D1124845EAB
:105AA000974F089541812DE531E0429FC001439F0A
:105AB000900D11248455984F089541812DE531E0D2
:105AC000429FC001439F900D11248C5D974F089514
:105AD0008CE095E00895A6E0B0E0E1E7FDE20C94EB
