:100000000C94C5250C94ED250C94ED250C94ED2550
:100010000C94ED250C94ED250C94ED250C94ED2518
:100020000C94ED250C94682F0C94ED250C94ED2583
:100030000C94ED250C94ED250C94ED250C94ED25F8
:100040000C94ED250C94ED250C94ED250C94ED25E8
:100050000C94ED250C94ED250C94ED250C94ED25D8
:100060000C94ED250C94ED2500000000000000002C
:10007000010101010101020202020303030304045E
:1000800005050506060707080809090A0A0B0B0CEF
:100090000D0D0E0F0F101111121314141516171841
:1000A000191A1A1B1C1D1E1F202122232425272854
:1000B000292A2B2C2D2F30313234353638393A3C21
:1000C0003D3E404143444647494A4C4D4F505254AF
:1000D0005557585A5C5E5F61636566686A6C6E70FE
:1000E00071737577797B7D7FFFFEFCFAF8F6F4F289
:1000F000F0EFEDEBEAE8E6E5E3E1E0DEDDDBDAD9BF
:10010000D7D6D4D3D2D0CFCECCCBCAC9C7C6C5C41C
:10011000C3C1C0BFBEBDBCBBBAB9B8B7B6B5B4B336
:10012000B2B1B0AFAEADACABAAA9A8A8A7A6A5A422
:10013000A3A3A2A1A09F9F9E9D9C9C9B9A999998E6
:100140009797969594949392929190908F8F8E8D8D
:100150008D8C8C8B8A8A8989888787868685858419
:10016000848383828281818002020303040507085D
:100170000A0B0E101215161A1C1E202425282A2CD4
:100180002E31323536393A3C3D4141444547494CA0
:100190004D50515357575B5C5F616366676A6C6E85
:1001A0007171757679797D7E8081858588898C8E5F
:1001B00090919496999A9CA0A1A3A6A8A9AEADB13E
:1001C000B3B4B7B9BABDBEC0C2C4C6C7CACBCDD11D
:1001D000D0D4D7D7DBDCE0E2E4E6E9ECEEEFF3F4F1
:1001E000F6F8F9FBFCFDFDFDFFFDFEFDFCFBF9F85B
:1001F000F6F5F2F0EEECE8E8E3E3DFDCDCD7D7D3AA
:10020000D2D0CDCCC9C8C6C3C3C0BFBCBABAB6B5BC
:10021000B2B1AFACAAA8A6A4A0A09D9A98979393B8
:100220008F8E8B8B878683837F7F7C7A79767472BF
:10023000716E6C6A686563625E5C5B5954555150BF
:100240004D4B49484642433F3E3C3B3836353231C0
:100250002E2C2B272623201F1B1A1714130F0E0CCE
:1002600009090606030402030102030305070A0B3A
:100270000E1013141618191D1C21212426282A2CAF
:100280002E30323336383A3B3F3F434445484B4AA1
:100290004F4F535356585B5B5E60616565686A6C8F
:1002A0006E7072747579797C7E8082848688898D7F
:1002B0008E8F92949698999D9EA0A2A3A7A7AAAC70
:1002C000AEB0B2B4B6B8B9BDBEBFC2C4C6C8CACC5F
:1002D000CFCFD2D4D6D7DADCDFDFE2E5E6E8E9ED4E
:1002E000ECF0F2F5F5FAFAFDFCFFFEFCFBFAF6F590
:1002F000F1F1EEEBEBE7E8E3E4DFDFDDD9D8D7D3CC
:10030000D3D0CECCCBC9C5C5C2BFBFBCBAB8B7B4B9
:10031000B2B1ADADA9A9A6A4A2A09E9D9A989694AB
:1003200092908E8D8989858582807F7B7A7876749C
:1003300072716D6D6A67676461615D5C5B5856548C
:1003400051514E4C4948474342413E3B3B3737337E
:1003500031312E2B2B28262422201D1B1B1717136F
:1003600013110D0C090706030203020405070A0B0B
:100370000E0E13121617191B1E1E22232428292BBA
:100380002C3030343437383C3C3F40434546494AB2
:100390004D4E515255555A595D5E60636367686AA8
:1003A0006C6E7072747678797D7D80828485888A9F
:1003B0008B8E8F929495979A9B9E9FA1A4A5A7AA96
:1003C000AAAEAFB1B3B5B7B9BBBDBFC1C3C4C8C88E
:1003D000CBCCD0D0D2D6D6D8DBDCDFE1E2E4E6E984
:1003E000EBEBEFF0F2F5F6F7FBFCFFFCFCF9F6F5B2
:1003F000F3F2EEEEEAE9E8E5E3E1DFDDDCD9D7D5BB
:10040000D4D1D0CCCCCAC7C6C3C1C0BDBDB8B8B6A4
:10041000B4B1B0ADADA9A8A5A5A1A09E9C9A97978F
:100420009491918E8B8B888684837F7F7C7A79767A
:100430007472716E6D6A69656662605F5D5A585864
:100440005452524E4D4A4A464542423E3E3A39384F
:100450003433312F2E2A2A26262321201C1C19183A
:10046000141510100D0C0908050302030506090BED
:100470000C0F10121517171B1C1E20222426282AC9
:100480002B2E3031343538393B3E3F4143454848C7
:100490004B4D4F51525557585A5E5D6162656569C3
:1004A0006A6C6E6F737475787A7B7E7F82848488C1
:1004B0008A8A8E8F90949597989B9E9DA2A2A4A7BE
:1004C000A9AAACAEB1B2B4B6B8BABCBEC0C1C4C6BB
:1004D000C8C9CBCECFD2D3D5D8D9DADEDFE0E4E4B9
:1004E000E8E7ECECEFF0F3F4F7F8FAFEFDF9F9F6D3
:1004F000F4F2F1EEECEBE9E6E4E3E1DEDDDADAD6A4
:10050000D5D3D1CFCDCBC9C7C5C3C2BFBDBBBAB789
:10051000B6B3B2AFADADA9A8A5A4A2A09E9C9A9770
:10052000979492908E8C8B88868582817E7C7B7955
:10053000767573716E6D6B6966666360605D5B593D
:1005400058555351504D4C49474742433F3E3B3B22
:10055000373634322F2F2C2A28272323201E1C1B0A
:1005600019161413100F0D0B0807040451505150A5
:100570005150505250515353545658585B5E5D621F
:1005800062656668696A6C6C6D6D6E6E6D6F6D6FBD
:100590006E6E6F6F70717273747678797A7E7E7F0B
:1005A000838285858687888888888A878A878A88DB
:1005B0008A888B8B8B8D8E9090939496969A9A9C2A
:1005C0009D9DA09EA1A0A0A1A19FA19FA19FA0A031
:1005D000A1A2A1A3A5A5A7A8ABACADAFB1B2B3B47E
:1005E000B6B5B6B6B6B6B5B6B4B4B4B3B3B3B4B3C1
:1005F000B5B5B7B8BABBBDC0C1C3C5C7C8C9CBC9FB
:10060000CBCBC9C9C9C6C6C4C3C1C1C1BFC1C0C1A2
:10061000C4C6C7CCCED1D5DADBE0E2E4E5E5E5E35C
:10062000E1DAD8CEC8BEB5A89D908376695A4F420C
:10063000362C2219130B08040201020105080B0EC7
:1006400013181B1F25272A2D303132323433333211
:100650003130312F2E302E2F3031333337383A3E70
:100660003E434447484B4C4E4E4F514F524F5050D3
:1006700054535858595A5A5B5A5A5C5C5E616065CB
:100680006365666564676569686B6C6F6E706F70D3
:100690006F71707373757778797A797A7A7A7B7CEF
:1006A0007E7E8281838482848384858588888A8C07
:1006B0008C8C8D8C8D8C8F8E919194949595969534
:1006C00095959798999A9C9D9E9D9E9E9D9DA09F75
:1006D000A2A2A4A6A5A6A6A5A5A6A6A7AAABABAEB0
:1006E000ADADADADACAEACB0B1B1B5B3B5B5B4B305
:1006F000B3B4B5B5B8B9BBBCBBBCBAB9BBB8BCBC6C
:10070000BEC0C2C2C3C1C1C0BEBFC0C3C4C7C9C9C5
:10071000CAC7C6C4C2C4C5C7CBCFD1D1D0CDCBC444
:10072000C5C3C8CCD4DCE1E1DCCEB99F805F4225F3
:100730001405010308111820232323201B1B191B58
:100740001E22252B2B2C2D2B29292A292E2F333500
:1007500037383738373538373B3C3F4143444343DC
:100760004343434646494B4C4F4F4F4F4E505352D5
:100770005456575757595A5B5D5A5E5F60606062C6
:1007800063646564666869676A6B6B6E6B6E6F70D5
:10079000717171737574757677787979797C7C7DF0
:1007A0007C7F7E8180818184848385868787888918
:1007B000888C8B8B8C8D8F8E908F9093929294934C
:1007C00097959598979999999A9C9C9C9C9E9EA088
:1007D000A09EA2A2A2A2A4A3A6A5A5A7A7A8A8A9D5
:1007E000A9AAACABABACADAFAEAEAFB1B0B1B2B02D
:1007F000B5B3B3B4B5B6B6B7B5B8B9B9B8B9BABC8C
:10080000BCBABBBDBFBDBEBDBFC2C0BFBFC3C4C1FC
:10081000C2C2C5C6C4C4C3C9C7C7C4C8C9CCC7C679
:10082000C9CECDC9C5CDD3D0C5C5D3DFD296491069
:10083000020F1E1E1413191F201B192123241F220F
:1008400025292726272B2D2D2B2C313231313235DE
:10085000383536383B3B3A3C3D40403F41424445C9
:10086000454547494A494A4D4D4E4E505053534DC8
:10087000504F5251535455565659595A5A5D5C5E11
:100880005F5F626163636566666769696A6C6B6E08
:100890006D706F7171737473767677777A797B7B0D
:1008A0007C7D7F7E8080828283848585878788891E
:1008B0008A8A8C8C8D8D8F908F929193939496943D
:1008C00097979899999A9C9A9E9C9E9F9FA0A1A267
:1008D000A1A4A3A5A4A7A5A8A8A8A9ABA9ACACADA1
:1008E000ACAFAEAFB0B0B2B1B3B3B3B5B5B5B7B6E8
:1008F000B8B7B9B9BBB9BCBBBDBCBDBEBFBFC0C03A
:10090000C0C2C1C4C1C5C3C6C3C8C4C9C5C9C8C99A
:10091000C8CCC8CCCBCCCCCDCECCD0CDD0CFD1CF09
:10092000D4CED4D1D5D0D7D0D9D1D9D2DBD1DD0056
:100930000C030D071009110D130F151316161818B7
:100940001C191E1D1E21212223252527282A282E79
:100950002B2E2E3130333235353737393A3A3D3C4C
:100960003F3F40414342464547464B484B4C4D4E26
:100970004E505151525455555659575A5A5C5C5E17
:100980005E5E626063626564676668686B696C6D11
:100990006D6E6F70717174727675757878797A7A18
:1009A0007B7D7D7E7E81808182848385868687882B
:1009B00089898B8B8B8E8E8D90909092929394944C
:1009C00096969699979A999B9B9C9D9D9F9EA0A178
:1009D000A0A2A2A4A3A5A6A4A8A7A8A8AAAAAAACB4
:1009E000ABADAEADAFAFAFB1B2B1B2B3B4B4B5B5FC
:1009F000B6B7B8B6BAB8BABABBBCBBBDBCBFBDC04F
:100A0000BEC1C0C0C3C1C3C3C4C4C4C6C6C5C8C7B1
:100A1000C7C9C9C9C9CBCBCBCBCDCCCECDCECFCF1F
:100A2000CED1D1CFD3D1D1D4D3D2D4D7D1D5DCCAA2
:100A300013020A0E090E0F100F14131317161819AC
:100A40001B1B1D1D1F202222232526262929292D77
:100A50002C2D2F303132333435383639393C3B3C4C
:100A60003F3F404142434446464749494A4C4D4D29
:100A70004E4D4E4E515052545356565659595A5C3B
:100A80005B5E5D60606162636465666768686B6A2F
:100A90006C6C6F6D70707272737475767777797A2B
:100AA0007A7B7D7C7E807E82818283858486868837
:100AB000888A898B8C8C8D8E8F909092929295944F
:100AC0009596979898999A9B9C9B9E9D9F9FA0A175
:100AD000A1A3A2A4A5A4A7A5A9A7A8AAABA9ADABA9
:100AE000ADAEAEAEB1AFB1B2B2B2B4B5B4B5B6B8E8
:100AF000B6B8B9B9BABABCBABEBCBDBEBFC0BFC039
:100B0000C2C0C4C1C4C4C4C5C6C5C7C7C8C8C9C992
:100B1000CACACBCBCCCCCECCCFCDD0CFD0D0D1D1FC
:100B2000D2D2D3D3D4D4D4D5D5D7D6D6D8D7D8DB70
:100B3000D30901060807090C0B0C0F10101213142F
:100B40001617171A1A1B1D1F1E20222323252726BE
:100B5000292A2B2B2D2F2F303233333537363A3885
:100B60003B3B3D3E3F4041424443464747484B495B
:100B70004D4C2B2C2B2B2A292827262623232321B7
:100B800023212224232626282B2D2E3033353538B9
:100B9000383A39393A37373632322F2C2B29262634
:100BA00024252426282B2F333A40485159636F7946
:100BB00084909CA6B2BCC7D0D9E1E8EEF3F8F9FD69
:100BC000FEFEFDFDFAF9F6F4EFEEEAE7E6E2E1DF1C
:100BD000DEDDDDDEDCDFE0DFE2E3E5E5E7E8E9E9F5
:100BE000E9EAE8E9E7E6E4E4E1DFDEDBDBD8D8D6F2
:100BF000D5D5D3D6D3D6D5D7D7D8DBDADBDEDCDE76
:100C0000DEDEDEDCDCDAD9D8D5D3D1CFCECACBC795
:100C1000C8C6C7C5C8C7C9CACDCED1D3D5D7D9DBF9
:100C2000DADCDBD9D8D6D0CBC8BEB9AEA79C9187C9
:100C30007B70645A4D433930271E18110D09050386
:100C40000202020304080A0C0F1316171B1D1F21B2
:100C5000212322232221211F1F1B1D1918191716BA
:100C60001617161819191B1C201F22242627282A9C
:100C70002A2B2B242526292A2A2C2A2929282728E9
:100C80002A2B2E2E2F2F2F2D2B2C2C2B2F30333386
:100C90003334332F302E2F3034353839393835331B
:100CA00031313134393D4042403B372F2C2A313BE2
:100CB000506A85A6C2DBEEFAFEFDF7F0EAE5E2E552
:100CC000E5EAEDF0F0EEECE8E7E3E2E4E5E8E8E998
:100CD000EAE8E6E4E1E1DFE2E1E4E4E6E3E3E1DFE0
:100CE000DDDDDDDDDFDFE1E0DFDEDCDBD9D8DAD939
:100CF000DCDBDCDDD9DAD8D5D5D5D5D7D6D9D8D770
:100D0000D7D4D2D2D0D1D1D2D5D4D4D4D1D0CDCDC4
:100D1000CBCDCDD0D0D2D0D0CCCBC7C7C7C8CACD11
:100D2000CED0CFCAC8C2C0BFBFC3CBCFD5D5D0C429
:100D3000AF977A5A3E2313060103090F161B1D1B9A
:100D40001B151310101114171A1C1D1D1A18181535
:100D50001718191C1F1F1F201D1C1B1C1B1D1F20CB
:100D6000232323222120201F212124262528272553
:100D700025242423292827282B2B29292B2B2D2BED
:100D80002B2C2E2D2E2C2E302F2E2F30313130307B
:100D90003234323132343534343236383535343811
:100DA0003A3735373A3C3837373D3F3A35394343A0
:100DB000382C3C72B9EFFEF2E4E5EEF2ECE7E6ED3A
:100DC000ECEBE5E7E9ECE6E6E5E8E8E6E4E3E7E6B0
:100DD000E3E3E2E5E4E2E0E2E2E3DFE0DFE1E1DDFC
:100DE000DEDFDEDFDCDCDDDDDDDADADCDBDBD9D843
:100DF000DADAD8D8D7D7D9D7D5D5D7D6D5D4D4D489
:100E0000D5D3D2D2D4D2D2CFD1D2D1D0CDD0CFD0CF
:100E1000CECCCECDCFCCCACBCECCC9CAC9CBCCC719
:100E2000C7C8CBC9C5C4C7CAC9C1C1C7CAC7BDBC69
:100E3000C8D4C48D4711010E1C19120F121B1715AF
:100E40001117191A1515181C1918171B1B1C191A1C
:100E50001C1E1C1B1C1E1F1F1C1E1F21201F1F21B0
:100E60002321212123242322242426252326262747
:100E7000272528272A1F1E201F211F231F23212447
:100E8000212423242426232725272528282629280A
:100E90002A282B282C2A2B2C2C2B2E2C2F2C2F2F96
:100EA0002E302F3130313034303430373037313824
:100EB000313A313B32FEF5FDF3FDF3FCF2FAF3F982
:100EC000F2F8F2F6F2F5F1F4F2F2F2F0F2EFF1EFFD
:100ED000F0EEEFEDEFECEFEBEDEBECEAECEAEAE94C
:100EE000E9EAE7E9E7E8E6E8E4E8E4E5E5E5E2E59C
:100EF000E3E2E3E2E1E1E2E0E0DFE1DDE0DDDFDDEE
:100F0000DDDDDCDCDBDCDADBDADAD8DAD8D9D7D83D
:100F1000D6D7D6D7D4D7D3D5D4D4D2D4D2D2D2D18F
:100F2000D2CFD2CED1CDD1CCD1CAD1C9CFCACFC7E1
:100F3000CFC6CFC5CE020B020C030C050C060D0765
:100F40000D080D0A0D0C0D0C0E0D0F0E0F100F10CD
:100F5000101210131113111512151414151616165C
:100F60001617181718181A181B191B191D1B1C1BEC
:100F70001E1C1F1C1F1F202120212222232124246C
:100F80002324252525262626272827272A28282BF7
:100F9000292A2B2B2B2B2E2B2D2D2E2D302D302F88
:100FA000312F30332F333232333432353435343716
:100FB00036333A383043ECFFF5F4F8F7F3F5F7F24F
:100FC000F4F4F3F2F3F2F1F2F1EFF1F0EFEFEFEE10
:100FD000EEEDEDEDEDEBECECEAEBEAE9EAE9E9E860
:100FE000E7E9E6E7E7E6E5E6E4E5E5E3E3E4E2E2B0
:100FF000E3E1E1E1E0E1DFE0DEDFDEDEDEDCDEDBFF
:10100000DDDBDCDADBDAD9DAD9D8D9D8D7D7D8D54D
:10101000D6D6D6D4D5D3D5D3D3D3D2D2D1D1D2CF9D
:10102000D1D0CFCED0CDCECECDCBCECCCBCBCCC9EC
:10103000CBCBC6C9D0BC1303080D07090D090B0C97
:101040000C0B0E0C0D0E0F0D0F100F1011101013B6
:101050001112131313141414151516161616181747
:10106000181819181A191B1A1B1B1B1C1D1D1C1ED6
:101070001E1D201E201F201D1D1F1D1F1F1F202085
:10108000202220232123232323242525242627252A
:10109000272728272929282A292B2A2C2A2D2B2DB6
:1010A0002D2D2E2E2E2F2F30303032303133323244
:1010B0003434323635313CF5FFFAF8FCF9F9F8F9F9
:1010C000F8F7F8F6F6F7F5F5F5F5F3F5F3F2F3F2D0
:1010D000F2F1F2F0F0F0EFF0EEEEEFEDEDECEEEB22
:1010E000ECEBEAECE9EAE9E9E9E8E8E7E7E6E7E674
:1010F000E5E5E5E4E4E4E3E2E3E2E2E0E2E0E0E0C7
:10110000DFDFDFDDDFDCDEDDDBDDDBDBDBD9DBDA18
:10111000D8DAD8D7D9D6D8D6D6D5D6D5D5D3D4D46B
:10112000D3D2D3D1D2D1D1CFD2CECFD0CECDCECEBD
:10113000CCCDCDCACBCEC6090106060605070707EA
:101140000907080A09090A0B0B0B0B0D0B0E0D0DF5
:101150000E0E0F0F100F1110111211131213141382
:10116000141514161615171717171918181A191A0F
:101170001B1A1B1C1C1B1E1C000101020203030482
:1011800004050608090B0D10000101020203030407
:1011900004050608090B0D100001010202030304F7
:1011A00004050608090B0D100001010202030304E7
:1011B00004050608090B0D100001010202030304D7
:1011C00004050608090B0D100001010202030304C7
:1011D00004050608090B0D100001010202030304B7
:1011E00004050608090B0D100001010202030304A7
:1011F00004050608090B0D1000FFFFFEFEFDFDFCB7
:10120000FCFBFAF8F7F5F3F000FFFFFEFEFDFDFC36
:10121000FCFBFAF8F7F5F3F000FFFFFEFEFDFDFC26
:10122000FCFBFAF8F7F5F3F000FFFFFEFEFDFDFC16
:10123000FCFBFAF8F7F5F3F000FFFFFEFEFDFDFC06
:10124000FCFBFAF8F7F5F3F000FFFFFEFEFDFDFCF6
:10125000FCFBFAF8F7F5F3F000FFFFFEFEFDFDFCE6
:10126000FCFBFAF8F7F5F3F000FFFFFEFEFDFDFCD6
:10127000FCFBFAF8F7F5F3F00000000000000000B6
:101280000000000000000000000202030304050645
:1012900007080A0C0E111418000304050607090AB2
:1012A0000C0F12151A1F252D0004050608090B0D39
:1012B0001013171C2228313A00050607080A0C0FE4
:1012C0001115191E242C353F0004050608090B0DC5
:1012D0001013171C2228313A000304050607090AD7
:1012E0000C0F12151A1F252D000202030304050618
:1012F00007080A0C0E11141800000000000000007E
:10130000000000000000000000FEFEFDFDFCFBFAF6
:10131000F9F8F6F4F2EFECE800FDFCFBFAF9F7F669
:10132000F4F1EEEBE6E1DBD300FCFBFAF8F7F5F3C2
:10133000F0EDE9E4DED8CFC600FBFAF9F8F6F4F1F7
:10134000EFEBE7E2DCD4CBC100FCFBFAF8F7F5F3F6
:10135000F0EDE9E4DED8CFC600FDFCFBFAF9F7F6C4
:10136000F4F1EEEBE6E1DBD300FEFEFDFDFCFBFA63
:10137000F9F8F6F4F2EFECE800000080004000809D
:1013800002020203020303040504070509070A0B0E
:101390000B0D0D111012151517191B1C201F2424DD
:1013A00027292B2E30333537393E3F4146464B4CAB
:1013B000515255595C5E6164686B6D7074777A7CCC
:1013C000818287898C9093949A9B9EA3A3A9A9AEAE
:1013D000B1B2B6B9BBBFC0C3C7C8CBCDD1D2D4D8C8
:1013E000D8DCDDDFE2E3E6E6E9EBEBEFEEF1F2F38A
:1013F000F5F5F6F9F7FBF9FCFBFCFDFDFDFEFEFE45
:10140000FDFFFEFDFDFEFCFDFBFBFAFAF8F8F6F62B
:10141000F5F2F3F0EFEEECEAE9E7E6E2E2E0DDDB3D
:10142000D9D7D4D3D0CECAC9C6C4C0BEBCB8B6B34F
:10143000B1ADAAA8A4A29E9C9995938F8D8887830D
:10144000807D7A7674716D6A6865605F5C5855530B
:10145000504D4A4745423F3D39383532312D2B2AD0
:10146000262523201F1D1A1A1616141310100D0EF0
:101470000B0A0A0808060605040502040202020314
:1014800001000120002A0033004000550080008147
:1014900000AA00C000CC00D500E00000010101332B
:1014A000014001550166018001AA01C0010002024C
:1014B000024002C002000300040005000800000012
:1014C000000000000000000000000000000000809C
:1014D0000087008F009800A100AA00B500BF00CBD4
:1014E00000D700E400F10000010F011F01300142AC
:1014F0000155016A017F019601AE01C801E30100B7
:10150000021B28590F0D010012333E0D0C06000F6F
:10151000455D0E0C07000A546E0D0A0800172C5783
:101520000F0C01000D1D500D080000062E510C037C
:10153000000009335F0F03000306496307030E0928
:101540001039343B35363738393A3E453B3D3C3D22
:101550003E3E103B343B4734463438470E45474601
:1015600047474747014647000000000000000000D1
:10157000000000000000080E0F0F0F1011111212D2
:101580000000000000000000082223242425262754
:10159000282800000000000000000145390000007C
:1015A000000000000000000000000000084A4B4C52
:1015B0004D4E4F4F030300000000000000000829BB
:1015C0002A2B2B2C2C2C2C2C0000000000000000BF
:1015D000084949454848484848480000000000007C
:1015E000000010032D2D482E2E2E2F303031323298
:1015F0002E333333100D00010203040405060708DF
:10160000090A0B0B0C0C1003221314151542421679
:101610001617171818191A1A08424442484141422D
:101620004242000000000000000004434344453FE4
:10163000000000000000000000000000081B1C1D4E
:101640001E1F1F2021210000000000000000043F99
:101650003F3F403F0000000000000000000000008D
:10166000020202020202020202020202020202025A
:10167000020202020202020202020202020202024A
:10168000020202020202020202020202020202023A
:10169000020202020202020202020202020202022A
:1016A00080FFFFFFFFFFFFFFFFFFFFFFFFFFFFFFC9
:1016B000FFFFFFFFFFFFFFFFFFFFFFFFFFFFFFFF3A
:1016C000FFFFFFFFFFFFFFFFFFFFFFFFFFFFFFFF2A
:1016D000FFFFFFFFFFFFFFFFFFFFFFFFFFFFFFFF1A
:1016E0000200060D13191F262C32373D43484D5278
:1016F000575C6064686C6F7275787A7C7E7F8081DD
:1017000081828181807F7E7C7A7875726F6C68645B
:10171000605C57524D48433D37322C261F19130D3C
:101720000600FDF6F0EAE4DDD7D1CCC6C0BBB6B109
:10173000ACA7A39F9B9794918E8B89878584838286
:101740008282828283848587898B8E9194979B9FE6
:10175000A3A7ACB1B6BBC0C6CCD1D7DDE4EAF0F6E6
:10176000FD008080808080808080B0B0B0B0B0B05C
:10177000B0B0DADADADADADADADAF5F5F5F5F5F57B
:10178000F5F5FFFFFFFFFFFFFFFFF5F5F5F5F5F5B9
:10179000F5F5DADADADADADADADAB0B0B0B0B0B06F
:1017A000B0B080808080808080804F4F4F4F4F4FFF
:1017B0004F4F25252525252525250A0A0A0A0A0A27
:1017C0000A0A00000000000000000A0A0A0A0A0AC9
:1017D0000A0A25252525252525254F4F4F4F4F4FF3
:1017E0004F4F807F868C92989EA5AAB0B6BCC1C68A
:1017F000CBD0D5DADEE2E6EAEDF0F3F5F8FAFBFD60
:10180000FEFEFFFFFFFEFEFDFBFAF8F5F3F0EDEA4A
:10181000E6E2DEDAD5D0CBC6C1BCB6B0AAA59E98AA
:10182000928C868079736D67615A554F49433E3972
:10183000342F2A25211D1915120F0C0A0705040241
:1018400001010000000101020405070A0C0F121536
:10185000191D21252A2F34393E43494F555A6167B6
:101860006D73797F80808080808080808181828498
:1018700086898D91969CA3AAB2BBC4CCD5DEE6ED39
:10188000F3F8FCFEFFFEFCF8F3EDE6DED5CCC4BBBE
:10189000B2AAA39C96918D89868482818180808062
:1018A00080808080807F7F7F7F7F7F7F7E7E7D7B4B
:1018B0007976726E69635C554D443B332A21191267
:1018C0000C070301000103070C1219212A333B44C2
:1018D0004D555C63696E7276797B7D7E7E7F7F7FFE
:1018E0007F7F7F7F800004080C1014181C202428A0
:1018F0002D3135393D4145494D5155595D61656938
:101900006D7175797D82868A8E92969A9EA2A6AA1C
:10191000AEB2B6BABEC2C6CACED2D7DBDFE3E7EB01
:10192000EFF3F7FBFFFFFBF7F3EFEBE7E3DFDBD7CB
:10193000D2CECAC6C2BEBAB6B2AEAAA6A29E9A9667
:10194000928E8A86827D7975716D6965615D595562
:10195000514D4945413D3935312D2824201C18145D
:10196000100C08040000181A1D202225282A2D30EA
:101970003336393C3F4245484B4E5155585B5F62C8
:1019800066696D7074777B7F83868A8E92969A9E45
:10199000A2A6AAAEB2B6BBBFC3C8CCD1D5DADEE32D
:1019A000E7ECF1F5FAFF181A1D202225282A2D3020
:1019B0003336393C3F4245484B4E5155585B5F6288
:1019C00066696D7074777B7F83868A8E92969A9E05
:1019D000A2A6AAAEB2B6BBBFC3C8CCD1D5DADEE3ED
:1019E000E7ECF1F5FAFF1804040404040404040409
:1019F00004040404040404040404040404040404A7
:101A00000404040404040481FFFFFFFFFFFFFFFF41
:101A1000FFFFFFFFFFFFFFFFFFFFFFFFFFFFFFFFD6
:101A2000FFFFFFFFFFFFFF04040404040404040499
:101A30000404040404040404040404040404040466
:101A40000404040404040481FFFFFFFFFFFFFFFF01
:101A5000FFFFFFFFFFFFFFFFFFFFFFFFFFFFFFFF96
:101A6000FFFFFFFFFFFFFF04000D1A26323E495320
:101A70005D666D747A7E81838483817E7A746D66FF
:101A80005D53493E32261A0D00FAEEE1D5C9BEB4C7
:101A9000AAA19A938E898684848486898E939AA13A
:101AA000AAB4BEC9D5E1EEFA000D1A26323E49535A
:101AB0005D666D747A7E81838483817E7A746D66BF
:101AC0005D53493E32261A0D00FAEEE1D5C9BEB487
:101AD000AAA19A938E898684848486898E939AA1FA
:101AE000AAB4BEC9D5E1EEFA0080808080B0B0B063
:101AF000B0DADADADAF5F5F5F5FFFFFFFFF5F5F51F
:101B0000F5DADADADAB0B0B0B0808080804F4F4FCB
:101B10004F252525250A0A0A0A000000000A0A0A9C
:101B20000A252525254F4F4F4F80808080B0B0B0CB
:101B3000B0DADADADAF5F5F5F5FFFFFFFFF5F5F5DE
:101B4000F5DADADADAB0B0B0B0808080804F4F4F8B
:101B50004F252525250A0A0A0A000000000A0A0A5C
:101B60000A252525254F4F4F4F80808C98A5B0BC66
:101B7000C6D0DAE2EAF0F5FAFDFEFFFEFDFAF5F076
:101B8000EAE2DAD0C6BCB0A5988C8073675A4F439E
:101B9000392F251D150F0A050201000102050A0F44
:101BA000151D252F39434F5A6773808C98A5B0BCFB
:101BB000C6D0DAE2EAF0F5FAFDFEFFFEFDFAF5F036
:101BC000EAE2DAD0C6BCB0A5988C8073675A4F435E
:101BD000392F251D150F0A050201000102050A0F04
:101BE000151D252F39434F5A67738080808080816F
:101BF00082868D96A3B2C4D5E6F3FCFFFCF3E6D54E
:101C0000C4B2A3968D868281808080807F7F7F7E14
:101C10007D7972695C4D3B2A190C0300030C192A6B
:101C20003B4D5C6972797D7E7F7F7F808080808183
:101C300082868D96A3B2C4D5E6F3FCFFFCF3E6D50D
:101C4000C4B2A3968D868281808080807F7F7F7ED4
:101C50007D7972695C4D3B2A190C0300030C192A2B
:101C60003B4D5C6972797D7E7F7F7F800008101814
:101C7000202831394149515961697179828A929A92
:101C8000A2AAB2BAC2CAD2DBE3EBF3FBFFF7EFE7DB
:101C9000DFD7CEC6BEB6AEA69E968E867D756D6526
:101CA0005D554D453D352D241C140C0400081018BD
:101CB000202831394149515961697179828A929A52
:101CC000A2AAB2BAC2CAD2DBE3EBF3FBFFF7EFE79B
:101CD000DFD7CEC6BEB6AEA69E968E867D756D65E6
:101CE0005D554D453D352D241C140C040018191B61
:101CF0001C1D1F20212224252628292A2C2D2F3087
:101D00003133343637393A3C3D3F4042434546480B
:101D1000494B4C4E505153545658595B5D5E60626E
:101D2000636567686A6C6E6F71737577787A7C7EAD
:101D30008082838587898B8D8F91939597999A9CC3
:101D40009EA0A2A4A7A9ABADAFB1B3B5B7B9BBBDB7
:101D5000C0C2C4C6C8CACDCFD1D3D5D8DADCDEE183
:101D6000E3E5E8EAECEEF1F3F5F8FAFDFF186C6C48
:101D7000666F777A7A9B909D9299A2929BAB9FA275
:101D80008B8B73686F685B584F4B42423B402A2EE7
:101D90001F21232330333342374D585D71858089AD
:101DA000838E8997A4AFC3C3C7DBD3E7EDE9F8F807
:101DB000F6FFEDFDEDEBE0D0AFA48B77685D584901
:101DC00025301F130D161A251F2C2A2C302C2C37CA
:101DD0002C4B585F7E8999A89DB6C5CCC7D0CECE76
:101DE000B8BFC1AFABA4A49F949B92908B7A6C7A3E
:101DF0006C55514D4D46504B46464D3E393A484143
:101E00004D51554D5D667D929C9C98887F686159C7
:101E10005D53585859606B666C757F7D8B8F9B8DB9
:101E2000877C7869686171747A77858793AFCEDB38
:101E3000F4FFFAE8D9C5BAA7B6B4B1B1AE998A7DB4
:101E4000664E4B3F3626211A121C29273C4858580B
:101E500069726F69727171849BA1ACB6CABEC2C24D
:101E6000B9A9ACB2CAE0FCFCE8DBCBAEA69F8F7A86
:101E7000493734456C837A624732101B3E494849E2
:101E8000391E050C457484A2A99B87898E887C7DA8
:101E90007D868D9DBCBCA7AB9F8D8F97BBB9BAC506
:101EA000BE976B6666606182986D492F33476AB44E
:101EB000E8F6D3AB905F3D487085837B8380636099
:101EC0007D7F6E5F655652606B8573635B4D4A63C1
:101ED000717C95A099856A79859BB0DFFFF1C1A7D8
:101EE000866B5C89BEE7E7EFE4B6A4A4BAAB79647D
:101EF00049435F878A885B4B231D334C4B51482DE8
:101F00001010185775919E9A8B8683807B736D7124
:101F10007D8EA1BCB7ACAD8C878CA0BAC4D9D9B921
:101F20008A6669647184A6996142353B5C8DD3E809
:101F3000E5B7A47F513C505E6F6E7875795D636E36
:101F4000715F61574E555C658A77695155586E7A55
:101F50008DADAA947C6F8086A5C4F3FFDCBA9E7613
:101F6000686C9EC5E3EBE2C6A69CA2B1937158369D
:101F7000324351737E93845C422D4C4F6573636E84
:101F8000533722171F46789ABDB5A68E5F4D3A4546
:101F9000606EA2A9B7AD8761525B7DAABEDBE1B9D5
:101FA000A070737F98A8A2A4927E60362D427DA374
:101FB000E1FFF9FAC1814F2B343F6981A5AD997ECC
:101FC0004C3F2D3647455E5C696D443D31334D6570
:101FD00086ABB19F8C63535F6D99B2EDF8EDDDB1C7
:101FE000948675607394C2FDF1F8E7D4C38A685093
:101FF0004752517A8999A7B4C3CFDBE4ECF4FAFED7
:10200000FEFBF8F3ECE1D6CABBAC9D8E7F7060534B
:10201000463A312A27232224293036414D58646F0D
:102020007D8B98A3ADB7C0C7CDD1D2D1CDC9C3BA2E
:10203000AFA39789796A5A4D3E3024190E060301E1
:102040000100030B17212B374755637382919EAA1A
:10205000B6C3CAD0D6D9DBD7D4D0CAC1B6ACA09249
:102060008375675B50453B35302C2B2C2F353C4717
:1020700053606D7A7F838B969FA5A8ADB2B5BABE2B
:10208000BFB9B2AEAAA3978E877C6F625749382B2F
:10209000231A120B0606020001060D172029313BF8
:1020A00045515E6A747C828A939B9EA3A6A8A7A5CD
:1020B000A39D938A847F776C635C574E4745423F6C
:1020C00042474B4C515F6B747D8A97A0A8B5C7D22D
:1020D000DBE3ECF2F5F7F9FEFAF8F3ECE3DAD1C75B
:1020E000BAADA1978C827970665F5A595857585B80
:1020F00060656E777F857C7A87938C75685F5A5DA3
:10210000666C6658514D41322F363B3B3B3B2D1997
:10211000100B0E171B20261D0B0200122B3B362F17
:1021200029262B2D3841413F44515A585D636A6836
:10213000687378736F7887877C7C8795979AA0A05F
:102140009EA0B0BEBBC0D0DDDBD0CBD0C9C0CDEF30
:10215000FDFDF6F2EFEBE2E2EBE9EBE9E9E4DDD2DB
:10216000C7B9B5BEC7C2B7B0A5958E939E9E958AD6
:10217000817C757E878584939DA7A79B89755E5119
:102180004C515966738393A1B0C0C6C1B4A28C767A
:102190006B666E7E8DA5B5C2C6C0B4A18D7F75700D
:1021A000737F91A6BBC6D3DADEE2DDD3C5AE9C8ACF
:1021B0007B777E8FABC8E6F9FFF5DDB98F694D3DC2
:1021C0003E4A607B919FA5A7A19A968D857764541E
:1021D000453429241F202635465053554A35221BA5
:1021E0002122130F1C2A3A465B778D92948F7F6CC5
:1021F0005E585659647584878B78747965564F5646
:1022000052536E5F4A5648444C434C4F473F4548F3
:1022100034313831292C3529403D2140392C4F5D4E
:102220005A525B5E617C6E657062696D5F665A577B
:102230006A666468696D6E7982808E9B9EA4AFB178
:10224000B1BBB8BFCDD3CBBBD2D1BFDDD5CBCEAC2C
:10225000A9ACA9A49B957B68707B7368797B656248
:102260008AE5FFBB95A4BFCFBBBEDADEC6BEC8C23F
:10227000B5BEB8A5999288876197866FABBF8FA0CE
:10228000F0B191F3C697F3C9ACF3D3C9D7EAC6A6A8
:10229000F3BC94F2B972DDC342D0B42FBF8A4B872E
:1022A00071763E75821E75792E66664E6354727025
:1022B00055968167AB9993B2B4CDB2CEE8C4D8F14C
:1022C000E8DDF1E8E8EBECE8B1E8EF8DE8DB8CC5A0
:1022D000B68E7289723A4B45161109060A000A0336
:1022E000060A030A0A0A090A0A0A0A0A0A010A204D
:1022F000140A4E3F0A5D7144618570B94DBDDD5FC2
:10230000A3FC735FFD8383FF7F6FFDCA80ECE57DD7
:102310006AFFDA5DFDD944E6DF3F82C679777695BC
:102320006343AC4F44B86744B07C3A636A83304D32
:102330008795596299678357C36D7DCA7D8F768D66
:10234000EC8FB2E88D8FACB58D6A8DCA548F9D54D9
:102350008A6FB06352A9342C792942013662006C2D
:1023600023346A206A676A606A6C6A6C6A6C0F6CF4
:10237000791A6A83326C9F548F85B836FF21D2FD5B
:102380001CA3FF1A18FD1E66FF1117FDB413FFD022
:102390001011FFFD10FDFF07E5FD420BD7E80C59BA
:1023A000FF2F05F86D04FFD905FDF3046397B4040E
:1023B0001CACEF0438E2056105D70504E50405040B
:1023C0001CD5056ACB0405475C0405048B04053D58
:1023D000053205DE5204F83605C950940589EA1025
:1023E000FF5C86FD57FDF6FDE5FCFFFDFFFDFF2FC1
:1023F000FFFD31FDD025FFFD2DFDB88473655D57D0
:10240000585D646D7172706D67656364677079851E
:102410009099A0A19D9488796A615E616D7A8B9B89
:10242000AAB5BCC1C3C4C3C1C0C0C3C5C9CCC9C39C
:10243000B7A6947F6C5A4B413B3A3B3E43454849D3
:10244000484544464E5C6F869FB6CBDBE9F1F3EF1F
:10245000E6D9C7B39E8C7B6F635547392C1E140A8F
:102460000300020A1626394D60717D878B8E8F9589
:102470009EA9B4BDC5C8C7C1B5A59484657F92A601
:10248000B2ADADB2B5C0D1D1CDC7B2ADB0ADB9C8A6
:10249000C0B9B09F9895867B6C482D1804040C0C2D
:1024A000131B1A2D4A638CADBCCAD1D1DDECF3FDF0
:1024B000FFEADBCCB9B9B5ABA99D87827D767A7886
:1024C000685C462B241F181F1F18181D2446657FA3
:1024D0009DADB0B9BCBCC7C5C0BEB09C9A93909529
:1024E0008C807A716A787F878E897A6F6562675B84
:1024F0004F412718181824373C434D52656B8FAE57
:10250000C9D9D6D4D5D4D8E0DEDAD8CFCFD3D1D478
:10251000D6C4AF9B857D7D7C8184796E614D4239C7
:10252000281C100309192B475B646B6F6F7780823F
:10253000898A8281878FA8BBC6D0CABBB3A6979170
:102540008C837F776E717473746C594C4444576CF0
:102550007F95A3A9B4B9BCC3BEB3A7968482818476
:102560008E909398979090897F7464544C4B5460EC
:102570005E56462B14080004111926394B6B7DA6B4
:10258000CADBDFD6CECACACDCDCDCCCACAC9C9CB6B
:10259000CDCEC5B19A84746F727F909FA6A59C8B97
:1025A000755A402819151F2B3231291C151416187D
:1025B000191B1D222A3A537391ACBFCBCEC7B59FCE
:1025C0008C817F8490A4BDDAF3FFFBECDBCECBCF14
:1025D000D7DFE4E6E7E3DACEBBA58B705B4D443F83
:1025E0003C3B3F48535A595245382C23202231480E
:1025F0005E6E747164534030241B182134547D88FE
:10260000AFC3BCA688706465718290989386726629
:1026100066748BA2AFAA9A816B5B575B666E74730C
:102620006B5C4C3D363A485E727E7C6E594539345F
:1026300037404D5D6971726D686A7890ABBFC6C1F5
:10264000B3A39488848A9DB8D8F3FFFBEAD4C0B3BF
:10265000AEAEB2B9BFC1BEB4A59589868B97A3A90A
:10266000A79C8C7A6B5F555150535A6266635B55D9
:10267000545964717C82837C6A50331D1A2F5888A8
:102680007C929DABB9BAB7BBC5C0ADA1967F604A7D
:10269000484A4D57666F758195A5B1C3D7E2E7EA01
:1026A000E8D5B6A0958770615746322B3135323D5B
:1026B0005C778493A6B3AFAEB6BEB7A99B876E58BE
:1026C000493A2B293238374258697285A2B6C4D3A9
:1026D000E9EEE0D0CCC6B3A49B8D735B52514D4C58
:1026E00055606A7A909C9EA3B6C8CDD2D3C7AA93F0
:1026F0007F63432F26180C0A0801000B1D2937574A
:102700007C5E86C09D655C4155AFCED3D68C4A5366
:102710005982D3D4B6A15F467A96BBE2B06E542CF0
:102720003A87A4ABB066272C2A529E997E68281A55
:102730005987BEF2CD967A4E5EA7BECBC97E4A546B
:102740005990DED7BD9A442B576FA3CF976143149E
:1027500034829CB3A95121202470BEC0BC9C4E4B36
:10276000788ED0F1B3855D27509CB9DFD9865B5256
:102770004C91D3C6B480281E3D5FAAC28F6A260042
:102780003A5E7A85919CA7B1BCC5CDD5DBE0E4E685
:10279000E5E6E5E1DFDBD8D1CBC5BDB7B1ACAAA892
:1027A000A8A8A8A9A9AAAAAAAAAAADAFB2B4B6B95C
:1027B000BCBFC1C5C7C8C8C7C7C4C2BCB6ADA49B4F
:1027C0008E8274685C4E41362B21180F080502007A
:1027D0000002070D131B242C363D454E545C6067E8
:1027E0006C7073737473706C69686562605F5C5958
:1027F00055514D4945413E3B38383B3E4348515A7F
:1028000064707A7D899195A0B0C5D5DEE6E9ECEFDC
:10281000F2F2F0E1D1C3BCBFBFBCB3A79EA3ADB978
:10282000C3C8C8C9CBCCCCC8C0BCBFC5C9D4E3F0F1
:10283000FBFFFCF8F2E9E4DED8D5D1C9BCAD9D9729
:102840009A9E9B8B71553C281F1F2221160C070D49
:102850001B2D393F3C363439435155555757555147
:102860004E4C4E4E4E4E483C2D211F212A343A33B9
:10287000251610131C2B373C3A332D2B2A282A36C9
:10288000485C717D87877F797F8D9DAEBBC1BEB966
:10289000C0C7C7C0A28972646E777B776D66738D7F
:1028A000A1AFB5B4B7B7BDC1BEB2A8A4A9AAB7CCF1
:1028B000E1EFF0E4DACBBEB8B0A9A4A29A8A7668B8
:1028C00066738A948C70523C2C2F425B6D706C70D6
:1028D000839FBCCECEC1AB988F939A9687796C5F5D
:1028E00054453C39383A373022120100081C303C3C
:1028F000372514132039597581837E71685E544CD5
:102900005163738187867D787B8E989CADC9DFDFAC
:10291000DCF1FFFCEECEB9A28D919192948B838273
:102920008D928A878383848DA2AEA796847F7B80D5
:102930008D959C9B8E8B868B9295929296928472AB
:1029400064564F4F4F442E1D0F040716344E5F6AD6
:102950007B90A6B7BDBBB2A391827D7F7867584DAF
:102960004643403F444B514D4847443F3D404D58FE
:102970005F5D5B595D6B8096A6ADB1B1A99F9186F5
:102980007D7D868489868378747E9499909CBAD55F
:10299000D8D6EFFFFBECD5CBBBA7A69F9FA49F98F3
:1029A0008C888069605B595B637D919282695E5718
:1029B000555551524E45484E606F77797E85867EDB
:1029C000746B5A44322A2117151410111A2F465DC0
:1029D0007084959D9F9C97969085766D6A63564C02
:1029E00045464C5359616C7270707881858484853A
:1029F000858689929CA4ADB8BEBFC0C4C8C5C0B40A
:102A0000ACA4A19F918B838D746F7D95998990ACB7
:102A1000C5C3BED7E6DFCAAEA99B828484848E8EEE
:102A20008E8E97A59084898E949EBCD3CEBEA582AF
:102A3000625A584A37332C231E2831332E374653D7
:102A400061727F7D72645A535354585D646462624C
:102A5000686D798EA2A5A09D957D6A5B54514C410D
:102A60003325252C302E3545483E3533353F464AF3
:102A70004C545F626D84A4C1DFF4FFFBF6F4EFED0C
:102A8000EAECE6E6E3C8AC8D9277747F86857771D1
:102A900074776D686E706A5C4F5454484F58586133
:102AA0006A76869BBFBDB4C6D2D7DDEAF5E7E6E31A
:102AB000B68B7F7C6A494849362519150A000616E7
:102AC0002A4C799DB3C3C6BDC0CFD7DDEDF6EAC8A9
:102AD000A48B7770798C918E8E83625451515152B0
:102AE00052493D3A3F3A2E303736271807000A1828
:102AF0001E1F303F40455E88ADCCEAF9F3E3DAD4DF
:102B0000D8E7F5F9FCF9E1BC92CBE4E9929D920299
:102B1000173C27212109102F4E235F221C6938A161
:102B200097CFB4D095DC87C1A0EBDAEEA463EEDDDD
:102B3000E6EFEDEDECECE886E4EECACEA9D1CC6F81
:102B4000CDE6AB8BA08D6D62332E50000A271E059B
:102B50000C026A4C10524E6F2D1C7F410B03290250
:102B600001440C1C2E31312E29453938524E6060FB
:102B70004A6871C6EAECD1DED5E2DFDFE3E5C2B731
:102B8000E4E3D3ABACC3C9AC70CB60454E78B0BE08
:102B90008F4B4D6E7956705D9BD4D8CCAA8793C16C
:102BA000CED9C3B49EA9C6C7BEBAC2A3B3A29B9EC8
:102BB0008D746F7981756C866F59545C6F71583163
:102BC0004D101036584E22020A315720604F241102
:102BD0002754654A223C22122A3E3A32282C3F5D75
:102BE0001B424E514A4E5956566463756C748DB4EF
:102BF000B89E8F8A8FF6FDF1D3B2B8D8FEFDFBFCEC
:102C0000D1E6FFF6B09CC5F7FDF6609E4C62697D8B
:102C1000AAA168608B7D5D73756297C9BD956D7063
:102C2000A9E8DACBC0A596ADBAAAA5A39288958DDE
:102C30007977787A76633A29394B51504333344562
:102C4000555C564330313A3F3B2F200F101D2F3932
:102C500035302E3540546869594943414856584FDC
:102C6000413E454D56636764646D7472818980840A
:102C7000A9C2AD9798B1E9FEFEFFDDC3D5FCFEFE0B
:102C8000FEF9D7E5FDE5AAB1DFF1E09EA9705B662C
:102C90006C84947D606B7669666C687AABBBA88D3A
:102CA0008197C0C9BFB6A79598A7A59C99928B8C10
:102CB00089776A6F726F634935384A595B55473E69
:102CC0004758605C503D30313C443F32221F27372B
:102CD00049514E44434C5A6B7269564A484C565EB1
:102CE0005B524F535B606B73726E7077787F858435
:102CF000859BB5B9A8A1ACCBEEFFF8E1C7C3DBF863
:102D0000FDF4EEDED9E7E1B59FAEC5C5A9808E9D85
:102D1000ABB9C7D3DDE7EFF5FAFEFFFFFEFBF7F235
:102D2000EBE4DBD3C9BFB5ACA39B938B85807B78E9
:102D30007574737475777A7D8185898D9195989B6B
:102D40009D9FA0A09F9E9C9996928E8984807B7661
:102D5000716D69666361605F5F606264676A6E720D
:102D6000767A7E8285888A8B8C8B8A8784807A7437
:102D70006C645C534A3F362C241B140D080401007C
:102D80000001050A1018222C38465462718080BE5A
:102D9000EAF5E4C4A79EAAC5E2F7FFFEF8F0E8DB77
:102DA000C7AD978D93A6BDCAC3A681645B6D8FB274
:102DB000C5BEA4826B687A96B0BBB6A591807670CA
:102DC000696360677890A4A99772492C2C4C7FB3F3
:102DD000D3D3B68D68565B6F87989F9C968F897FFB
:102DE0006E5A49444F698597947D5B413A4D709284
:102DF000A49B7E593C3542596C7268523824170F97
:102E0000070100081D3A5561583B1B0A1541808097
:102E1000ABC3C1AC9792A6CBEFFFF3D4B4A5AFCBB5
:102E2000E6EEDDB996858FACC9D5C7A8897D8BAC98
:102E3000CCD9CDAD8D7F89A5BFC7B58F69555A73E4
:102E40008B927F5C392A365677867E644B45597F54
:102E5000A6BAB49B817988A9C9D5C6A3806D748CA4
:102E6000A5AA96704A38405A768072523226335359
:102E700074827657382A3653707A6946221119348B
:102E8000505A4B2B0C011034596D68533E3C548002
:102E90008095A9BDCFDFEBF5FCFFFFFCF6EEE3D696
:102EA000C9B9AB9C8F8379716A676566686C727803
:102EB0007F878D9397999A98958E867C70635446F8
:102EC00036291C1109030000030A14203042566AF7
:102ED0007F95A9BDCFDFEBF5FCFFFFFCF6EEE3D657
:102EE000C9B9AB9C8F8379716A676566686C7278C3
:102EF0007F878D9397999A98958E867C70635446B8
:102F000036291C1109030000030A14203042566AB6
:102F10008080B9E0EBDFCBC0C7DAEBECD8B79B938E
:102F2000A6CAEEFFF4D3AD928B939D9983644B496F
:102F3000638FBCD6D3BA9B84808991896E4625194C
:102F4000294B6E8077593722213143483C2719227B
:102F5000477FB8DDE6D8C3B7BCCEDEDDC8A6887F24
:102F600091B4D6E6DAB991766E767F7B64452C29EA
:102F700043709CB6B49B7C66626C746D522C0B01E2
:102F80001135596C644827131425383F3420141F19
:102F9000468080A9CBDBD8C7AD96898C9DB9D9F284
:102FA000FFFDEDD5BAA69B9AA0A9B0B2AEA4978CAE
:102FB0008480807F7D79716A66687180919FA5A108
:102FC00094806D61627089A6BFCDCAB59673574A69
:102FD0004E627F9DB1B5A88C694A35323F59768FD4
:102FE0009D9E927F6B5E5A606E7F8E9799958E86BE
:102FF0008280807F7B73685B514D4F565F6564595B
:10300000452A1202000D264662737669523827243B
:1030100034568080BFEDFFF6DDC2B1ACAFB3B3AEC6
:10302000A8A7ADB4B8B3A490827F8A9BA8A7977FC6
:1030300069616A7F95A09A8772666A7C92A2A59C54
:103040008D838189939A9A958F8C8D8D836B4A2A73
:103050001A23497FB6DCE5D5B5947C727273706A29
:1030600065656C767E7C72635A5D6D8395998D780B
:10307000655F6A7F959E96806858576475807D6FFE
:103080005B4C474B525857514C4C50534E3D2209C4
:1030900001124080797F848991959AA0A5ABAFB148
:1030A000B5BAC0C2C6CBCFD4D8DBDCDAD6CBB5A09C
:1030B0008D7250392715080003101C293C556B7A76
:1030C0008795A0A3A3A2A09E9B979597949598946B
:1030D000908E887E736961564D4847494C505B69B4
:1030E000747C878E9497938E8A847A726964615E09
:1030F000595C6060616465686967696B6F72747957
:1031000080878B91949A9B9995928D88807A777419
:103110007171737579ACCDDEF3FBDEBFAC875943BB
:103120003A2F2A38464C5C6A7377818683868C8A6C
:10313000868381786F68625856595D64707C848E8E
:103140009596928D867B736F6A696D73777D86889D
:10315000898A8984817E7B77787B7C81898F92962E
:1031600098948F898176716E6D6F7A848E9AA5A8F6
:10317000A8A8A399928A8178787774757B807E86D7
:103180008F959CACB8BBC6CDC1AEA1865736291071
:103190000015344B74ACBDD2DDE9F7FFFBF3ECE274
:1031A000CFBAA5948471615955514C4D55595C6005
:1031B000686D71777D828991989EA5ADB2B3B3B2E7
:1031C000AFA89D91867C6E6058554F4C4D53585F0B
:1031D00066707A828A929AA0A5A9ADB1B2B2B1AE58
:1031E000AAA39A93897D726B635D585555555658BD
:1031F0005C6063676A6D707173737372706E6A6717
:10320000635E5955524F4A4A4B48484C4F4F5058AD
:103210006067778792A6BD878F95969594959CA0B9
:10322000A2A9ABA9A4A2A1A4ABAEB3BCBFBEBDBDB5
:10323000C0C0C6CECFC6A685652D000A2223376B37
:103240008E8F8F999EA2A9B5C2C0B19E7B4E363299
:1032500027223C5D686E79848A919CACB9BFBCAC76
:103260008F74634F393C4D54555B6464636874825A
:103270009198959188745C52504B4E53565C5F5DAB
:10328000616C787F858D8D877F76737372737577A8
:1032900076716B6D73797F878F8E949DA2A9B2BB77
:1032A000C3C7D5E2E2E4EEEEEAE5F6E5CCDAD4BF58
:1032B000B7B09890817A68594D3F3E3B2121291E35
:1032C00016252525293445464B5E6F7480949FA5AD
:1032D000B0C2C9C7D0DCE0DBD6DEDCCBC8CFB5A638
:1032E000A5978B7A6C5F5447392C2B220D21150042
:1032F0000D1C151320242A37464E535C6870757BCD
:10330000847E89928A8C8E8B9089898B7C88837C41
:10331000837A7B817B8380818F909FA3A7B7C0BE78
:10332000CDE1CFBBD9EAC6BBD0BE9EA7B1916F702D
:103330007A634042502F132C330C001D20101A1DAD
:103340002333313B4B505A656B7075798189898382
:103350008B908C8A8B8A858889817E82817D7E7E16
:103360007C7C888A838A929A9EA6ACB1BEC2CADA55
:10337000DADDE7E3EAE5D5E7F2CDB8CFCFA497A64B
:103380008E6C6875663F33494021273B20123843D5
:10339000282E495152626E727C90747A797B7F7DBF
:1033A000777270727374787C818183878A8D8C8A3E
:1033B0009091949A9EA5AEB7B5B6C6C2C6CFC9CDF8
:1033C000C5BBBDBEBDBABEC0BDA57967643500250D
:1033D00067645473989B9DB1C1BDA17F63565C51D6
:1033E000343551544C6A94A2A2A9AAA39E9078683D
:1033F000615444435561637189959CA5A3998E7E60
:103400006A5A4C373642444C606B7883868A897C92
:10341000716962554F50565D646A74CADD9B82CBF8
:10342000FFDDBACFEBDFC5C9DED3A08AADC09160A6
:10343000667C7964524E575C575A66645B67848F2A
:10344000837F91ACB6A99DA6B2B0A7A59C8E898EAC
:103450008C7C675F676F635250596A7C77626F9E9E
:10346000AE9E9CADB8C0C8BFB3B4BBB7AA9A89879B
:103470008A7E615255564B3C31313B3B3333343BB2
:103480004B4F424357635E58565B676758525D65C2
:10349000554A545B5A60768C816379CA94A1B3D340
:1034A000D7CFECFFEAE3EEEAC9B9CFA86B828D4E25
:1034B00036422E2927181E1F273542504836717D67
:1034C0002E4A9E5C4D856D70777B897571919273E4
:1034D000809788829087878E838A87748987738094
:1034E000787681757C85737B95806F8B9C838496C1
:1034F000919F8A9FC97691E5A282C0CCB3B9CAD305
:10350000DCD9DAD2BEBEA9A3A3634E73531A242E0C
:103510000E02141B0C1238433C59778194C0BE969E
:10352000C0FBD1BEEAFFEBEFFAF2EFF1EBECE8C83B
:10353000BED7C9A397A7927382865B476361413E5A
:103540004236343C3C3733313F534C3B4F645F6130
:1035500079776B7F9C988E98A3A6B2BBBAB6B1C49C
:10356000D5BFB7D6D0BDCECEB5B5C0B7A49C9E99B9
:103570008A827D6A5D5F5E493B3F3D32333328235B
:10358000312C32291D372B332D3C2C3A473F354AFD
:1035900041484E4351656F625B81A48684C0D3EE7F
:1035A000CA8498F3FFA15B637C776B6F6D62668B57
:1035B000B1C5C2A994A6CBC0865A5B6B675D5F603C
:1035C0005C6988A2A99F91909FA8967560626663C6
:1035D00061615C5C6D869697918F96A1A2937E72D5
:1035E0007170727D7A6D819D9C9FA99F9DA0958829
:1035F0007D6E6F76726B70787F868786837B74743E
:1036000072665C5A626869646871746D6C6E686435
:10361000615E5F5C54575D5C5957575F78A7D383F1
:10362000B0D4EBF3EDDDC9B5A398918E89827A729F
:103630006D6B6E7885939FA7A9A7A0968C827C76E8
:1036400073727374747372706C6763646B77879949
:10365000A7ADA79479593A2214141F3246596B7FAB
:1036600093A8BCD0E2EEEEE0C7A8896D5B545A691E
:103670007A8A969D9E9B96918F8E8D8D8E8F8E8B46
:10368000867F766B615B595B626E7D8A9397958FBF
:10369000877F7874706A5E4D3824150F162F558316
:1036A00084ACCCE1EAE6D7C4AF9E918A8680776B82
:1036B0005B4B3D3538465E7A96AEBCBEB5A48E7780
:1036C000645B5C636C767D807F7C7B7F899AADC018
:1036D000CDD1CAB596704C2E1C171E2E425667755A
:1036E000818D9AABC0D4E4EBE5D3B6916C4D383004
:1036F00034425568788286858281858C959FA6A6FE
:103700009D8B745D4C4346536B88A4BBC9CCC5B735
:10371000A6978A827C777064523D2A1C171F375BFC
:10372000848BAFB1A8B1B48E595EA5E0D19D95BD93
:10373000D8C39D81674E5481ACB0A097844F264278
:103740008BAB8F7C9AB7A177799CA58467749AB963
:10375000BC9F735B677D83879CA6814C4D7D88549D
:10376000305C9FA88686ACB4865C6179818598A51B
:1037700090634348698E987D5E668789624B668553
:10378000735775BEDCB27D696252547FAEB49A80C5
:10379000653F29436D6530205DA4A7734E50585492
:1037A000618B838D92959A9D9C999EAAB6B8B5B768
:1037B000C0C7C8C5C3C2C1C4CCD3D5D5D5D4CFCA60
:1037C000CED7DBD8D5D8DBD7D1CFD2D1CBC6C5C7E2
:1037D000C9C8C1B8B1AFAFACA9A7A59C928F928F51
:1037E000837A7C817D7470716F665D5A595552522F
:1037F00050494039383B3D3B36303032302A26295B
:103800002C2A262A3337332D2C2C2C2E353D403FA5
:103810003E3C3A3A414A4D494B5764686564686C8E
:1038200070778383909BA5AEB7BFC7CED4D9DEE2B5
:10383000E5E7EAECECEBEBEBECECECECEAE7E5E3F0
:10384000E0DDD9D5D2CECAC7C4C1BEBCBBB9B7B5FD
:10385000B5B5B4B2B1AFADAAA7A5A39F9A979491FD
:103860008D8884817E7974706D6B67625E5C5A5757
:103870005452514F4D4C4D4C4A48474543403D3AB8
:1038800037332F2C2824211E1D1A1715151516162F
:1038900016161516171A1D2023282E333A424B539D
:1038A0005C67758385B1D0DFDED6CECBCFD5DBDECE
:1038B000DEDCDBDCDFE3E8EBE8DFD5CDC7C2BCB4A0
:1038C000A99C8E858283868785817D78736F6A68DF
:1038D000696B6C6B6B6C70767D848787837E7B797C
:1038E0007978787A7F85898A888887837E7A7A7ED4
:1038F000848C929596969697989997938E898580C1
:103900007C7B7B7E7F7C7366584D46403A342C220C
:103910001A17191E232627252323262D3336332B4A
:10392000222232568584BDE2EFEADBC9BBB7BCC0B8
:10393000BFB6ACA29B989A9FA2A09A96969AA0A472
:10394000A7A7A3998C7F767273777D807E7A747037
:103950006C6B6D7074777979787472737981868500
:10396000807A7572747C878F8E87807C7C81888E4C
:10397000908D8988888A8D91959695918D8883827E
:10398000858A8E8F8B8275685E5A5A5D62676B6B13
:1039900067625F62686A665F564B4241464A4639D3
:1039A000271712214A84807A7A7C80817E7B7C7EF4
:1039B0007C77737172717274797A7F858A8A8A8C46
:1039C00092928B848587837872747D7E7B798087E1
:1039D00088827F7B7266616162677B97A7A6B0CDA4
:1039E000E3CAA0A38B68615523223D58595B6F8BB6
:1039F0009A9D9D9E968B84817B767A8386817F8635
:103A00008F8D8178797D79706B70757575787F830E
:103A100085888D8E8D8E8E8984818384827E7E8240
:103A20008585807D7F81808588857D7875706965D5
:103A30006B747E8898A5A19594A3AF9779644A5139
:103A4000656C625C647688979D9A908A89867A72A2
:103A5000737D817E7F898E897D78767268636571DA
:103A60008197A4A19294A8BCA289704B5C6B6D5CF9
:103A7000586476808A949A96908987817B78797940
:103A80007A7F868885818083827B726D6E6F70708D
:103A9000767C7F8083898F8F9092928E837D7C7FCE
:103AA0007E79777A81848485849CB2C6D6E2E8E9FF
:103AB000E7E4E0DBD6D1CDCAC8C5C3BFBBB6B1AC65
:103AC000A7A29D9A979693908E8D8C8C8B8A8988CD
:103AD000888A8B8C8B8B8B8B8A89898A8A8887874B
:103AE000888786858585828181817F7D7C7C7B7AC4
:103AF000797A7A7977777878777676777675767750
:103B0000797979777675757573716E6C6A67645FAC
:103B10005A55504B46423F3C393734302B26211DF5
:103B20001A181A202A3B50698488CAF4FFF1DACDAA
:103B3000D1E2EDE3C3946340323A4E616B6B635B59
:103B40005A667C929B958472686973818E9698966A
:103B500094969CA3A8A9A2968678716E6E6E6F70DB
:103B6000707074797E82878B8A827976797F848877
:103B70008D9191919293939390897B6C5F59595F4A
:103B8000666B6D6B696B73808F98998F7D6C666FB8
:103B9000859BA7A79E9696A0B4C7CFC19E6D3E1EDB
:103BA000151F2F35281002114288070606050590BB
:103BB0009AA3B9C6BFBDCCCFAD6C445488C1DED882
:103BC000C2A58781868A8F9187776E8ECEF4DE9C20
:103BD0006F6A6D6D7A8891949694918C96A18B53AF
:103BE0001409418CBABCA48E7057514F43323447EC
:103BF000576792CDDAA14A1B2434435B788B8277D6
:103C00007D79696263551B061161A8C4B59D8368FF
:103C1000626C76766C667288A8DDFFE6A0573D512F
:103C2000677688ABC1C1C3C3B6A807625F637DAFC7
:103C3000E4FFF9E7D2B8A3928981829ABCDAEBF06B
:103C4000E8CEA57F6A686B7084A5C7D6D4C6AF9945
:103C500084756D697498C8E7E8D2B1917763524B67
:103C60004B5A738EA1A69A86684126202C3C526D31
:103C70008BA2A7916B432C282C2A293D6A98A692E7
:103C8000683B1F131211172B4C728E958C7B63446B
:103C9000251A284B6C89A8BDC4B5946F544C515853
:103CA0005C6886B4DCDBB98D6A5A56627A8CA4C330
:103CB000D8DED5C1A88B7B86A0BACDD6DFECF3EADF
:103CC000CDAB8F8690A3B2BFD0E1EBE4CBAC938BAE
:103CD0008B96A7B3BDCAD8DFD5C09F7D6966758DA9
:103CE0009DA1A3A9AA9F856042353E4E5E6D7B8B48
:103CF000958F775737241F2E455B69727B7D7359EB
:103D00003817010118394F575A5A5D5741250B0092
:103D10000A29506A757B858B7F623E2C2D405B772C
:103D2000889199A4A590715242455C7E7AB0C0C03A
:103D3000B6AFA4927D717A98BFDEF0F6F0E1CEBA0C
:103D4000A4948E94A6BFD9E8EDE5D1BBAB998C8B3A
:103D500096AFCDE7F3F2E6D2BFAD948279839DB7FB
:103D6000C9CABCA8927C644F4243557088979D98FD
:103D7000846E543929252F46637C8B887C644D38AA
:103D800024110A122B4A657067543B251709000558
:103D90001936566D79776D5C473427243048678231
:103DA000989C94826D594B413E486187ADB0C6B036
:103DB00096827E82899CB4CBE3F5FFFCECD4BDAB4C
:103DC0009B97A7C4DEECEFECDECBB6A89C979AA439
:103DD000BCD5E8F5F3E3C8AC9F9C9F9FA4B1C0C5D8
:103DE000C4BCAD977F695851586B85999B8F7F6D87
:103DF0005A4A3F39383D4D5F707A7A6B4E290D0330
:103E00000B1928384550524A3D2A1506000612283B
:103E10004562706D614D3D343032333C4A5F788588
:103E20008783735940363F54698196A8AFAFC682E5
:103E30008B95A2B0BECAD3D4D4D2D0CDCED1D7DD4B
:103E4000E5EBEEEEE9E4DFDAD3D1D3D9DEE6E9ED56
:103E5000ECE5E1DCD6D0CDCFD0D2D5D5D4CCC1B530
:103E6000AAA299959596959493908881766F6860AB
:103E70005E5F63686968625750453D332D2A292A81
:103E80002C2B29241B1209040001050C141C2225CB
:103E90002624201F1F21262D3641494D4E4D4844D2
:103EA000423F41454D565F6A7073737474757982F1
:103EB00000000000000000002000000000000000E2
:103EC0007F00000000003F000028143C00000000BC
:103ED0000028143C000000000028143C00000000F2
:103EE00000100302000003000302000003000000B2
:103EF0000003010004060006003F0B00000C010057
:103F00000112200E12001004000304000000000043
:103F100000000000000000000000000000000000A1
:103F20002B0DD107DA064906E10591054F05180565
:103F3000E704BD0497047504550438041D04040403
:103F4000ED03D703C303AF039D038B037A036A0317
:103F50005B034C033E033003230316030A03FE02F4
:103F6000F302E702DD02D202C802BE02B402AB02D3
:103F7000A2029902900288027F0277026F02680211
:103F80006002580251024A0243023C0235022F02EB
:103F9000280222021B0215020F0209020302FE017F
:103FA000F801F201ED01E701E201DD01D701D201E3
:103FB000CD01C801C301BE01BA01B501B001AC0118
:103FC000A701A3019E019A01950191018D0189012B
:103FD000850181017C017801750171016D01690123
:103FE000650161015E015A01560153014F014C0107
:103FF0004801450141013E013B01370134013101D6
:104000002D012A012701240121011E011A01170196
:10401000140111010E010B01090106010301000148
:10402000FD00FA00F700F500F200EF00EC00EA00F6
:10403000E700E400E200DF00DD00DA00D700D50091
:10404000D200D000CD00CB00C900C600C400C10022
:10405000BF00BC00BA00B800B500B300B100AF00AB
:10406000AC00AA00A800A600A300A1009F009D002C
:104070009B00980096009400920090008E008C00A7
:104080008A00880086008400820080007E007C0018
:104090007A00780076007400720070006E006C0088
:1040A0006A00680067006500630061005F005D00F2
:1040B0005C005A00580056005400530051004F0055
:1040C0004D004C004A0048004600450043004100B6
:1040D00040003E003C003B00390037003600340011
:1040E000330031002F002E002C002B002900270068
:1040F000260024002300210020001E001D001B00BC
:104100001A001800170015001400120011000F000B
:104110000E000C000B00090008000600050004005A
:104120000004070B0F13171A1E2225292C2F3336D4
:10413000393C3F4245484B4E515456595C5E616391
:1041400066686B6D6F727476787A7D7F8183858700
:10415000898A8C8E9092949597999A9C9E9FA1A201
:10416000A4A5A7A8AAABACAEAFB0B2B3B4B5B7B86C
:10417000B9BABBBCBDBEC0C1C2C3C4C5C6C7C8C82E
:10418000C9CACBCCCDCECFCFD0D1D2D3D3D4D5D535
:10419000D6D7D8D8D9DADADBDBDCDDDDDEDEDFE06E
:1041A000E0E1E1E2E2E3E3E4E4E5E5E6E6E7E7E8CF
:1041B000E8E8E9E9EAEAEAEBEBECECECEDEDEDEE50
:1041C000EEEEEFEFEFF0F0F0F1F1F1F1F2F2F2F2EA
:1041D000F3F3F3F3F4F4F4F4F5F5F5F5F6F6F6F697
:1041E000F6F7F7F7F7F7F8F8F8F8F8F8F9F9F9F952
:1041F000F9F9FAFAFAFAFAFAFAFBFBFBFBFBFBFB1A
:10420000FBFCFCFCFCFCFCFCFCFDFDFDFDFDFDFDE8
:10421000FDFDFDFEFEFEFEFEFEFEFEFEFEFEFEFFC0
:10422000FF01FE0400040004000400050005000571
:104230000006000600070007000700080008000944
:104240000009000A000B000B000C000D000E000E10
:10425000000F0010001100120014001500160017C6
:104260000019001A001C001E001F00210023002559
:104270000028002A002D002F003200350039003CB4
:10428000004000430047004C00500055005A0060B9
:104290000065006C00720079008000880090009931
:1042A00000A200AC00B600C100CC00D900E600F3CB
:1042B000000201110122013301450159016E0184FF
:1042C000019B01B301CD01E9010602250246026905
:1042D000028E02B502DF020B0339036B039F03D684
:1042E00003110450049204D80422057005C4051C6F
:1042F000067906DD064607B5072B08A8082D09B97B
:10430000094E0AEC0A930B450C010DC80D9B0E7A61
:104310000F671063116D128713B214EF153F17A3C7
:10432000181C1AB72E0000F72C0000A22D0000F771
:104330002C0000F72C0000872C0000A02B0000A010
:104340002B0000A02B0000A02B0000A02B0000A041
:104350002B0000A02B0000A02B0000A02B00006D64
:10436000280000D22A0000812A0000092900000D3F
:1043700028000053290000AF260000AF260000AF40
:1043800026000042270000602B6A2B742B7E2B88AE
:104390002B922B9D2BA72BB12BBB2BC52BCF2BD916
:1043A0002BE32BED2BF82B022C0C2C162C202C2A7B
:1043B0002C352C3F2C492C532C5E2C682C722C7CD9
:1043C0002C872C912C9B2CA62CB02CBA2CC52CCF36
:1043D0002CD92CE42CEE2CF82C032D0D2D182D228D
:1043E0002D2C2D372D412D4C2D562D612D6B2D76DD
:1043F0002D802D8B2D952DA02DAA2DB52DC02DCA2C
:104400002DD52DDF2DEA2DF52DFF2D0A2E142E1F73
:104410002E2A2E342E3F2E4A2E542E5F2E6A2E75B3
:104420002E7F2E8A2E952EA02EAA2EB52EC02ECBF4
:104430002ED62EE02EEB2EF62E012F0C2F172F222C
:104440002F2D2F372F422F4D2F582F632F6E2F795F
:104450002F842F8F2F9A2FA52FB02FBB2FC62FD190
:104460002FDC2FE72FF22FFD2F083014301F302ABA
:1044700030353040304B30563062306D30783083DC
:10448000308E309A30A530B030BB30C730D230DDFE
:1044900030E830F430FF300A31163121312C313818
:1044A0003143314F315A31653171317C318831932B
:1044B000319F31AA31B631C131CD31D831E431EF3C
:1044C00031FB31063212321D322932353240324C44
:1044D00032573263326F327A32863292329D32A94B
:1044E00032B532C032CC32D832E432EF32FB32074E
:1044F0003313331F332A33363342334E335A336642
:104500003372337D3389339533A133AD33B933C53A
:1045100033D133DD33E933F53301340D3419342528
:104520003431343D344934553461346E347A348610
:104530003492349E34AA34B634C334CF34DB34E7F7
:1045400034F33400350C351835253531353D3549D2
:1045500035563562356E357B3587359335A035ACAC
:1045600035B935C535D235DE35EA35F73503361080
:10457000361C362936353642364E365B366836744A
:104580003681368D369A36A736B336C036CC36D914
:1045900036E636F336FF360C371937253732373FD4
:1045A000374C375837653772377F378C379937A58F
:1045B00037B237BF37CC37D937E637F33700380D46
:1045C000381A382738343841384E385B38683875EF
:1045D0003882388F389C38A938B638C338D038DD9F
:1045E00038EA38F838053912391F392C393A394741
:1045F00039543961396F397C3989399639A439B1DF
:1046000039BE39CC39D939E639F439013A0F3A1C77
:104610003A2A3A373A443A523A5F3A6D3A7A3A8805
:104620003A953AA33AB13ABE3ACC3AD93AE73AF493
:104630003A023B103B1D3B2B3B393B463B543B6214
:104640003B703B7D3B8B3B993BA73BB43BC23BD094
:104650003BDE3BEC3BFA3B073C153C233C313C3F0B
:104660003C4D3C5B3C693C773C853C933CA13CAF7A
:104670003CBD3CCB3CD93CE73CF53C033D113D1FE8
:104680003D2D3D3C3D4A3D583D663D743D833D9149
:104690003D9F3DAD3DBB3DCA3DD83DE63DF53D03AB
:1046A0003E113E203E2E3E3C3E4B3E593E683E76FD
:1046B0003E843E933EA13EB03EBE3ECD3EDB3EEA52
:1046C0003EF83E073F163F243F333F413F503F5F98
:1046D0003F6D3F7C3F8B3F993FA83FB73FC53FD4DD
:1046E0003FE33FF23F00400F401E402D403C404B17
:1046F0004059406840774086409540A440B340C24E
:1047000040D140E040EF40FE400D411C412B413A7A
:1047100041494158416741764185419541A441B3A2
:1047200041C241D141E141F041FF410E421E422DC3
:10473000423C424B425B426A42794289429842A8DB
:1047400042B742C642D642E542F5420443144323EF
:10475000433343424352436143714381439043A0F7
:1047600043AF43BF43CF43DE43EE43FE430E441DFE
:10477000442D443D444D445C446C447C448C449CF6
:1047800044AB44BB44CB44DB44EB44FB440B451BF0
:10479000452B453B454B455B456B457B458B459BD9
:1047A00045AB45BB45CB45DC45EC45FC450C461CC3
:1047B000462C463D464D465D466D467E468E469E9F
:1047C00046AF46BF46CF46E046F046004711472178
:1047D000473247424753476347744784479547A545
:1047E00047B647C647D747E847F847094819482A10
:1047F000483B484C485C486D487E488E489F48B0CE
:1048000048C148D248E248F3480449154926493787
:1048100049484959496A497B498C499D49AE49BF34
:1048200049D049E149F249034A144A254A364A47E0
:104830004A594A6A4A7B4A8C4A9D4AAF4AC04AD181
:104840004AE34AF44A054B174B284B394B4B4B5C18
:104850004B6D4B7F4B904BA24BB34BC54BD64BE8AC
:104860004BF94B0B4C1D4C2E4C404C514C634C7532
:104870004C864C984CAA4CBB4CCD4CDF4CF14C03B5
:104880004D144D264D384D4A4D5C4D6E4D7F4D912A
:104890004DA34DB54DC74DD94DEB4DFD4D0F4E219F
:1048A0004E334E454E584E6A4E7C4E8E4EA04EB202
:1048B0004EC44ED74EE94EFB4E0D4F204F324F4463
:1048C0004F574F694F7B4F8E4FA04FB24FC54FD7B9
:1048D0004FEA4FFC4F0F5021503450465059506B07
:1048E000507E509150A350B650C950DB50EE50014D
:1048F000511351265139514C515E51715184519788
:1049000051AA51BD51CF51E251F55108521B522EBF
:10491000524152545267527A528D52A052B452C7E9
:1049200052DA52ED520053135327533A534D53600A
:1049300053735387539A53AD53C153D453E753FB27
:10494000530E542254355449545C54705483549734
:1049500054AA54BE54D154E554F9540C552055343E
:104960005547555B556F5582559655AA55BE55D23C
:1049700055E655F9550D562156355649565D567131
:104980005685569956AD56020202020202020202F2
:1049900002020202020202020202020202020202F7
:1049A00002020202020202020202020202020202E7
:1049B00002020202020202020202020202020202D7
:1049C00002020202020203030303030303030303BD
:1049D0000304040404040505050506060607070884
:1049E00008090A0A0B0C0D0E0F1012131516181ACF
:1049F0001C1E212326292D3034373B4044494E5379
:104A0000585D63696E747A80868C92979DA3A8AD79
:104A1000B2B7BCC0C5C9CCD0D3D7DADCDFE2E4E69C
:104A2000E8EAEBEDEEF0F1F2F3F4F5F6F6F7F8F86C
:104A3000F9F9FAFAFAFBFBFBFBFCFCFCFCFCFDFDC4
:104A4000FDFDFDFDFDFDFDFDFDFDFEFEFEFEFEFE90
:104A5000FEFEFEFEFEFEFEFEFEFEFEFEFEFEFEFE76
:104A6000FEFEFEFEFEFEFEFEFEFEFEFEFEFEFEFE66
:104A7000FEFEFEFEFEFEFEFEFEFEFEFEFEFEFEFE56
:104A8000FEFEFEFEFEFEFEFFFFD8492140E237DBC0
:104A900030D82AAF253D21651D101A2B17A5146F9C
:104AA000128010CC0E4D0DFA0BCE0AC409D80805A1
:104AB000084907A1060A0683050A059C043A04E191
:104AC00003900347030503C9029202600232020900
:104AD00002E301C001A001830168014F01390124F3
:104AE000011001FF00EE00DF00D100C400B800ACEF
:104AF00000A20098008F0087007F00770071006A95
:104B00000064005F005A00550050004C004800440B
:104B10000040003D003A003700340032002F002DE5
:104B2000002B002900270025002300210020001E63
:104B3000001D001C001A00190018001700160015AF
:104B40000014001300120012001100100010000FDA
:104B5000000E000E000D000D000C000C000B000BF1
:104B6000000A000A00090009000900080007000700
:104B70000006000600050005000400040003000311
:104B80000002000200010000483A11241FBECFEFCE
:104B9000D8E0DEBFCDBF11E0A0E0B1E0E6EBF5E785
:104BA00002C005900D92A635B107D9F725E0A6E51C
:104BB000B1E001C01D92A033B207E1F715E2C5ECE8
:104BC000D5E204C02197FE010E94B43AC43CD1074B
:104BD000C9F70E94E12F0C94D93A0C9400006F920F
:104BE0007F928F92CF92DF92EF92CF93DF93EC017F
:104BF0009B014F8151E8459FA0011124405A594E15
:104C0000C880D980EA80685D7F4F29C0C60CD71C58
:104C1000E81C81E06C147D048E0408F480E0ED8DC6
:104C2000FE8DDF011196BE8FAD8F8083AA279E2D4A
:104C30008D2D96958795FA01E90FF11D982F859195
:104C40001590919DF0019095989FE00DF11D112414
:104C50008F2FF9018193E617F70789F09F01EB8DFC
:104C6000FC8DCF0101969C8F8B8F80816B807C8027
:104C70008D80882309F4CACFE82C6301D0CFC88285
:104C8000D982EA82DF91CF91EF90DF90CF908F9021
:104C90007F906F9008958091A80281508093A80220
:104CA00091E0811101C090E0919590936D0180E0B9
:104CB00008958091A80281508093A8029FEF8034CC
:104CC00018F4982F990F990F90936D0199E3899F8C
:104CD000802D112408959091630122E0290F2093E3
:104CE0006301809162012031B8F09F50909363017D
:104CF0002091A802422F39E4839F400D1124842F74
:104D000040936201911108C09FEF920F9093A80207
:104D100097FD03C090936D010895922F9195909304
:104D20006D01FACF8091A80280936D01815080932C
:104D3000A8029091620129E4929F800D1124809332
:104D4000620108959091A80290936D019150909303
:104D5000A80281E0903208F080E081950895CF921A
:104D6000DF92EF920F931F93CF93DF93DC01FB0150
:104D700019965C91199716968C911697823009F4C2
:104D800078C0893209F47AC01FE7813009F010E059
:104D90001A969C911A972D913D914C911297BF01B3
:104DA000685D7F4F5B96CD91DC915C976E010FEF54
:104DB000C01AD00A5C96DC92CE925B9788811396DB
:104DC000CD90DD90EC901597811146C02C0D3D1DC6
:104DD0004E1D81E0C216D306E40608F480E05D961D
:104DE000CD91DC915E976E010FEFC01AD00A5E96EE
:104DF000DC92CE925D978883C42EDD24EE248C2D28
:104E00005C3650F41696CC911697C23059F1C932DF
:104E100031F1C13039F080E091936E177F0771F066
:104E2000982FC0CFC116C0F317968C911797CC2D31
:104E3000C81B8C2F91936E177F0791F72D933D938D
:104E40004C9312971A968C93DF91CF911F910F91EB
:104E5000EF90DF90CF9008954E2D9601C0CFC116F0
:104E6000D8F6D9CFC1E0C11608F4C0E08C2F8195E7
:104E7000D3CF17961C91179711588ACF17961C916C
:104E8000179786CF2F923F924F926F927F928F9279
:104E9000AF92BF92CF92DF92EF92FF920F931F9348
:104EA000CF93DF9300D000D0CDB7DEB77C01AB014C
:104EB000FC0186818551990B99279C01220F331F94
:104EC000220F331F220F331F820F931F880F991F4A
:104ED000805C9A4EFC016491F701278130E0220F3B
:104EE000331F3327629FD001639FB00D1124E1E08F
:104EF000EB0FE80FF92FF11D0491E2E0EB0FE80F43
:104F0000F92FF11D2491BA2E31E8039F800111245D
:104F1000C801805A994E9A838983239FF0011124F6
:104F2000E05AF94EFC83EB83F70160807180828048
:104F3000638D748D258D968DAA2EA0946A01F8E25A
:104F4000CF0ED11C43C0620C731C841C81E026145C
:104F50003704480408F480E0A22FB92F8D93272C42
:104F6000382C44243694279409811A81F801E30DE2
:104F7000F11D222D45901590219DF0012095249D35
:104F8000E00DF11D11244F2E2B813C81F901E30D21
:104F9000F11D822D25901590819DF0018095829DB7
:104FA000E00DF11D11242F2E342D0A2D122D2B2D45
:104FB000129FC001309F800D911D1124FA01919321
:104FC000EC15FD0589F02A2F9B2FAF01FB01808195
:104FD0006F5F7F4FF701238034804580882309F479
:104FE000B2CF842C3101B8CFF70160827182828206
:104FF0000F900F900F900F90DF91CF911F910F9115
:10500000FF90EF90DF90CF90BF90AF908F907F9008
:105010006F904F903F902F900895CF92DF92EF9234
:105020000F931F93CF93DF93FC01DB01238534851E
:105030002115310511F421E030E08781082F000FA0
:10504000000F043008F404E0C080D180E280BD018C
:10505000685D7F4F09C08FE7850F831B8C936C17AA
:105060007D0771F1DE018781C38DD48DAE014F5F65
:105070005F4F548F438F9881992311F02585368592
:10508000A90156954795217033273195219531090E
:105090002227347B242735271285309FA0010095D5
:1050A000109F0095400D511D11245287ED0121964E
:1050B000803488F6880F850F8C936C177D0791F6E6
:1050C000C082D182E28234872387DF91CF911F9102
:1050D0000F91EF90DF90CF9008954F925F926F9273
:1050E0007F928F92AF92BF92CF92DF92EF92FF9218
:1050F0000F931F93CF93DF93FC01DB0163807480D8
:105100008580EE24D82CC72C878190E08C9DA0014F
:105110008D9D500D9C9D500D112470E060E09DE030
:1051200076956795579547959A95D1F74F5F5F4F5D
:10513000BA016C0D7D1D2A01460E571E440D551DEA
:10514000C080D180E2808D01085D1F4F05C0E82C32
:105150006301638074808580838D948D9C012F5FB3
:105160003F4F348F238FEC01F880F1100CC0C60C38
:10517000D71CE81CFF24F3946C147D048E0408F4FF
:10518000F12C36018E2C858D968D9C012F5F3F4F23
:10519000368F258FEC01F882C284D384C60ED71EC9
:1051A000D386C286E484F584E40CF51CF586E48697
:1051B00026853785240F351F37872687CC24B82CC2
:1051C000A72CAB2CBB24A694A6948D2D86958695F2
:1051D0009F2D96959695890F932F96959695890F65
:1051E0008A0D8D93A017B10709F0B1CF608271824B
:1051F0008282DF91CF911F910F91FF90EF90DF900E
:10520000CF90BF90AF908F907F906F905F904F90B6
:105210000895CF92DF92EF920F931F93CF93DF9376
:10522000FC01DB01578151582081318142818B0182
:10523000085D1F4F1EC02C0D3D1D4E1D81E0C21686
:10524000D306E40608F480E0C58DD68DBE016F5FFD
:105250007F4F768F658F8883BD016F5F7F4F81E0C1
:10526000451708F480E081958C936017710781F0F1
:10527000DB01C38DD48DCE010196948F838F8881FD
:10528000C380D480E5808823B1F24E2D9601DCCF17
:10529000208331834283DF91CF911F910F91EF9053
:1052A000DF90CF9008952F923F924F925F926F922E
:1052B0007F928F92AF92BF92CF92DF92EF92FF9246
:1052C0000F931F93CF93DF93CDB7DEB72C970FB615
:1052D000F894DEBF0FBECDBF1C01F62ED72EFC0109
:1052E000828D8F5F8370828F8111A0C09101265FB4
:1052F0003F4F38872F83A101405F5F4F2A01C101D3
:1053000046969A87898720910101F101318D230208
:105310005001112486E0E2E0F1E0DE0111960190F7
:105320000D928A95E1F7F1016080718082800B2CEB
:10533000000CCC08CB2CBA2CAA240F2D1D2D9801C3
:10534000285D3F4F3C872B87AF81B88569857A857B
:10535000AE014F5F5F4F20E0FD011296E680F780BF
:10536000808191818E0D9F1D15969C938E9314972D
:10537000FB013191BF01FA01E190F190AF01892F5A
:10538000807F832BF701E80FF11DE4912E0F4A1661
:105390005B0611F7382D2303212D1124F1018381A0
:1053A0009481A581681A790A8A0A6C2DA501460D97
:1053B000571D681D481759076A0730F4118A108A6B
:1053C000138A128A158A148A213E64F1203264F508
:1053D000220F220F2058F801208321830E5F1F4FD8
:1053E0002B853C852017310709F0AECFF101608293
:1053F000718282822C960FB6F894DEBF0FBECDBFAD
:10540000DF91CF911F910F91FF90EF90DF90CF90A0
:10541000BF90AF908F907F906F905F904F903F9034
:105420002F90089520E0D7CF2FEFD5CF6781262F7B
:1054300030E0359527953595279535952795359500
:105440002795822F880F880F880F821B6F7007E0C7
:10545000080F90E0AC014F5F5A4E9101265F3F4F1D
:1054600038872F83D901210130E1430E511CA02E32
:10547000B12CFA01C4909501281B390BE20FF31FE0
:10548000E4901C2D7E2D769FF0016095605F169F45
:1054900060516095E00DF11D1124EE0FFF1FEE0F1E
:1054A000FF1FEE0FFF1FED93FD934F5F5F4FA4159E
:1054B000B505F9F68C5F9A4EA1014A5E5F4F5A8797
:1054C0004987DA014C5F5F4FFC017491E20FF31FD3
:1054D000E49110E000E07E2F769F80016095605F90
:1054E000E69F60516095000D111D11241F70007F13
:1054F000102B1295E12FED9301964A175B0721F7C8
:1055000002CFCF92DF92EF921F93CF93DF93DC0114
:10551000FB012D913D914C91129717965C91179735
:10552000152F110F5095685D7F4F1DC02C0D3D1D2F
:105530004E1D81E0C216D306E40608F480E05D96B5
:10554000CD91DC915E976E019FEFC91AD90A5E96E4
:10555000DC92CE925D978883812F84278523819367
:10556000E617F707A9F05B96CD91DC915C97CE0129
:1055700001965C969C938E935B9788811396CD9051
:10558000DD90EC901597882389F24E2D9601D7CFA8
:105590002D933D934C93DF91CF911F91EF90DF902E
:1055A000CF9008952F923F924F926F927F928F9259
:1055B000AF92BF92CF92DF92EF92FF920F931F9321
:1055C000CF93DF9300D000D00F92CDB7DEB78C0120
:1055D0006C837D83DC011896EC91EF73F0E0EE0FA5
:1055E000FF1FEF57FB4E25913491F801C380D48003
:1055F000E58040E08E2DB6010E94523A272E382ECB
:1056000044246781F62EFF0C80819181A28122853E
:105610003385448529833A834B83AC80BD80F8E28F
:10562000AF0EB11C3901842E20E833E106C0AE2D47
:10563000C601F801C380D480E580F801638D748DC4
:10564000AB014F5F5F4F548F438FFB01708171112E
:105650000BC08C0D9D1DAE1D71E0C816D906EA0663
:1056600008F470E06C01EA2ED8015D96ED91FC9192
:105670005E97CF0101965E969C938E935D977083A3
:10568000620C731C841CAA27982D872DF901E90F41
:10569000F11D982F85911590919DF0019095989FFF
:1056A000E00DF11D11248F2F8058482F5F2D4503E9
:1056B000C001112466275E2D4D2D840F951FF90121
:1056C000E90FF11D982F85911590919DF00190950E
:1056D000989FE00DF11D11248F2FAC81BD818D931A
:1056E000BD83AC83AA16BB0609F0A1CFD801CD9229
:1056F000DD92EC9298E2842DB1010E945B3A89819F
:105700009A81AB81280F391F4A1FD8011A962D9311
:105710003D934C930F900F900F900F900F90DF914F
:10572000CF911F910F91FF90EF90DF90CF90BF909E
:10573000AF908F907F906F904F903F902F900895F3
:10574000A5E0B0E0E6EAFBE20C947D3A8C839D8311
:105750006A837B83AC81BD8116968C9116978650A7
:105760008983582F569556958270982E13966D9072
:105770007D908C9015974427382D272D17968C9166
:10578000179790E0829F7001839FF00C929FF00C1E
:105790001124F694E794F694E794E20EF31E1A9619
:1057A0008D919C911B972D913D914C9112975B96F9
:1057B0000D911C915C975D96ED91FC9169816370F0
:1057C00070E0660F771FDB01A858BC4E1D01280151
:1057D000B8E24B0E511C37C081E08083482D930105
:1057E000F101859194918E0D9F1DE92FFF27E058BF
:1057F000FC4EE491CA80DB80FFEFCF1ADF0A513004
:1058000009F439C0523009F475C0552309F46FC04A
:10581000992009F451C0E0580E2F1A2D0103E12DF3
:10582000112410E81E0FEA81FB8110834A165B06E3
:1058300009F44EC0EC81FD81638074808580FB019A
:105840008D01DB82CA82D801BF016F5F7F4FDD907F
:10585000D110C2CF260D371D481DDD24D39462160A
:105860007306840608F4D12CD0826216730684066F
:1058700008F4B9CFB5CF642E77248824AA24AA943B
:105880004034A0F0A12C67FC11C0632E742E882434
:10589000530100E4B01AA094B0940024AA0CBB1CDD
:1058A000001CAA0CBB1C001CAB2CB02C19811530A1
:1058B00009F0AECFE695E0580E2F1A2D019FB12CBE
:1058C0001124EA81FB81B0824A165B0609F0B2CF4F
:1058D000AC81BD812D933D934C93A0E0EC81FD8183
:1058E00082879387A4872596E2E10C94993AA42EA7
:1058F000A0948ECF632E742E88245301AA0CAB2C57
:10590000AA1CBB08B19447FF83CFA09481CF6F92AC
:105910007F928F92AF92BF92CF92DF92EF92FF92DF
:105920000F931F93CF93DF937C01DB01FC01208158
:1059300031814281838D948DC58CD68C685D7F4F7B
:1059400037C0260D371D481D51E0621673068406C8
:1059500008F450E0E6015993642E77248824BB2490
:10596000BA94303268F4A32EB42ECC24F501F69507
:10597000E795F295E295EF70EF27FF70EF27BE2EC7
:10598000F7015781550F062D1B2D159F600150956E
:10599000059F5095C00CD11C11240D2D10E0F8016D
:1059A000E058FC4EE491ED936A177B0771F06E01AD
:1059B000FC0150810196F701638074808580552336
:1059C00009F4BFCF482D9301C5CFF7012083318360
:1059D0004283DF91CF911F910F91FF90EF90DF9065
:1059E000CF90BF90AF908F907F906F900895B0E070
:1059F000A0E0EDEFFCE20C947D3A8C015B01DC0150
:105A000019962C91E22FE295BE2FB07F5B2E4B2E84
:105A10004094EC019E81943009F48EC0EF70CAE08E
:105A2000CE0FD0E0CC0FDD1FC85FDE4FE880F980DD
:105A3000EF5FE73008F07EC0E65FF0E0EE0FFF1F9B
:105A4000E85FFE4F20803180F801608071808280A5
:105A5000438D548D258D968D6501F8E2CF0ED11CB6
:105A60004BC06C0E7D1E8E1E81E0C615D705E80565
:105A700008F480E0C22FD92F8993AA27982D872D6B
:105A8000F701E90FF11D282F95901590219DF00148
:105A90002095299DE00DF11D11249F2EF101E90FA4
:105AA000F11D882FA5911590819DF00180958A9F09
:105AB000E00DF11D1124AF2F292D342D6A2F752DE6
:105AC000679FC001239F800D911D1124292FD801AC
:105AD0001796EC9117979E1738F416962C91233051
